{
	"contracts/nfts/akshunStore.sol": {
		"AkshunStore": {
			"abi": [
				{
					"anonymous": false,
					"inputs": [
						{
							"indexed": false,
							"internalType": "uint256",
							"name": "typeId",
							"type": "uint256"
						},
						{
							"indexed": false,
							"internalType": "uint256",
							"name": "price",
							"type": "uint256"
						},
						{
							"indexed": false,
							"internalType": "uint256",
							"name": "totalSupply",
							"type": "uint256"
						}
					],
					"name": "AkshunTierUpdated",
					"type": "event"
				},
				{
					"anonymous": false,
					"inputs": [
						{
							"indexed": false,
							"internalType": "uint256",
							"name": "typeId",
							"type": "uint256"
						},
						{
							"indexed": false,
							"internalType": "uint256",
							"name": "price",
							"type": "uint256"
						},
						{
							"indexed": false,
							"internalType": "address",
							"name": "user",
							"type": "address"
						},
						{
							"indexed": false,
							"internalType": "uint256[]",
							"name": "akshunIds",
							"type": "uint256[]"
						}
					],
					"name": "AskhunBought",
					"type": "event"
				},
				{
					"anonymous": false,
					"inputs": [
						{
							"indexed": false,
							"internalType": "uint8",
							"name": "version",
							"type": "uint8"
						}
					],
					"name": "Initialized",
					"type": "event"
				},
				{
					"anonymous": false,
					"inputs": [
						{
							"indexed": true,
							"internalType": "address",
							"name": "previousOwner",
							"type": "address"
						},
						{
							"indexed": true,
							"internalType": "address",
							"name": "newOwner",
							"type": "address"
						}
					],
					"name": "OwnershipTransferred",
					"type": "event"
				},
				{
					"anonymous": false,
					"inputs": [
						{
							"indexed": false,
							"internalType": "address",
							"name": "account",
							"type": "address"
						}
					],
					"name": "Paused",
					"type": "event"
				},
				{
					"anonymous": false,
					"inputs": [
						{
							"indexed": false,
							"internalType": "address",
							"name": "signer",
							"type": "address"
						}
					],
					"name": "SignerUpdated",
					"type": "event"
				},
				{
					"anonymous": false,
					"inputs": [
						{
							"indexed": false,
							"internalType": "address",
							"name": "treasury",
							"type": "address"
						}
					],
					"name": "TreasuryUpdated",
					"type": "event"
				},
				{
					"anonymous": false,
					"inputs": [
						{
							"indexed": false,
							"internalType": "address",
							"name": "account",
							"type": "address"
						}
					],
					"name": "Unpaused",
					"type": "event"
				},
				{
					"inputs": [],
					"name": "akshun",
					"outputs": [
						{
							"internalType": "contract IAkshun",
							"name": "",
							"type": "address"
						}
					],
					"stateMutability": "view",
					"type": "function"
				},
				{
					"inputs": [
						{
							"internalType": "uint256",
							"name": "",
							"type": "uint256"
						}
					],
					"name": "akshunTiers",
					"outputs": [
						{
							"internalType": "uint256",
							"name": "price",
							"type": "uint256"
						},
						{
							"internalType": "uint256",
							"name": "totalSupply",
							"type": "uint256"
						},
						{
							"internalType": "uint256",
							"name": "totalSold",
							"type": "uint256"
						}
					],
					"stateMutability": "view",
					"type": "function"
				},
				{
					"inputs": [
						{
							"internalType": "uint256",
							"name": "_typeId",
							"type": "uint256"
						},
						{
							"internalType": "uint256",
							"name": "_quantity",
							"type": "uint256"
						}
					],
					"name": "buy",
					"outputs": [],
					"stateMutability": "nonpayable",
					"type": "function"
				},
				{
					"inputs": [],
					"name": "eth",
					"outputs": [
						{
							"internalType": "contract IERC20",
							"name": "",
							"type": "address"
						}
					],
					"stateMutability": "view",
					"type": "function"
				},
				{
					"inputs": [
						{
							"internalType": "contract IERC20",
							"name": "_eth",
							"type": "address"
						},
						{
							"internalType": "contract IAkshun",
							"name": "_akshun",
							"type": "address"
						}
					],
					"name": "initialize",
					"outputs": [],
					"stateMutability": "nonpayable",
					"type": "function"
				},
				{
					"inputs": [
						{
							"internalType": "address",
							"name": "",
							"type": "address"
						}
					],
					"name": "nonces",
					"outputs": [
						{
							"internalType": "uint256",
							"name": "",
							"type": "uint256"
						}
					],
					"stateMutability": "view",
					"type": "function"
				},
				{
					"inputs": [],
					"name": "owner",
					"outputs": [
						{
							"internalType": "address",
							"name": "",
							"type": "address"
						}
					],
					"stateMutability": "view",
					"type": "function"
				},
				{
					"inputs": [],
					"name": "pause",
					"outputs": [],
					"stateMutability": "nonpayable",
					"type": "function"
				},
				{
					"inputs": [],
					"name": "paused",
					"outputs": [
						{
							"internalType": "bool",
							"name": "",
							"type": "bool"
						}
					],
					"stateMutability": "view",
					"type": "function"
				},
				{
					"inputs": [],
					"name": "renounceOwnership",
					"outputs": [],
					"stateMutability": "nonpayable",
					"type": "function"
				},
				{
					"inputs": [
						{
							"internalType": "uint256",
							"name": "_typeId",
							"type": "uint256"
						},
						{
							"internalType": "uint256",
							"name": "_price",
							"type": "uint256"
						},
						{
							"internalType": "uint256",
							"name": "_totalSupply",
							"type": "uint256"
						}
					],
					"name": "setAkshunTier",
					"outputs": [],
					"stateMutability": "nonpayable",
					"type": "function"
				},
				{
					"inputs": [
						{
							"internalType": "address",
							"name": "_signer",
							"type": "address"
						}
					],
					"name": "setSigner",
					"outputs": [],
					"stateMutability": "nonpayable",
					"type": "function"
				},
				{
					"inputs": [
						{
							"internalType": "address",
							"name": "_treasury",
							"type": "address"
						}
					],
					"name": "setTreasury",
					"outputs": [],
					"stateMutability": "nonpayable",
					"type": "function"
				},
				{
					"inputs": [],
					"name": "signer",
					"outputs": [
						{
							"internalType": "address",
							"name": "",
							"type": "address"
						}
					],
					"stateMutability": "view",
					"type": "function"
				},
				{
					"inputs": [
						{
							"internalType": "address",
							"name": "newOwner",
							"type": "address"
						}
					],
					"name": "transferOwnership",
					"outputs": [],
					"stateMutability": "nonpayable",
					"type": "function"
				},
				{
					"inputs": [],
					"name": "treasury",
					"outputs": [
						{
							"internalType": "address",
							"name": "",
							"type": "address"
						}
					],
					"stateMutability": "view",
					"type": "function"
				},
				{
					"inputs": [],
					"name": "unpause",
					"outputs": [],
					"stateMutability": "nonpayable",
					"type": "function"
				}
			],
			"devdoc": {
				"kind": "dev",
				"methods": {
					"owner()": {
						"details": "Returns the address of the current owner."
					},
					"paused()": {
						"details": "Returns true if the contract is paused, and false otherwise."
					},
					"renounceOwnership()": {
						"details": "Leaves the contract without owner. It will not be possible to call `onlyOwner` functions anymore. Can only be called by the current owner. NOTE: Renouncing ownership will leave the contract without an owner, thereby removing any functionality that is only available to the owner."
					},
					"transferOwnership(address)": {
						"details": "Transfers ownership of the contract to a new account (`newOwner`). Can only be called by the current owner."
					}
				},
				"version": 1
			},
			"evm": {
				"assembly": "    /* \"contracts/nfts/akshunStore.sol\":664:3810  contract AkshunStore is OwnableUpgradeable, PausableUpgradeable, ReentrancyGuardUpgradeable, Signable {... */\n  mstore(0x40, 0x80)\n  callvalue\n  dup1\n  iszero\n  tag_1\n  jumpi\n  0x00\n  dup1\n  revert\ntag_1:\n  pop\n  dataSize(sub_0)\n  dup1\n  dataOffset(sub_0)\n  0x00\n  codecopy\n  0x00\n  return\nstop\n\nsub_0: assembly {\n        /* \"contracts/nfts/akshunStore.sol\":664:3810  contract AkshunStore is OwnableUpgradeable, PausableUpgradeable, ReentrancyGuardUpgradeable, Signable {... */\n      mstore(0x40, 0x80)\n      callvalue\n      dup1\n      iszero\n      tag_1\n      jumpi\n      0x00\n      dup1\n      revert\n    tag_1:\n      pop\n      jumpi(tag_2, lt(calldatasize, 0x04))\n      shr(0xe0, calldataload(0x00))\n      dup1\n      0x715018a6\n      gt\n      tag_20\n      jumpi\n      dup1\n      0x8da5cb5b\n      gt\n      tag_21\n      jumpi\n      dup1\n      0x8da5cb5b\n      eq\n      tag_15\n      jumpi\n      dup1\n      0xc7915434\n      eq\n      tag_16\n      jumpi\n      dup1\n      0xd6febde8\n      eq\n      tag_17\n      jumpi\n      dup1\n      0xf0f44260\n      eq\n      tag_18\n      jumpi\n      dup1\n      0xf2fde38b\n      eq\n      tag_19\n      jumpi\n      jump(tag_2)\n    tag_21:\n      dup1\n      0x715018a6\n      eq\n      tag_11\n      jumpi\n      dup1\n      0x7ecebe00\n      eq\n      tag_12\n      jumpi\n      dup1\n      0x8456cb59\n      eq\n      tag_13\n      jumpi\n      dup1\n      0x8c7c9e0c\n      eq\n      tag_14\n      jumpi\n      jump(tag_2)\n    tag_20:\n      dup1\n      0x485cc955\n      gt\n      tag_22\n      jumpi\n      dup1\n      0x485cc955\n      eq\n      tag_7\n      jumpi\n      dup1\n      0x5c975abb\n      eq\n      tag_8\n      jumpi\n      dup1\n      0x61d027b3\n      eq\n      tag_9\n      jumpi\n      dup1\n      0x6c19e783\n      eq\n      tag_10\n      jumpi\n      jump(tag_2)\n    tag_22:\n      dup1\n      0x15ccaceb\n      eq\n      tag_3\n      jumpi\n      dup1\n      0x238ac933\n      eq\n      tag_4\n      jumpi\n      dup1\n      0x3cba00e6\n      eq\n      tag_5\n      jumpi\n      dup1\n      0x3f4ba83a\n      eq\n      tag_6\n      jumpi\n    tag_2:\n      0x00\n      dup1\n      revert\n        /* \"contracts/nfts/akshunStore.sol\":2239:2850  function setAkshunTier(uint256 _typeId, uint256 _price, uint256 _totalSupply)... */\n    tag_3:\n      tag_23\n      0x04\n      dup1\n      calldatasize\n      sub\n      dup2\n      add\n      swap1\n      tag_24\n      swap2\n      swap1\n      tag_25\n      jump\t// in\n    tag_24:\n      tag_26\n      jump\t// in\n    tag_23:\n      stop\n        /* \"contracts/common/Signable.sol\":212:233  address public signer */\n    tag_4:\n      tag_27\n      tag_28\n      jump\t// in\n    tag_27:\n      mload(0x40)\n      tag_29\n      swap2\n      swap1\n      tag_30\n      jump\t// in\n    tag_29:\n      mload(0x40)\n      dup1\n      swap2\n      sub\n      swap1\n      return\n        /* \"contracts/nfts/akshunStore.sol\":1049:1070  IAkshun public akshun */\n    tag_5:\n      tag_31\n      tag_32\n      jump\t// in\n    tag_31:\n      mload(0x40)\n      tag_33\n      swap2\n      swap1\n      tag_34\n      jump\t// in\n    tag_33:\n      mload(0x40)\n      dup1\n      swap2\n      sub\n      swap1\n      return\n        /* \"contracts/nfts/akshunStore.sol\":2149:2232  function unpause()... */\n    tag_6:\n      tag_35\n      tag_36\n      jump\t// in\n    tag_35:\n      stop\n        /* \"contracts/nfts/akshunStore.sol\":1369:1705  function initialize(IERC20 _eth, IAkshun _akshun)... */\n    tag_7:\n      tag_37\n      0x04\n      dup1\n      calldatasize\n      sub\n      dup2\n      add\n      swap1\n      tag_38\n      swap2\n      swap1\n      tag_39\n      jump\t// in\n    tag_38:\n      tag_40\n      jump\t// in\n    tag_37:\n      stop\n        /* \"@openzeppelin/contracts-upgradeable/security/PausableUpgradeable.sol\":1858:1942  function paused() public view virtual returns (bool) {... */\n    tag_8:\n      tag_41\n      tag_42\n      jump\t// in\n    tag_41:\n      mload(0x40)\n      tag_43\n      swap2\n      swap1\n      tag_44\n      jump\t// in\n    tag_43:\n      mload(0x40)\n      dup1\n      swap2\n      sub\n      swap1\n      return\n        /* \"contracts/nfts/akshunStore.sol\":1077:1100  address public treasury */\n    tag_9:\n      tag_45\n      tag_46\n      jump\t// in\n    tag_45:\n      mload(0x40)\n      tag_47\n      swap2\n      swap1\n      tag_30\n      jump\t// in\n    tag_47:\n      mload(0x40)\n      dup1\n      swap2\n      sub\n      swap1\n      return\n        /* \"contracts/nfts/akshunStore.sol\":1949:2058  function setSigner(address _signer)... */\n    tag_10:\n      tag_48\n      0x04\n      dup1\n      calldatasize\n      sub\n      dup2\n      add\n      swap1\n      tag_49\n      swap2\n      swap1\n      tag_50\n      jump\t// in\n    tag_49:\n      tag_51\n      jump\t// in\n    tag_48:\n      stop\n        /* \"@openzeppelin/contracts-upgradeable/access/OwnableUpgradeable.sol\":2071:2172  function renounceOwnership() public virtual onlyOwner {... */\n    tag_11:\n      tag_52\n      tag_53\n      jump\t// in\n    tag_52:\n      stop\n        /* \"contracts/nfts/akshunStore.sol\":1321:1362  mapping(address => uint256) public nonces */\n    tag_12:\n      tag_54\n      0x04\n      dup1\n      calldatasize\n      sub\n      dup2\n      add\n      swap1\n      tag_55\n      swap2\n      swap1\n      tag_50\n      jump\t// in\n    tag_55:\n      tag_56\n      jump\t// in\n    tag_54:\n      mload(0x40)\n      tag_57\n      swap2\n      swap1\n      tag_58\n      jump\t// in\n    tag_57:\n      mload(0x40)\n      dup1\n      swap2\n      sub\n      swap1\n      return\n        /* \"contracts/nfts/akshunStore.sol\":2064:2143  function pause()... */\n    tag_13:\n      tag_59\n      tag_60\n      jump\t// in\n    tag_59:\n      stop\n        /* \"contracts/nfts/akshunStore.sol\":1025:1042  IERC20 public eth */\n    tag_14:\n      tag_61\n      tag_62\n      jump\t// in\n    tag_61:\n      mload(0x40)\n      tag_63\n      swap2\n      swap1\n      tag_64\n      jump\t// in\n    tag_63:\n      mload(0x40)\n      dup1\n      swap2\n      sub\n      swap1\n      return\n        /* \"@openzeppelin/contracts-upgradeable/access/OwnableUpgradeable.sol\":1441:1526  function owner() public view virtual returns (address) {... */\n    tag_15:\n      tag_65\n      tag_66\n      jump\t// in\n    tag_65:\n      mload(0x40)\n      tag_67\n      swap2\n      swap1\n      tag_30\n      jump\t// in\n    tag_67:\n      mload(0x40)\n      dup1\n      swap2\n      sub\n      swap1\n      return\n        /* \"contracts/nfts/akshunStore.sol\":1265:1314  mapping(uint256 => AkshunTier) public akshunTiers */\n    tag_16:\n      tag_68\n      0x04\n      dup1\n      calldatasize\n      sub\n      dup2\n      add\n      swap1\n      tag_69\n      swap2\n      swap1\n      tag_70\n      jump\t// in\n    tag_69:\n      tag_71\n      jump\t// in\n    tag_68:\n      mload(0x40)\n      tag_72\n      swap4\n      swap3\n      swap2\n      swap1\n      tag_73\n      jump\t// in\n    tag_72:\n      mload(0x40)\n      dup1\n      swap2\n      sub\n      swap1\n      return\n        /* \"contracts/nfts/akshunStore.sol\":2856:3808  function buy(uint256 _typeId, uint256 _quantity)... */\n    tag_17:\n      tag_74\n      0x04\n      dup1\n      calldatasize\n      sub\n      dup2\n      add\n      swap1\n      tag_75\n      swap2\n      swap1\n      tag_76\n      jump\t// in\n    tag_75:\n      tag_77\n      jump\t// in\n    tag_74:\n      stop\n        /* \"contracts/nfts/akshunStore.sol\":1711:1943  function setTreasury(address _treasury)... */\n    tag_18:\n      tag_78\n      0x04\n      dup1\n      calldatasize\n      sub\n      dup2\n      add\n      swap1\n      tag_79\n      swap2\n      swap1\n      tag_50\n      jump\t// in\n    tag_79:\n      tag_80\n      jump\t// in\n    tag_78:\n      stop\n        /* \"@openzeppelin/contracts-upgradeable/access/OwnableUpgradeable.sol\":2321:2519  function transferOwnership(address newOwner) public virtual onlyOwner {... */\n    tag_19:\n      tag_81\n      0x04\n      dup1\n      calldatasize\n      sub\n      dup2\n      add\n      swap1\n      tag_82\n      swap2\n      swap1\n      tag_50\n      jump\t// in\n    tag_82:\n      tag_83\n      jump\t// in\n    tag_81:\n      stop\n        /* \"contracts/nfts/akshunStore.sol\":2239:2850  function setAkshunTier(uint256 _typeId, uint256 _price, uint256 _totalSupply)... */\n    tag_26:\n        /* \"@openzeppelin/contracts-upgradeable/access/OwnableUpgradeable.sol\":1334:1347  _checkOwner() */\n      tag_85\n        /* \"@openzeppelin/contracts-upgradeable/access/OwnableUpgradeable.sol\":1334:1345  _checkOwner */\n      tag_86\n        /* \"@openzeppelin/contracts-upgradeable/access/OwnableUpgradeable.sol\":1334:1347  _checkOwner() */\n      jump\t// in\n    tag_85:\n        /* \"contracts/nfts/akshunStore.sol\":2381:2382  0 */\n      0x00\n        /* \"contracts/nfts/akshunStore.sol\":2372:2378  _price */\n      dup3\n        /* \"contracts/nfts/akshunStore.sol\":2372:2382  _price > 0 */\n      gt\n        /* \"contracts/nfts/akshunStore.sol\":2364:2414  require(_price > 0, \"AskhunNFT: price is invalid\") */\n      tag_88\n      jumpi\n      mload(0x40)\n      0x08c379a000000000000000000000000000000000000000000000000000000000\n      dup2\n      mstore\n      0x04\n      add\n      tag_89\n      swap1\n      tag_90\n      jump\t// in\n    tag_89:\n      mload(0x40)\n      dup1\n      swap2\n      sub\n      swap1\n      revert\n    tag_88:\n        /* \"contracts/nfts/akshunStore.sol\":2425:2454  AkshunTier storage akshunTier */\n      0x00\n        /* \"contracts/nfts/akshunStore.sol\":2457:2468  akshunTiers */\n      0xcd\n        /* \"contracts/nfts/akshunStore.sol\":2457:2477  akshunTiers[_typeId] */\n      0x00\n        /* \"contracts/nfts/akshunStore.sol\":2469:2476  _typeId */\n      dup6\n        /* \"contracts/nfts/akshunStore.sol\":2457:2477  akshunTiers[_typeId] */\n      dup2\n      mstore\n      0x20\n      add\n      swap1\n      dup2\n      mstore\n      0x20\n      add\n      0x00\n      keccak256\n        /* \"contracts/nfts/akshunStore.sol\":2425:2477  AkshunTier storage akshunTier = akshunTiers[_typeId] */\n      swap1\n      pop\n        /* \"contracts/nfts/akshunStore.sol\":2512:2522  akshunTier */\n      dup1\n        /* \"contracts/nfts/akshunStore.sol\":2512:2532  akshunTier.totalSold */\n      0x02\n      add\n      sload\n        /* \"contracts/nfts/akshunStore.sol\":2496:2508  _totalSupply */\n      dup3\n        /* \"contracts/nfts/akshunStore.sol\":2496:2532  _totalSupply >= akshunTier.totalSold */\n      lt\n      iszero\n        /* \"contracts/nfts/akshunStore.sol\":2488:2571  require(_totalSupply >= akshunTier.totalSold, \"AskhunNFT: total supply is invalid\") */\n      tag_91\n      jumpi\n      mload(0x40)\n      0x08c379a000000000000000000000000000000000000000000000000000000000\n      dup2\n      mstore\n      0x04\n      add\n      tag_92\n      swap1\n      tag_93\n      jump\t// in\n    tag_92:\n      mload(0x40)\n      dup1\n      swap2\n      sub\n      swap1\n      revert\n    tag_91:\n        /* \"contracts/nfts/akshunStore.sol\":2606:2612  _price */\n      dup3\n        /* \"contracts/nfts/akshunStore.sol\":2586:2596  akshunTier */\n      dup2\n        /* \"contracts/nfts/akshunStore.sol\":2586:2602  akshunTier.price */\n      0x00\n      add\n      sload\n        /* \"contracts/nfts/akshunStore.sol\":2586:2612  akshunTier.price != _price */\n      eq\n        /* \"contracts/nfts/akshunStore.sol\":2582:2664  if (akshunTier.price != _price) {... */\n      tag_94\n      jumpi\n        /* \"contracts/nfts/akshunStore.sol\":2647:2653  _price */\n      dup3\n        /* \"contracts/nfts/akshunStore.sol\":2628:2638  akshunTier */\n      dup2\n        /* \"contracts/nfts/akshunStore.sol\":2628:2644  akshunTier.price */\n      0x00\n      add\n        /* \"contracts/nfts/akshunStore.sol\":2628:2653  akshunTier.price = _price */\n      dup2\n      swap1\n      sstore\n      pop\n        /* \"contracts/nfts/akshunStore.sol\":2582:2664  if (akshunTier.price != _price) {... */\n    tag_94:\n        /* \"contracts/nfts/akshunStore.sol\":2704:2716  _totalSupply */\n      dup2\n        /* \"contracts/nfts/akshunStore.sol\":2678:2688  akshunTier */\n      dup2\n        /* \"contracts/nfts/akshunStore.sol\":2678:2700  akshunTier.totalSupply */\n      0x01\n      add\n      sload\n        /* \"contracts/nfts/akshunStore.sol\":2678:2716  akshunTier.totalSupply != _totalSupply */\n      eq\n        /* \"contracts/nfts/akshunStore.sol\":2674:2780  if (akshunTier.totalSupply != _totalSupply) {... */\n      tag_95\n      jumpi\n        /* \"contracts/nfts/akshunStore.sol\":2757:2769  _totalSupply */\n      dup2\n        /* \"contracts/nfts/akshunStore.sol\":2732:2742  akshunTier */\n      dup2\n        /* \"contracts/nfts/akshunStore.sol\":2732:2754  akshunTier.totalSupply */\n      0x01\n      add\n        /* \"contracts/nfts/akshunStore.sol\":2732:2769  akshunTier.totalSupply = _totalSupply */\n      dup2\n      swap1\n      sstore\n      pop\n        /* \"contracts/nfts/akshunStore.sol\":2674:2780  if (akshunTier.totalSupply != _totalSupply) {... */\n    tag_95:\n        /* \"contracts/nfts/akshunStore.sol\":2795:2843  AkshunTierUpdated(_typeId, _price, _totalSupply) */\n      0x7a3e11019e2d2a98001bf488f40a5a88fdc25dab512e1761aabaac47709e8681\n        /* \"contracts/nfts/akshunStore.sol\":2813:2820  _typeId */\n      dup5\n        /* \"contracts/nfts/akshunStore.sol\":2822:2828  _price */\n      dup5\n        /* \"contracts/nfts/akshunStore.sol\":2830:2842  _totalSupply */\n      dup5\n        /* \"contracts/nfts/akshunStore.sol\":2795:2843  AkshunTierUpdated(_typeId, _price, _totalSupply) */\n      mload(0x40)\n      tag_96\n      swap4\n      swap3\n      swap2\n      swap1\n      tag_73\n      jump\t// in\n    tag_96:\n      mload(0x40)\n      dup1\n      swap2\n      sub\n      swap1\n      log1\n        /* \"contracts/nfts/akshunStore.sol\":2354:2850  {... */\n      pop\n        /* \"contracts/nfts/akshunStore.sol\":2239:2850  function setAkshunTier(uint256 _typeId, uint256 _price, uint256 _totalSupply)... */\n      pop\n      pop\n      pop\n      jump\t// out\n        /* \"contracts/common/Signable.sol\":212:233  address public signer */\n    tag_28:\n      0xc9\n      0x00\n      swap1\n      sload\n      swap1\n      0x0100\n      exp\n      swap1\n      div\n      0xffffffffffffffffffffffffffffffffffffffff\n      and\n      dup2\n      jump\t// out\n        /* \"contracts/nfts/akshunStore.sol\":1049:1070  IAkshun public akshun */\n    tag_32:\n      0xcb\n      0x00\n      swap1\n      sload\n      swap1\n      0x0100\n      exp\n      swap1\n      div\n      0xffffffffffffffffffffffffffffffffffffffff\n      and\n      dup2\n      jump\t// out\n        /* \"contracts/nfts/akshunStore.sol\":2149:2232  function unpause()... */\n    tag_36:\n        /* \"@openzeppelin/contracts-upgradeable/access/OwnableUpgradeable.sol\":1334:1347  _checkOwner() */\n      tag_98\n        /* \"@openzeppelin/contracts-upgradeable/access/OwnableUpgradeable.sol\":1334:1345  _checkOwner */\n      tag_86\n        /* \"@openzeppelin/contracts-upgradeable/access/OwnableUpgradeable.sol\":1334:1347  _checkOwner() */\n      jump\t// in\n    tag_98:\n        /* \"contracts/nfts/akshunStore.sol\":2215:2225  _unpause() */\n      tag_100\n        /* \"contracts/nfts/akshunStore.sol\":2215:2223  _unpause */\n      tag_101\n        /* \"contracts/nfts/akshunStore.sol\":2215:2225  _unpause() */\n      jump\t// in\n    tag_100:\n        /* \"contracts/nfts/akshunStore.sol\":2149:2232  function unpause()... */\n      jump\t// out\n        /* \"contracts/nfts/akshunStore.sol\":1369:1705  function initialize(IERC20 _eth, IAkshun _akshun)... */\n    tag_40:\n        /* \"@openzeppelin/contracts-upgradeable/proxy/utils/Initializable.sol\":3111:3130  bool isTopLevelCall */\n      0x00\n        /* \"@openzeppelin/contracts-upgradeable/proxy/utils/Initializable.sol\":3134:3147  _initializing */\n      dup1\n      0x01\n      swap1\n      sload\n      swap1\n      0x0100\n      exp\n      swap1\n      div\n      0xff\n      and\n        /* \"@openzeppelin/contracts-upgradeable/proxy/utils/Initializable.sol\":3133:3147  !_initializing */\n      iszero\n        /* \"@openzeppelin/contracts-upgradeable/proxy/utils/Initializable.sol\":3111:3147  bool isTopLevelCall = !_initializing */\n      swap1\n      pop\n        /* \"@openzeppelin/contracts-upgradeable/proxy/utils/Initializable.sol\":3179:3193  isTopLevelCall */\n      dup1\n        /* \"@openzeppelin/contracts-upgradeable/proxy/utils/Initializable.sol\":3179:3213  isTopLevelCall && _initialized < 1 */\n      dup1\n      iszero\n      tag_103\n      jumpi\n      pop\n        /* \"@openzeppelin/contracts-upgradeable/proxy/utils/Initializable.sol\":3212:3213  1 */\n      0x01\n        /* \"@openzeppelin/contracts-upgradeable/proxy/utils/Initializable.sol\":3197:3209  _initialized */\n      0x00\n      dup1\n      sload\n      swap1\n      0x0100\n      exp\n      swap1\n      div\n      0xff\n      and\n        /* \"@openzeppelin/contracts-upgradeable/proxy/utils/Initializable.sol\":3197:3213  _initialized < 1 */\n      0xff\n      and\n      lt\n        /* \"@openzeppelin/contracts-upgradeable/proxy/utils/Initializable.sol\":3179:3213  isTopLevelCall && _initialized < 1 */\n    tag_103:\n        /* \"@openzeppelin/contracts-upgradeable/proxy/utils/Initializable.sol\":3178:3286  (isTopLevelCall && _initialized < 1) || (!AddressUpgradeable.isContract(address(this)) && _initialized == 1) */\n      dup1\n      tag_104\n      jumpi\n      pop\n        /* \"@openzeppelin/contracts-upgradeable/proxy/utils/Initializable.sol\":3220:3264  AddressUpgradeable.isContract(address(this)) */\n      tag_105\n        /* \"@openzeppelin/contracts-upgradeable/proxy/utils/Initializable.sol\":3258:3262  this */\n      address\n        /* \"@openzeppelin/contracts-upgradeable/proxy/utils/Initializable.sol\":3220:3249  AddressUpgradeable.isContract */\n      tag_106\n        /* \"@openzeppelin/contracts-upgradeable/proxy/utils/Initializable.sol\":3220:3264  AddressUpgradeable.isContract(address(this)) */\n      jump\t// in\n    tag_105:\n        /* \"@openzeppelin/contracts-upgradeable/proxy/utils/Initializable.sol\":3219:3264  !AddressUpgradeable.isContract(address(this)) */\n      iszero\n        /* \"@openzeppelin/contracts-upgradeable/proxy/utils/Initializable.sol\":3219:3285  !AddressUpgradeable.isContract(address(this)) && _initialized == 1 */\n      dup1\n      iszero\n      tag_107\n      jumpi\n      pop\n        /* \"@openzeppelin/contracts-upgradeable/proxy/utils/Initializable.sol\":3284:3285  1 */\n      0x01\n        /* \"@openzeppelin/contracts-upgradeable/proxy/utils/Initializable.sol\":3268:3280  _initialized */\n      0x00\n      dup1\n      sload\n      swap1\n      0x0100\n      exp\n      swap1\n      div\n      0xff\n      and\n        /* \"@openzeppelin/contracts-upgradeable/proxy/utils/Initializable.sol\":3268:3285  _initialized == 1 */\n      0xff\n      and\n      eq\n        /* \"@openzeppelin/contracts-upgradeable/proxy/utils/Initializable.sol\":3219:3285  !AddressUpgradeable.isContract(address(this)) && _initialized == 1 */\n    tag_107:\n        /* \"@openzeppelin/contracts-upgradeable/proxy/utils/Initializable.sol\":3178:3286  (isTopLevelCall && _initialized < 1) || (!AddressUpgradeable.isContract(address(this)) && _initialized == 1) */\n    tag_104:\n        /* \"@openzeppelin/contracts-upgradeable/proxy/utils/Initializable.sol\":3157:3358  require(... */\n      tag_108\n      jumpi\n      mload(0x40)\n      0x08c379a000000000000000000000000000000000000000000000000000000000\n      dup2\n      mstore\n      0x04\n      add\n      tag_109\n      swap1\n      tag_110\n      jump\t// in\n    tag_109:\n      mload(0x40)\n      dup1\n      swap2\n      sub\n      swap1\n      revert\n    tag_108:\n        /* \"@openzeppelin/contracts-upgradeable/proxy/utils/Initializable.sol\":3383:3384  1 */\n      0x01\n        /* \"@openzeppelin/contracts-upgradeable/proxy/utils/Initializable.sol\":3368:3380  _initialized */\n      0x00\n      dup1\n        /* \"@openzeppelin/contracts-upgradeable/proxy/utils/Initializable.sol\":3368:3384  _initialized = 1 */\n      0x0100\n      exp\n      dup2\n      sload\n      dup2\n      0xff\n      mul\n      not\n      and\n      swap1\n      dup4\n      0xff\n      and\n      mul\n      or\n      swap1\n      sstore\n      pop\n        /* \"@openzeppelin/contracts-upgradeable/proxy/utils/Initializable.sol\":3398:3412  isTopLevelCall */\n      dup1\n        /* \"@openzeppelin/contracts-upgradeable/proxy/utils/Initializable.sol\":3394:3459  if (isTopLevelCall) {... */\n      iszero\n      tag_111\n      jumpi\n        /* \"@openzeppelin/contracts-upgradeable/proxy/utils/Initializable.sol\":3444:3448  true */\n      0x01\n        /* \"@openzeppelin/contracts-upgradeable/proxy/utils/Initializable.sol\":3428:3441  _initializing */\n      0x00\n      0x01\n        /* \"@openzeppelin/contracts-upgradeable/proxy/utils/Initializable.sol\":3428:3448  _initializing = true */\n      0x0100\n      exp\n      dup2\n      sload\n      dup2\n      0xff\n      mul\n      not\n      and\n      swap1\n      dup4\n      iszero\n      iszero\n      mul\n      or\n      swap1\n      sstore\n      pop\n        /* \"@openzeppelin/contracts-upgradeable/proxy/utils/Initializable.sol\":3394:3459  if (isTopLevelCall) {... */\n    tag_111:\n        /* \"contracts/nfts/akshunStore.sol\":1468:1484  __Ownable_init() */\n      tag_113\n        /* \"contracts/nfts/akshunStore.sol\":1468:1482  __Ownable_init */\n      tag_114\n        /* \"contracts/nfts/akshunStore.sol\":1468:1484  __Ownable_init() */\n      jump\t// in\n    tag_113:\n        /* \"contracts/nfts/akshunStore.sol\":1494:1511  __Pausable_init() */\n      tag_115\n        /* \"contracts/nfts/akshunStore.sol\":1494:1509  __Pausable_init */\n      tag_116\n        /* \"contracts/nfts/akshunStore.sol\":1494:1511  __Pausable_init() */\n      jump\t// in\n    tag_115:\n        /* \"contracts/nfts/akshunStore.sol\":1521:1545  __ReentrancyGuard_init() */\n      tag_117\n        /* \"contracts/nfts/akshunStore.sol\":1521:1543  __ReentrancyGuard_init */\n      tag_118\n        /* \"contracts/nfts/akshunStore.sol\":1521:1545  __ReentrancyGuard_init() */\n      jump\t// in\n    tag_117:\n        /* \"contracts/nfts/akshunStore.sol\":1562:1566  _eth */\n      dup3\n        /* \"contracts/nfts/akshunStore.sol\":1556:1559  eth */\n      0xca\n      0x00\n        /* \"contracts/nfts/akshunStore.sol\":1556:1566  eth = _eth */\n      0x0100\n      exp\n      dup2\n      sload\n      dup2\n      0xffffffffffffffffffffffffffffffffffffffff\n      mul\n      not\n      and\n      swap1\n      dup4\n      0xffffffffffffffffffffffffffffffffffffffff\n      and\n      mul\n      or\n      swap1\n      sstore\n      pop\n        /* \"contracts/nfts/akshunStore.sol\":1585:1592  _akshun */\n      dup2\n        /* \"contracts/nfts/akshunStore.sol\":1576:1582  akshun */\n      0xcb\n      0x00\n        /* \"contracts/nfts/akshunStore.sol\":1576:1592  akshun = _akshun */\n      0x0100\n      exp\n      dup2\n      sload\n      dup2\n      0xffffffffffffffffffffffffffffffffffffffff\n      mul\n      not\n      and\n      swap1\n      dup4\n      0xffffffffffffffffffffffffffffffffffffffff\n      and\n      mul\n      or\n      swap1\n      sstore\n      pop\n        /* \"contracts/nfts/akshunStore.sol\":1603:1620  address msgSender */\n      0x00\n        /* \"contracts/nfts/akshunStore.sol\":1623:1635  _msgSender() */\n      tag_119\n        /* \"contracts/nfts/akshunStore.sol\":1623:1633  _msgSender */\n      tag_120\n        /* \"contracts/nfts/akshunStore.sol\":1623:1635  _msgSender() */\n      jump\t// in\n    tag_119:\n        /* \"contracts/nfts/akshunStore.sol\":1603:1635  address msgSender = _msgSender() */\n      swap1\n      pop\n        /* \"contracts/nfts/akshunStore.sol\":1657:1666  msgSender */\n      dup1\n        /* \"contracts/nfts/akshunStore.sol\":1646:1654  treasury */\n      0xcc\n      0x00\n        /* \"contracts/nfts/akshunStore.sol\":1646:1666  treasury = msgSender */\n      0x0100\n      exp\n      dup2\n      sload\n      dup2\n      0xffffffffffffffffffffffffffffffffffffffff\n      mul\n      not\n      and\n      swap1\n      dup4\n      0xffffffffffffffffffffffffffffffffffffffff\n      and\n      mul\n      or\n      swap1\n      sstore\n      pop\n        /* \"contracts/nfts/akshunStore.sol\":1677:1698  _setSigner(msgSender) */\n      tag_121\n        /* \"contracts/nfts/akshunStore.sol\":1688:1697  msgSender */\n      dup2\n        /* \"contracts/nfts/akshunStore.sol\":1677:1687  _setSigner */\n      tag_122\n        /* \"contracts/nfts/akshunStore.sol\":1677:1698  _setSigner(msgSender) */\n      jump\t// in\n    tag_121:\n        /* \"contracts/nfts/akshunStore.sol\":1458:1705  {... */\n      pop\n        /* \"@openzeppelin/contracts-upgradeable/proxy/utils/Initializable.sol\":3483:3497  isTopLevelCall */\n      dup1\n        /* \"@openzeppelin/contracts-upgradeable/proxy/utils/Initializable.sol\":3479:3578  if (isTopLevelCall) {... */\n      iszero\n      tag_123\n      jumpi\n        /* \"@openzeppelin/contracts-upgradeable/proxy/utils/Initializable.sol\":3529:3534  false */\n      0x00\n        /* \"@openzeppelin/contracts-upgradeable/proxy/utils/Initializable.sol\":3513:3526  _initializing */\n      dup1\n      0x01\n        /* \"@openzeppelin/contracts-upgradeable/proxy/utils/Initializable.sol\":3513:3534  _initializing = false */\n      0x0100\n      exp\n      dup2\n      sload\n      dup2\n      0xff\n      mul\n      not\n      and\n      swap1\n      dup4\n      iszero\n      iszero\n      mul\n      or\n      swap1\n      sstore\n      pop\n        /* \"@openzeppelin/contracts-upgradeable/proxy/utils/Initializable.sol\":3553:3567  Initialized(1) */\n      0x7f26b83ff96e1f2b6a682f133852f6798a09c465da95921460cefb3847402498\n        /* \"@openzeppelin/contracts-upgradeable/proxy/utils/Initializable.sol\":3565:3566  1 */\n      0x01\n        /* \"@openzeppelin/contracts-upgradeable/proxy/utils/Initializable.sol\":3553:3567  Initialized(1) */\n      mload(0x40)\n      tag_124\n      swap2\n      swap1\n      tag_125\n      jump\t// in\n    tag_124:\n      mload(0x40)\n      dup1\n      swap2\n      sub\n      swap1\n      log1\n        /* \"@openzeppelin/contracts-upgradeable/proxy/utils/Initializable.sol\":3479:3578  if (isTopLevelCall) {... */\n    tag_123:\n        /* \"@openzeppelin/contracts-upgradeable/proxy/utils/Initializable.sol\":3101:3584  {... */\n      pop\n        /* \"contracts/nfts/akshunStore.sol\":1369:1705  function initialize(IERC20 _eth, IAkshun _akshun)... */\n      pop\n      pop\n      jump\t// out\n        /* \"@openzeppelin/contracts-upgradeable/security/PausableUpgradeable.sol\":1858:1942  function paused() public view virtual returns (bool) {... */\n    tag_42:\n        /* \"@openzeppelin/contracts-upgradeable/security/PausableUpgradeable.sol\":1905:1909  bool */\n      0x00\n        /* \"@openzeppelin/contracts-upgradeable/security/PausableUpgradeable.sol\":1928:1935  _paused */\n      0x65\n      0x00\n      swap1\n      sload\n      swap1\n      0x0100\n      exp\n      swap1\n      div\n      0xff\n      and\n        /* \"@openzeppelin/contracts-upgradeable/security/PausableUpgradeable.sol\":1921:1935  return _paused */\n      swap1\n      pop\n        /* \"@openzeppelin/contracts-upgradeable/security/PausableUpgradeable.sol\":1858:1942  function paused() public view virtual returns (bool) {... */\n      swap1\n      jump\t// out\n        /* \"contracts/nfts/akshunStore.sol\":1077:1100  address public treasury */\n    tag_46:\n      0xcc\n      0x00\n      swap1\n      sload\n      swap1\n      0x0100\n      exp\n      swap1\n      div\n      0xffffffffffffffffffffffffffffffffffffffff\n      and\n      dup2\n      jump\t// out\n        /* \"contracts/nfts/akshunStore.sol\":1949:2058  function setSigner(address _signer)... */\n    tag_51:\n        /* \"@openzeppelin/contracts-upgradeable/access/OwnableUpgradeable.sol\":1334:1347  _checkOwner() */\n      tag_128\n        /* \"@openzeppelin/contracts-upgradeable/access/OwnableUpgradeable.sol\":1334:1345  _checkOwner */\n      tag_86\n        /* \"@openzeppelin/contracts-upgradeable/access/OwnableUpgradeable.sol\":1334:1347  _checkOwner() */\n      jump\t// in\n    tag_128:\n        /* \"contracts/nfts/akshunStore.sol\":2032:2051  _setSigner(_signer) */\n      tag_130\n        /* \"contracts/nfts/akshunStore.sol\":2043:2050  _signer */\n      dup2\n        /* \"contracts/nfts/akshunStore.sol\":2032:2042  _setSigner */\n      tag_122\n        /* \"contracts/nfts/akshunStore.sol\":2032:2051  _setSigner(_signer) */\n      jump\t// in\n    tag_130:\n        /* \"contracts/nfts/akshunStore.sol\":1949:2058  function setSigner(address _signer)... */\n      pop\n      jump\t// out\n        /* \"@openzeppelin/contracts-upgradeable/access/OwnableUpgradeable.sol\":2071:2172  function renounceOwnership() public virtual onlyOwner {... */\n    tag_53:\n        /* \"@openzeppelin/contracts-upgradeable/access/OwnableUpgradeable.sol\":1334:1347  _checkOwner() */\n      tag_132\n        /* \"@openzeppelin/contracts-upgradeable/access/OwnableUpgradeable.sol\":1334:1345  _checkOwner */\n      tag_86\n        /* \"@openzeppelin/contracts-upgradeable/access/OwnableUpgradeable.sol\":1334:1347  _checkOwner() */\n      jump\t// in\n    tag_132:\n        /* \"@openzeppelin/contracts-upgradeable/access/OwnableUpgradeable.sol\":2135:2165  _transferOwnership(address(0)) */\n      tag_134\n        /* \"@openzeppelin/contracts-upgradeable/access/OwnableUpgradeable.sol\":2162:2163  0 */\n      0x00\n        /* \"@openzeppelin/contracts-upgradeable/access/OwnableUpgradeable.sol\":2135:2153  _transferOwnership */\n      tag_135\n        /* \"@openzeppelin/contracts-upgradeable/access/OwnableUpgradeable.sol\":2135:2165  _transferOwnership(address(0)) */\n      jump\t// in\n    tag_134:\n        /* \"@openzeppelin/contracts-upgradeable/access/OwnableUpgradeable.sol\":2071:2172  function renounceOwnership() public virtual onlyOwner {... */\n      jump\t// out\n        /* \"contracts/nfts/akshunStore.sol\":1321:1362  mapping(address => uint256) public nonces */\n    tag_56:\n      mstore(0x20, 0xce)\n      dup1\n      0x00\n      mstore\n      keccak256(0x00, 0x40)\n      0x00\n      swap2\n      pop\n      swap1\n      pop\n      sload\n      dup2\n      jump\t// out\n        /* \"contracts/nfts/akshunStore.sol\":2064:2143  function pause()... */\n    tag_60:\n        /* \"@openzeppelin/contracts-upgradeable/access/OwnableUpgradeable.sol\":1334:1347  _checkOwner() */\n      tag_137\n        /* \"@openzeppelin/contracts-upgradeable/access/OwnableUpgradeable.sol\":1334:1345  _checkOwner */\n      tag_86\n        /* \"@openzeppelin/contracts-upgradeable/access/OwnableUpgradeable.sol\":1334:1347  _checkOwner() */\n      jump\t// in\n    tag_137:\n        /* \"contracts/nfts/akshunStore.sol\":2128:2136  _pause() */\n      tag_139\n        /* \"contracts/nfts/akshunStore.sol\":2128:2134  _pause */\n      tag_140\n        /* \"contracts/nfts/akshunStore.sol\":2128:2136  _pause() */\n      jump\t// in\n    tag_139:\n        /* \"contracts/nfts/akshunStore.sol\":2064:2143  function pause()... */\n      jump\t// out\n        /* \"contracts/nfts/akshunStore.sol\":1025:1042  IERC20 public eth */\n    tag_62:\n      0xca\n      0x00\n      swap1\n      sload\n      swap1\n      0x0100\n      exp\n      swap1\n      div\n      0xffffffffffffffffffffffffffffffffffffffff\n      and\n      dup2\n      jump\t// out\n        /* \"@openzeppelin/contracts-upgradeable/access/OwnableUpgradeable.sol\":1441:1526  function owner() public view virtual returns (address) {... */\n    tag_66:\n        /* \"@openzeppelin/contracts-upgradeable/access/OwnableUpgradeable.sol\":1487:1494  address */\n      0x00\n        /* \"@openzeppelin/contracts-upgradeable/access/OwnableUpgradeable.sol\":1513:1519  _owner */\n      0x33\n      0x00\n      swap1\n      sload\n      swap1\n      0x0100\n      exp\n      swap1\n      div\n      0xffffffffffffffffffffffffffffffffffffffff\n      and\n        /* \"@openzeppelin/contracts-upgradeable/access/OwnableUpgradeable.sol\":1506:1519  return _owner */\n      swap1\n      pop\n        /* \"@openzeppelin/contracts-upgradeable/access/OwnableUpgradeable.sol\":1441:1526  function owner() public view virtual returns (address) {... */\n      swap1\n      jump\t// out\n        /* \"contracts/nfts/akshunStore.sol\":1265:1314  mapping(uint256 => AkshunTier) public akshunTiers */\n    tag_71:\n      mstore(0x20, 0xcd)\n      dup1\n      0x00\n      mstore\n      keccak256(0x00, 0x40)\n      0x00\n      swap2\n      pop\n      swap1\n      pop\n      dup1\n      0x00\n      add\n      sload\n      swap1\n      dup1\n      0x01\n      add\n      sload\n      swap1\n      dup1\n      0x02\n      add\n      sload\n      swap1\n      pop\n      dup4\n      jump\t// out\n        /* \"contracts/nfts/akshunStore.sol\":2856:3808  function buy(uint256 _typeId, uint256 _quantity)... */\n    tag_77:\n        /* \"@openzeppelin/contracts-upgradeable/security/PausableUpgradeable.sol\":1482:1501  _requireNotPaused() */\n      tag_143\n        /* \"@openzeppelin/contracts-upgradeable/security/PausableUpgradeable.sol\":1482:1499  _requireNotPaused */\n      tag_144\n        /* \"@openzeppelin/contracts-upgradeable/security/PausableUpgradeable.sol\":1482:1501  _requireNotPaused() */\n      jump\t// in\n    tag_143:\n        /* \"@openzeppelin/contracts-upgradeable/security/ReentrancyGuardUpgradeable.sol\":1815:1816  2 */\n      0x02\n        /* \"@openzeppelin/contracts-upgradeable/security/ReentrancyGuardUpgradeable.sol\":2569:2576  _status */\n      sload(0x97)\n        /* \"@openzeppelin/contracts-upgradeable/security/ReentrancyGuardUpgradeable.sol\":2569:2588  _status != _ENTERED */\n      eq\n      iszero\n        /* \"@openzeppelin/contracts-upgradeable/security/ReentrancyGuardUpgradeable.sol\":2561:2624  require(_status != _ENTERED, \"ReentrancyGuard: reentrant call\") */\n      tag_146\n      jumpi\n      mload(0x40)\n      0x08c379a000000000000000000000000000000000000000000000000000000000\n      dup2\n      mstore\n      0x04\n      add\n      tag_147\n      swap1\n      tag_148\n      jump\t// in\n    tag_147:\n      mload(0x40)\n      dup1\n      swap2\n      sub\n      swap1\n      revert\n    tag_146:\n        /* \"@openzeppelin/contracts-upgradeable/security/ReentrancyGuardUpgradeable.sol\":1815:1816  2 */\n      0x02\n        /* \"@openzeppelin/contracts-upgradeable/security/ReentrancyGuardUpgradeable.sol\":2699:2706  _status */\n      0x97\n        /* \"@openzeppelin/contracts-upgradeable/security/ReentrancyGuardUpgradeable.sol\":2699:2717  _status = _ENTERED */\n      dup2\n      swap1\n      sstore\n      pop\n        /* \"contracts/nfts/akshunStore.sol\":2989:2990  1 */\n      0x01\n        /* \"contracts/nfts/akshunStore.sol\":2977:2990  _quantity = 1 */\n      swap1\n      pop\n        /* \"contracts/nfts/akshunStore.sol\":3021:3022  0 */\n      0x00\n        /* \"contracts/nfts/akshunStore.sol\":3009:3018  _quantity */\n      dup2\n        /* \"contracts/nfts/akshunStore.sol\":3009:3022  _quantity > 0 */\n      gt\n        /* \"contracts/nfts/akshunStore.sol\":3001:3057  require(_quantity > 0, \"AskhunNFT: quantity is invalid\") */\n      tag_150\n      jumpi\n      mload(0x40)\n      0x08c379a000000000000000000000000000000000000000000000000000000000\n      dup2\n      mstore\n      0x04\n      add\n      tag_151\n      swap1\n      tag_152\n      jump\t// in\n    tag_151:\n      mload(0x40)\n      dup1\n      swap2\n      sub\n      swap1\n      revert\n    tag_150:\n        /* \"contracts/nfts/akshunStore.sol\":3068:3097  AkshunTier storage akshunTier */\n      0x00\n        /* \"contracts/nfts/akshunStore.sol\":3100:3111  akshunTiers */\n      0xcd\n        /* \"contracts/nfts/akshunStore.sol\":3100:3120  akshunTiers[_typeId] */\n      0x00\n        /* \"contracts/nfts/akshunStore.sol\":3112:3119  _typeId */\n      dup5\n        /* \"contracts/nfts/akshunStore.sol\":3100:3120  akshunTiers[_typeId] */\n      dup2\n      mstore\n      0x20\n      add\n      swap1\n      dup2\n      mstore\n      0x20\n      add\n      0x00\n      keccak256\n        /* \"contracts/nfts/akshunStore.sol\":3068:3120  AkshunTier storage akshunTier = akshunTiers[_typeId] */\n      swap1\n      pop\n        /* \"contracts/nfts/akshunStore.sol\":3158:3159  0 */\n      0x00\n        /* \"contracts/nfts/akshunStore.sol\":3139:3149  akshunTier */\n      dup2\n        /* \"contracts/nfts/akshunStore.sol\":3139:3155  akshunTier.price */\n      0x00\n      add\n      sload\n        /* \"contracts/nfts/akshunStore.sol\":3139:3159  akshunTier.price > 0 */\n      gt\n        /* \"contracts/nfts/akshunStore.sol\":3131:3194  require(akshunTier.price > 0, \"AskhunNFT: Tier does not exist\") */\n      tag_153\n      jumpi\n      mload(0x40)\n      0x08c379a000000000000000000000000000000000000000000000000000000000\n      dup2\n      mstore\n      0x04\n      add\n      tag_154\n      swap1\n      tag_155\n      jump\t// in\n    tag_154:\n      mload(0x40)\n      dup1\n      swap2\n      sub\n      swap1\n      revert\n    tag_153:\n        /* \"contracts/nfts/akshunStore.sol\":3205:3219  uint256 remain */\n      0x00\n        /* \"contracts/nfts/akshunStore.sol\":3247:3257  akshunTier */\n      dup2\n        /* \"contracts/nfts/akshunStore.sol\":3247:3267  akshunTier.totalSold */\n      0x02\n      add\n      sload\n        /* \"contracts/nfts/akshunStore.sol\":3222:3232  akshunTier */\n      dup3\n        /* \"contracts/nfts/akshunStore.sol\":3222:3244  akshunTier.totalSupply */\n      0x01\n      add\n      sload\n        /* \"contracts/nfts/akshunStore.sol\":3222:3267  akshunTier.totalSupply - akshunTier.totalSold */\n      tag_156\n      swap2\n      swap1\n      tag_157\n      jump\t// in\n    tag_156:\n        /* \"contracts/nfts/akshunStore.sol\":3205:3267  uint256 remain = akshunTier.totalSupply - akshunTier.totalSold */\n      swap1\n      pop\n        /* \"contracts/nfts/akshunStore.sol\":3295:3296  0 */\n      0x00\n        /* \"contracts/nfts/akshunStore.sol\":3286:3292  remain */\n      dup2\n        /* \"contracts/nfts/akshunStore.sol\":3286:3296  remain > 0 */\n      gt\n        /* \"contracts/nfts/akshunStore.sol\":3278:3320  require(remain > 0, \"AskhunNFT: sold out\") */\n      tag_158\n      jumpi\n      mload(0x40)\n      0x08c379a000000000000000000000000000000000000000000000000000000000\n      dup2\n      mstore\n      0x04\n      add\n      tag_159\n      swap1\n      tag_160\n      jump\t// in\n    tag_159:\n      mload(0x40)\n      dup1\n      swap2\n      sub\n      swap1\n      revert\n    tag_158:\n        /* \"contracts/nfts/akshunStore.sol\":3347:3353  remain */\n      dup1\n        /* \"contracts/nfts/akshunStore.sol\":3335:3344  _quantity */\n      dup4\n        /* \"contracts/nfts/akshunStore.sol\":3335:3353  _quantity > remain */\n      gt\n        /* \"contracts/nfts/akshunStore.sol\":3331:3398  if (_quantity > remain) {... */\n      iszero\n      tag_161\n      jumpi\n        /* \"contracts/nfts/akshunStore.sol\":3381:3387  remain */\n      dup1\n        /* \"contracts/nfts/akshunStore.sol\":3369:3387  _quantity = remain */\n      swap3\n      pop\n        /* \"contracts/nfts/akshunStore.sol\":3331:3398  if (_quantity > remain) {... */\n    tag_161:\n        /* \"contracts/nfts/akshunStore.sol\":3408:3425  address msgSender */\n      0x00\n        /* \"contracts/nfts/akshunStore.sol\":3428:3440  _msgSender() */\n      tag_162\n        /* \"contracts/nfts/akshunStore.sol\":3428:3438  _msgSender */\n      tag_120\n        /* \"contracts/nfts/akshunStore.sol\":3428:3440  _msgSender() */\n      jump\t// in\n    tag_162:\n        /* \"contracts/nfts/akshunStore.sol\":3408:3440  address msgSender = _msgSender() */\n      swap1\n      pop\n        /* \"contracts/nfts/akshunStore.sol\":3451:3522  eth.safeTransferFrom(msgSender, treasury, akshunTier.price * _quantity) */\n      tag_163\n        /* \"contracts/nfts/akshunStore.sol\":3472:3481  msgSender */\n      dup2\n        /* \"contracts/nfts/akshunStore.sol\":3483:3491  treasury */\n      0xcc\n      0x00\n      swap1\n      sload\n      swap1\n      0x0100\n      exp\n      swap1\n      div\n      0xffffffffffffffffffffffffffffffffffffffff\n      and\n        /* \"contracts/nfts/akshunStore.sol\":3512:3521  _quantity */\n      dup7\n        /* \"contracts/nfts/akshunStore.sol\":3493:3503  akshunTier */\n      dup7\n        /* \"contracts/nfts/akshunStore.sol\":3493:3509  akshunTier.price */\n      0x00\n      add\n      sload\n        /* \"contracts/nfts/akshunStore.sol\":3493:3521  akshunTier.price * _quantity */\n      tag_164\n      swap2\n      swap1\n      tag_165\n      jump\t// in\n    tag_164:\n        /* \"contracts/nfts/akshunStore.sol\":3451:3454  eth */\n      0xca\n      0x00\n      swap1\n      sload\n      swap1\n      0x0100\n      exp\n      swap1\n      div\n      0xffffffffffffffffffffffffffffffffffffffff\n      and\n        /* \"contracts/nfts/akshunStore.sol\":3451:3471  eth.safeTransferFrom */\n      0xffffffffffffffffffffffffffffffffffffffff\n      and\n      tag_166\n      swap1\n        /* \"contracts/nfts/akshunStore.sol\":3451:3522  eth.safeTransferFrom(msgSender, treasury, akshunTier.price * _quantity) */\n      swap4\n      swap3\n      swap2\n      swap1\n      0xffffffff\n      and\n      jump\t// in\n    tag_163:\n        /* \"contracts/nfts/akshunStore.sol\":3557:3566  _quantity */\n      dup4\n        /* \"contracts/nfts/akshunStore.sol\":3533:3543  akshunTier */\n      dup4\n        /* \"contracts/nfts/akshunStore.sol\":3533:3553  akshunTier.totalSold */\n      0x02\n      add\n      0x00\n        /* \"contracts/nfts/akshunStore.sol\":3533:3566  akshunTier.totalSold += _quantity */\n      dup3\n      dup3\n      sload\n      tag_167\n      swap2\n      swap1\n      tag_168\n      jump\t// in\n    tag_167:\n      swap3\n      pop\n      pop\n      dup2\n      swap1\n      sstore\n      pop\n        /* \"contracts/nfts/akshunStore.sol\":3577:3597  uint256[] memory ids */\n      0x00\n        /* \"contracts/nfts/akshunStore.sol\":3614:3623  _quantity */\n      dup5\n        /* \"contracts/nfts/akshunStore.sol\":3600:3624  new uint256[](_quantity) */\n      0xffffffffffffffff\n      dup2\n      gt\n      iszero\n      tag_169\n      jumpi\n      tag_170\n      tag_171\n      jump\t// in\n    tag_170:\n    tag_169:\n      mload(0x40)\n      swap1\n      dup1\n      dup3\n      mstore\n      dup1\n      0x20\n      mul\n      0x20\n      add\n      dup3\n      add\n      0x40\n      mstore\n      dup1\n      iszero\n      tag_172\n      jumpi\n      dup2\n      0x20\n      add\n      0x20\n      dup3\n      mul\n      dup1\n      calldatasize\n      dup4\n      calldatacopy\n      dup1\n      dup3\n      add\n      swap2\n      pop\n      pop\n      swap1\n      pop\n    tag_172:\n      pop\n        /* \"contracts/nfts/akshunStore.sol\":3577:3624  uint256[] memory ids = new uint256[](_quantity) */\n      swap1\n      pop\n        /* \"contracts/nfts/akshunStore.sol\":3640:3649  uint256 i */\n      0x00\n        /* \"contracts/nfts/akshunStore.sol\":3635:3731  for (uint256 i = 0; i < _quantity; i++) {... */\n    tag_173:\n        /* \"contracts/nfts/akshunStore.sol\":3659:3668  _quantity */\n      dup6\n        /* \"contracts/nfts/akshunStore.sol\":3655:3656  i */\n      dup2\n        /* \"contracts/nfts/akshunStore.sol\":3655:3668  i < _quantity */\n      lt\n        /* \"contracts/nfts/akshunStore.sol\":3635:3731  for (uint256 i = 0; i < _quantity; i++) {... */\n      iszero\n      tag_174\n      jumpi\n        /* \"contracts/nfts/akshunStore.sol\":3698:3704  akshun */\n      0xcb\n      0x00\n      swap1\n      sload\n      swap1\n      0x0100\n      exp\n      swap1\n      div\n      0xffffffffffffffffffffffffffffffffffffffff\n      and\n        /* \"contracts/nfts/akshunStore.sol\":3698:3709  akshun.mint */\n      0xffffffffffffffffffffffffffffffffffffffff\n      and\n      0x6a627842\n        /* \"contracts/nfts/akshunStore.sol\":3710:3719  msgSender */\n      dup5\n        /* \"contracts/nfts/akshunStore.sol\":3698:3720  akshun.mint(msgSender) */\n      mload(0x40)\n      dup3\n      0xffffffff\n      and\n      0xe0\n      shl\n      dup2\n      mstore\n      0x04\n      add\n      tag_176\n      swap2\n      swap1\n      tag_30\n      jump\t// in\n    tag_176:\n      0x20\n      mload(0x40)\n      dup1\n      dup4\n      sub\n      dup2\n      0x00\n      dup8\n      dup1\n      extcodesize\n      iszero\n      dup1\n      iszero\n      tag_177\n      jumpi\n      0x00\n      dup1\n      revert\n    tag_177:\n      pop\n      gas\n      call\n      iszero\n      dup1\n      iszero\n      tag_179\n      jumpi\n      returndatasize\n      0x00\n      dup1\n      returndatacopy\n      revert(0x00, returndatasize)\n    tag_179:\n      pop\n      pop\n      pop\n      pop\n      mload(0x40)\n      returndatasize\n      not(0x1f)\n      0x1f\n      dup3\n      add\n      and\n      dup3\n      add\n      dup1\n      0x40\n      mstore\n      pop\n      dup2\n      add\n      swap1\n      tag_180\n      swap2\n      swap1\n      tag_181\n      jump\t// in\n    tag_180:\n        /* \"contracts/nfts/akshunStore.sol\":3689:3692  ids */\n      dup3\n        /* \"contracts/nfts/akshunStore.sol\":3693:3694  i */\n      dup3\n        /* \"contracts/nfts/akshunStore.sol\":3689:3695  ids[i] */\n      dup2\n      mload\n      dup2\n      lt\n      tag_182\n      jumpi\n      tag_183\n      tag_184\n      jump\t// in\n    tag_183:\n    tag_182:\n      0x20\n      mul\n      0x20\n      add\n      add\n        /* \"contracts/nfts/akshunStore.sol\":3689:3720  ids[i] = akshun.mint(msgSender) */\n      dup2\n      dup2\n      mstore\n      pop\n      pop\n        /* \"contracts/nfts/akshunStore.sol\":3670:3673  i++ */\n      dup1\n      dup1\n      tag_185\n      swap1\n      tag_186\n      jump\t// in\n    tag_185:\n      swap2\n      pop\n      pop\n        /* \"contracts/nfts/akshunStore.sol\":3635:3731  for (uint256 i = 0; i < _quantity; i++) {... */\n      jump(tag_173)\n    tag_174:\n      pop\n        /* \"contracts/nfts/akshunStore.sol\":3746:3801  AskhunBought(_typeId, akshunTier.price, msgSender, ids) */\n      0x09983ce9d4662d5f9eaf098d063603b1ed2392adcff8d7524663209645ea014b\n        /* \"contracts/nfts/akshunStore.sol\":3759:3766  _typeId */\n      dup7\n        /* \"contracts/nfts/akshunStore.sol\":3768:3778  akshunTier */\n      dup6\n        /* \"contracts/nfts/akshunStore.sol\":3768:3784  akshunTier.price */\n      0x00\n      add\n      sload\n        /* \"contracts/nfts/akshunStore.sol\":3786:3795  msgSender */\n      dup5\n        /* \"contracts/nfts/akshunStore.sol\":3797:3800  ids */\n      dup5\n        /* \"contracts/nfts/akshunStore.sol\":3746:3801  AskhunBought(_typeId, akshunTier.price, msgSender, ids) */\n      mload(0x40)\n      tag_187\n      swap5\n      swap4\n      swap3\n      swap2\n      swap1\n      tag_188\n      jump\t// in\n    tag_187:\n      mload(0x40)\n      dup1\n      swap2\n      sub\n      swap1\n      log1\n        /* \"contracts/nfts/akshunStore.sol\":2967:3808  {... */\n      pop\n      pop\n      pop\n      pop\n        /* \"@openzeppelin/contracts-upgradeable/security/ReentrancyGuardUpgradeable.sol\":1772:1773  1 */\n      0x01\n        /* \"@openzeppelin/contracts-upgradeable/security/ReentrancyGuardUpgradeable.sol\":2872:2879  _status */\n      0x97\n        /* \"@openzeppelin/contracts-upgradeable/security/ReentrancyGuardUpgradeable.sol\":2872:2894  _status = _NOT_ENTERED */\n      dup2\n      swap1\n      sstore\n      pop\n        /* \"contracts/nfts/akshunStore.sol\":2856:3808  function buy(uint256 _typeId, uint256 _quantity)... */\n      pop\n      pop\n      jump\t// out\n        /* \"contracts/nfts/akshunStore.sol\":1711:1943  function setTreasury(address _treasury)... */\n    tag_80:\n        /* \"@openzeppelin/contracts-upgradeable/access/OwnableUpgradeable.sol\":1334:1347  _checkOwner() */\n      tag_190\n        /* \"@openzeppelin/contracts-upgradeable/access/OwnableUpgradeable.sol\":1334:1345  _checkOwner */\n      tag_86\n        /* \"@openzeppelin/contracts-upgradeable/access/OwnableUpgradeable.sol\":1334:1347  _checkOwner() */\n      jump\t// in\n    tag_190:\n        /* \"contracts/nfts/akshunStore.sol\":1827:1828  0 */\n      0x00\n        /* \"contracts/nfts/akshunStore.sol\":1806:1829  _treasury != address(0) */\n      0xffffffffffffffffffffffffffffffffffffffff\n      and\n        /* \"contracts/nfts/akshunStore.sol\":1806:1815  _treasury */\n      dup2\n        /* \"contracts/nfts/akshunStore.sol\":1806:1829  _treasury != address(0) */\n      0xffffffffffffffffffffffffffffffffffffffff\n      and\n      eq\n      iszero\n        /* \"contracts/nfts/akshunStore.sol\":1798:1863  require(_treasury != address(0), \"AskhunNFT: address is invalid\") */\n      tag_192\n      jumpi\n      mload(0x40)\n      0x08c379a000000000000000000000000000000000000000000000000000000000\n      dup2\n      mstore\n      0x04\n      add\n      tag_193\n      swap1\n      tag_194\n      jump\t// in\n    tag_193:\n      mload(0x40)\n      dup1\n      swap2\n      sub\n      swap1\n      revert\n    tag_192:\n        /* \"contracts/nfts/akshunStore.sol\":1885:1894  _treasury */\n      dup1\n        /* \"contracts/nfts/akshunStore.sol\":1874:1882  treasury */\n      0xcc\n      0x00\n        /* \"contracts/nfts/akshunStore.sol\":1874:1894  treasury = _treasury */\n      0x0100\n      exp\n      dup2\n      sload\n      dup2\n      0xffffffffffffffffffffffffffffffffffffffff\n      mul\n      not\n      and\n      swap1\n      dup4\n      0xffffffffffffffffffffffffffffffffffffffff\n      and\n      mul\n      or\n      swap1\n      sstore\n      pop\n        /* \"contracts/nfts/akshunStore.sol\":1910:1936  TreasuryUpdated(_treasury) */\n      0x7dae230f18360d76a040c81f050aa14eb9d6dc7901b20fc5d855e2a20fe814d1\n        /* \"contracts/nfts/akshunStore.sol\":1926:1935  _treasury */\n      dup2\n        /* \"contracts/nfts/akshunStore.sol\":1910:1936  TreasuryUpdated(_treasury) */\n      mload(0x40)\n      tag_195\n      swap2\n      swap1\n      tag_30\n      jump\t// in\n    tag_195:\n      mload(0x40)\n      dup1\n      swap2\n      sub\n      swap1\n      log1\n        /* \"contracts/nfts/akshunStore.sol\":1711:1943  function setTreasury(address _treasury)... */\n      pop\n      jump\t// out\n        /* \"@openzeppelin/contracts-upgradeable/access/OwnableUpgradeable.sol\":2321:2519  function transferOwnership(address newOwner) public virtual onlyOwner {... */\n    tag_83:\n        /* \"@openzeppelin/contracts-upgradeable/access/OwnableUpgradeable.sol\":1334:1347  _checkOwner() */\n      tag_197\n        /* \"@openzeppelin/contracts-upgradeable/access/OwnableUpgradeable.sol\":1334:1345  _checkOwner */\n      tag_86\n        /* \"@openzeppelin/contracts-upgradeable/access/OwnableUpgradeable.sol\":1334:1347  _checkOwner() */\n      jump\t// in\n    tag_197:\n        /* \"@openzeppelin/contracts-upgradeable/access/OwnableUpgradeable.sol\":2429:2430  0 */\n      0x00\n        /* \"@openzeppelin/contracts-upgradeable/access/OwnableUpgradeable.sol\":2409:2431  newOwner != address(0) */\n      0xffffffffffffffffffffffffffffffffffffffff\n      and\n        /* \"@openzeppelin/contracts-upgradeable/access/OwnableUpgradeable.sol\":2409:2417  newOwner */\n      dup2\n        /* \"@openzeppelin/contracts-upgradeable/access/OwnableUpgradeable.sol\":2409:2431  newOwner != address(0) */\n      0xffffffffffffffffffffffffffffffffffffffff\n      and\n      eq\n      iszero\n        /* \"@openzeppelin/contracts-upgradeable/access/OwnableUpgradeable.sol\":2401:2474  require(newOwner != address(0), \"Ownable: new owner is the zero address\") */\n      tag_199\n      jumpi\n      mload(0x40)\n      0x08c379a000000000000000000000000000000000000000000000000000000000\n      dup2\n      mstore\n      0x04\n      add\n      tag_200\n      swap1\n      tag_201\n      jump\t// in\n    tag_200:\n      mload(0x40)\n      dup1\n      swap2\n      sub\n      swap1\n      revert\n    tag_199:\n        /* \"@openzeppelin/contracts-upgradeable/access/OwnableUpgradeable.sol\":2484:2512  _transferOwnership(newOwner) */\n      tag_202\n        /* \"@openzeppelin/contracts-upgradeable/access/OwnableUpgradeable.sol\":2503:2511  newOwner */\n      dup2\n        /* \"@openzeppelin/contracts-upgradeable/access/OwnableUpgradeable.sol\":2484:2502  _transferOwnership */\n      tag_135\n        /* \"@openzeppelin/contracts-upgradeable/access/OwnableUpgradeable.sol\":2484:2512  _transferOwnership(newOwner) */\n      jump\t// in\n    tag_202:\n        /* \"@openzeppelin/contracts-upgradeable/access/OwnableUpgradeable.sol\":2321:2519  function transferOwnership(address newOwner) public virtual onlyOwner {... */\n      pop\n      jump\t// out\n        /* \"@openzeppelin/contracts-upgradeable/access/OwnableUpgradeable.sol\":1599:1729  function _checkOwner() internal view virtual {... */\n    tag_86:\n        /* \"@openzeppelin/contracts-upgradeable/access/OwnableUpgradeable.sol\":1673:1685  _msgSender() */\n      tag_204\n        /* \"@openzeppelin/contracts-upgradeable/access/OwnableUpgradeable.sol\":1673:1683  _msgSender */\n      tag_120\n        /* \"@openzeppelin/contracts-upgradeable/access/OwnableUpgradeable.sol\":1673:1685  _msgSender() */\n      jump\t// in\n    tag_204:\n        /* \"@openzeppelin/contracts-upgradeable/access/OwnableUpgradeable.sol\":1662:1685  owner() == _msgSender() */\n      0xffffffffffffffffffffffffffffffffffffffff\n      and\n        /* \"@openzeppelin/contracts-upgradeable/access/OwnableUpgradeable.sol\":1662:1669  owner() */\n      tag_205\n        /* \"@openzeppelin/contracts-upgradeable/access/OwnableUpgradeable.sol\":1662:1667  owner */\n      tag_66\n        /* \"@openzeppelin/contracts-upgradeable/access/OwnableUpgradeable.sol\":1662:1669  owner() */\n      jump\t// in\n    tag_205:\n        /* \"@openzeppelin/contracts-upgradeable/access/OwnableUpgradeable.sol\":1662:1685  owner() == _msgSender() */\n      0xffffffffffffffffffffffffffffffffffffffff\n      and\n      eq\n        /* \"@openzeppelin/contracts-upgradeable/access/OwnableUpgradeable.sol\":1654:1722  require(owner() == _msgSender(), \"Ownable: caller is not the owner\") */\n      tag_206\n      jumpi\n      mload(0x40)\n      0x08c379a000000000000000000000000000000000000000000000000000000000\n      dup2\n      mstore\n      0x04\n      add\n      tag_207\n      swap1\n      tag_208\n      jump\t// in\n    tag_207:\n      mload(0x40)\n      dup1\n      swap2\n      sub\n      swap1\n      revert\n    tag_206:\n        /* \"@openzeppelin/contracts-upgradeable/access/OwnableUpgradeable.sol\":1599:1729  function _checkOwner() internal view virtual {... */\n      jump\t// out\n        /* \"@openzeppelin/contracts-upgradeable/security/PausableUpgradeable.sol\":2676:2793  function _unpause() internal virtual whenPaused {... */\n    tag_101:\n        /* \"@openzeppelin/contracts-upgradeable/security/PausableUpgradeable.sol\":1729:1745  _requirePaused() */\n      tag_210\n        /* \"@openzeppelin/contracts-upgradeable/security/PausableUpgradeable.sol\":1729:1743  _requirePaused */\n      tag_211\n        /* \"@openzeppelin/contracts-upgradeable/security/PausableUpgradeable.sol\":1729:1745  _requirePaused() */\n      jump\t// in\n    tag_210:\n        /* \"@openzeppelin/contracts-upgradeable/security/PausableUpgradeable.sol\":2744:2749  false */\n      0x00\n        /* \"@openzeppelin/contracts-upgradeable/security/PausableUpgradeable.sol\":2734:2741  _paused */\n      0x65\n      0x00\n        /* \"@openzeppelin/contracts-upgradeable/security/PausableUpgradeable.sol\":2734:2749  _paused = false */\n      0x0100\n      exp\n      dup2\n      sload\n      dup2\n      0xff\n      mul\n      not\n      and\n      swap1\n      dup4\n      iszero\n      iszero\n      mul\n      or\n      swap1\n      sstore\n      pop\n        /* \"@openzeppelin/contracts-upgradeable/security/PausableUpgradeable.sol\":2764:2786  Unpaused(_msgSender()) */\n      0x5db9ee0a495bf2e6ff9c91a7834c1ba4fdd244a5e8aa4e537bd38aeae4b073aa\n        /* \"@openzeppelin/contracts-upgradeable/security/PausableUpgradeable.sol\":2773:2785  _msgSender() */\n      tag_213\n        /* \"@openzeppelin/contracts-upgradeable/security/PausableUpgradeable.sol\":2773:2783  _msgSender */\n      tag_120\n        /* \"@openzeppelin/contracts-upgradeable/security/PausableUpgradeable.sol\":2773:2785  _msgSender() */\n      jump\t// in\n    tag_213:\n        /* \"@openzeppelin/contracts-upgradeable/security/PausableUpgradeable.sol\":2764:2786  Unpaused(_msgSender()) */\n      mload(0x40)\n      tag_214\n      swap2\n      swap1\n      tag_30\n      jump\t// in\n    tag_214:\n      mload(0x40)\n      dup1\n      swap2\n      sub\n      swap1\n      log1\n        /* \"@openzeppelin/contracts-upgradeable/security/PausableUpgradeable.sol\":2676:2793  function _unpause() internal virtual whenPaused {... */\n      jump\t// out\n        /* \"@openzeppelin/contracts-upgradeable/utils/AddressUpgradeable.sol\":1186:1506  function isContract(address account) internal view returns (bool) {... */\n    tag_106:\n        /* \"@openzeppelin/contracts-upgradeable/utils/AddressUpgradeable.sol\":1246:1250  bool */\n      0x00\n        /* \"@openzeppelin/contracts-upgradeable/utils/AddressUpgradeable.sol\":1498:1499  0 */\n      dup1\n        /* \"@openzeppelin/contracts-upgradeable/utils/AddressUpgradeable.sol\":1476:1483  account */\n      dup3\n        /* \"@openzeppelin/contracts-upgradeable/utils/AddressUpgradeable.sol\":1476:1495  account.code.length */\n      0xffffffffffffffffffffffffffffffffffffffff\n      and\n      extcodesize\n        /* \"@openzeppelin/contracts-upgradeable/utils/AddressUpgradeable.sol\":1476:1499  account.code.length > 0 */\n      gt\n        /* \"@openzeppelin/contracts-upgradeable/utils/AddressUpgradeable.sol\":1469:1499  return account.code.length > 0 */\n      swap1\n      pop\n        /* \"@openzeppelin/contracts-upgradeable/utils/AddressUpgradeable.sol\":1186:1506  function isContract(address account) internal view returns (bool) {... */\n      swap2\n      swap1\n      pop\n      jump\t// out\n        /* \"@openzeppelin/contracts-upgradeable/access/OwnableUpgradeable.sol\":1003:1098  function __Ownable_init() internal onlyInitializing {... */\n    tag_114:\n        /* \"@openzeppelin/contracts-upgradeable/proxy/utils/Initializable.sol\":4910:4923  _initializing */\n      0x00\n      0x01\n      swap1\n      sload\n      swap1\n      0x0100\n      exp\n      swap1\n      div\n      0xff\n      and\n        /* \"@openzeppelin/contracts-upgradeable/proxy/utils/Initializable.sol\":4902:4971  require(_initializing, \"Initializable: contract is not initializing\") */\n      tag_217\n      jumpi\n      mload(0x40)\n      0x08c379a000000000000000000000000000000000000000000000000000000000\n      dup2\n      mstore\n      0x04\n      add\n      tag_218\n      swap1\n      tag_219\n      jump\t// in\n    tag_218:\n      mload(0x40)\n      dup1\n      swap2\n      sub\n      swap1\n      revert\n    tag_217:\n        /* \"@openzeppelin/contracts-upgradeable/access/OwnableUpgradeable.sol\":1065:1091  __Ownable_init_unchained() */\n      tag_221\n        /* \"@openzeppelin/contracts-upgradeable/access/OwnableUpgradeable.sol\":1065:1089  __Ownable_init_unchained */\n      tag_222\n        /* \"@openzeppelin/contracts-upgradeable/access/OwnableUpgradeable.sol\":1065:1091  __Ownable_init_unchained() */\n      jump\t// in\n    tag_221:\n        /* \"@openzeppelin/contracts-upgradeable/access/OwnableUpgradeable.sol\":1003:1098  function __Ownable_init() internal onlyInitializing {... */\n      jump\t// out\n        /* \"@openzeppelin/contracts-upgradeable/security/PausableUpgradeable.sol\":1063:1160  function __Pausable_init() internal onlyInitializing {... */\n    tag_116:\n        /* \"@openzeppelin/contracts-upgradeable/proxy/utils/Initializable.sol\":4910:4923  _initializing */\n      0x00\n      0x01\n      swap1\n      sload\n      swap1\n      0x0100\n      exp\n      swap1\n      div\n      0xff\n      and\n        /* \"@openzeppelin/contracts-upgradeable/proxy/utils/Initializable.sol\":4902:4971  require(_initializing, \"Initializable: contract is not initializing\") */\n      tag_224\n      jumpi\n      mload(0x40)\n      0x08c379a000000000000000000000000000000000000000000000000000000000\n      dup2\n      mstore\n      0x04\n      add\n      tag_225\n      swap1\n      tag_219\n      jump\t// in\n    tag_225:\n      mload(0x40)\n      dup1\n      swap2\n      sub\n      swap1\n      revert\n    tag_224:\n        /* \"@openzeppelin/contracts-upgradeable/security/PausableUpgradeable.sol\":1126:1153  __Pausable_init_unchained() */\n      tag_227\n        /* \"@openzeppelin/contracts-upgradeable/security/PausableUpgradeable.sol\":1126:1151  __Pausable_init_unchained */\n      tag_228\n        /* \"@openzeppelin/contracts-upgradeable/security/PausableUpgradeable.sol\":1126:1153  __Pausable_init_unchained() */\n      jump\t// in\n    tag_227:\n        /* \"@openzeppelin/contracts-upgradeable/security/PausableUpgradeable.sol\":1063:1160  function __Pausable_init() internal onlyInitializing {... */\n      jump\t// out\n        /* \"@openzeppelin/contracts-upgradeable/security/ReentrancyGuardUpgradeable.sol\":1853:1964  function __ReentrancyGuard_init() internal onlyInitializing {... */\n    tag_118:\n        /* \"@openzeppelin/contracts-upgradeable/proxy/utils/Initializable.sol\":4910:4923  _initializing */\n      0x00\n      0x01\n      swap1\n      sload\n      swap1\n      0x0100\n      exp\n      swap1\n      div\n      0xff\n      and\n        /* \"@openzeppelin/contracts-upgradeable/proxy/utils/Initializable.sol\":4902:4971  require(_initializing, \"Initializable: contract is not initializing\") */\n      tag_230\n      jumpi\n      mload(0x40)\n      0x08c379a000000000000000000000000000000000000000000000000000000000\n      dup2\n      mstore\n      0x04\n      add\n      tag_231\n      swap1\n      tag_219\n      jump\t// in\n    tag_231:\n      mload(0x40)\n      dup1\n      swap2\n      sub\n      swap1\n      revert\n    tag_230:\n        /* \"@openzeppelin/contracts-upgradeable/security/ReentrancyGuardUpgradeable.sol\":1923:1957  __ReentrancyGuard_init_unchained() */\n      tag_233\n        /* \"@openzeppelin/contracts-upgradeable/security/ReentrancyGuardUpgradeable.sol\":1923:1955  __ReentrancyGuard_init_unchained */\n      tag_234\n        /* \"@openzeppelin/contracts-upgradeable/security/ReentrancyGuardUpgradeable.sol\":1923:1957  __ReentrancyGuard_init_unchained() */\n      jump\t// in\n    tag_233:\n        /* \"@openzeppelin/contracts-upgradeable/security/ReentrancyGuardUpgradeable.sol\":1853:1964  function __ReentrancyGuard_init() internal onlyInitializing {... */\n      jump\t// out\n        /* \"@openzeppelin/contracts-upgradeable/utils/ContextUpgradeable.sol\":850:946  function _msgSender() internal view virtual returns (address) {... */\n    tag_120:\n        /* \"@openzeppelin/contracts-upgradeable/utils/ContextUpgradeable.sol\":903:910  address */\n      0x00\n        /* \"@openzeppelin/contracts-upgradeable/utils/ContextUpgradeable.sol\":929:939  msg.sender */\n      caller\n        /* \"@openzeppelin/contracts-upgradeable/utils/ContextUpgradeable.sol\":922:939  return msg.sender */\n      swap1\n      pop\n        /* \"@openzeppelin/contracts-upgradeable/utils/ContextUpgradeable.sol\":850:946  function _msgSender() internal view virtual returns (address) {... */\n      swap1\n      jump\t// out\n        /* \"contracts/common/Signable.sol\":242:452  function _setSigner(address _signer)\r... */\n    tag_122:\n        /* \"contracts/common/Signable.sol\":340:341  0 */\n      0x00\n        /* \"contracts/common/Signable.sol\":321:342  _signer != address(0) */\n      0xffffffffffffffffffffffffffffffffffffffff\n      and\n        /* \"contracts/common/Signable.sol\":321:328  _signer */\n      dup2\n        /* \"contracts/common/Signable.sol\":321:342  _signer != address(0) */\n      0xffffffffffffffffffffffffffffffffffffffff\n      and\n      eq\n      iszero\n        /* \"contracts/common/Signable.sol\":313:375  require(_signer != address(0), \"Signable: address is invalid\") */\n      tag_237\n      jumpi\n      mload(0x40)\n      0x08c379a000000000000000000000000000000000000000000000000000000000\n      dup2\n      mstore\n      0x04\n      add\n      tag_238\n      swap1\n      tag_239\n      jump\t// in\n    tag_238:\n      mload(0x40)\n      dup1\n      swap2\n      sub\n      swap1\n      revert\n    tag_237:\n        /* \"contracts/common/Signable.sol\":397:404  _signer */\n      dup1\n        /* \"contracts/common/Signable.sol\":388:394  signer */\n      0xc9\n      0x00\n        /* \"contracts/common/Signable.sol\":388:404  signer = _signer */\n      0x0100\n      exp\n      dup2\n      sload\n      dup2\n      0xffffffffffffffffffffffffffffffffffffffff\n      mul\n      not\n      and\n      swap1\n      dup4\n      0xffffffffffffffffffffffffffffffffffffffff\n      and\n      mul\n      or\n      swap1\n      sstore\n      pop\n        /* \"contracts/common/Signable.sol\":422:444  SignerUpdated(_signer) */\n      0x5553331329228fbd4123164423717a4a7539f6dfa1c3279a923b98fd681a6c73\n        /* \"contracts/common/Signable.sol\":436:443  _signer */\n      dup2\n        /* \"contracts/common/Signable.sol\":422:444  SignerUpdated(_signer) */\n      mload(0x40)\n      tag_240\n      swap2\n      swap1\n      tag_30\n      jump\t// in\n    tag_240:\n      mload(0x40)\n      dup1\n      swap2\n      sub\n      swap1\n      log1\n        /* \"contracts/common/Signable.sol\":242:452  function _setSigner(address _signer)\r... */\n      pop\n      jump\t// out\n        /* \"@openzeppelin/contracts-upgradeable/access/OwnableUpgradeable.sol\":2673:2860  function _transferOwnership(address newOwner) internal virtual {... */\n    tag_135:\n        /* \"@openzeppelin/contracts-upgradeable/access/OwnableUpgradeable.sol\":2746:2762  address oldOwner */\n      0x00\n        /* \"@openzeppelin/contracts-upgradeable/access/OwnableUpgradeable.sol\":2765:2771  _owner */\n      0x33\n      0x00\n      swap1\n      sload\n      swap1\n      0x0100\n      exp\n      swap1\n      div\n      0xffffffffffffffffffffffffffffffffffffffff\n      and\n        /* \"@openzeppelin/contracts-upgradeable/access/OwnableUpgradeable.sol\":2746:2771  address oldOwner = _owner */\n      swap1\n      pop\n        /* \"@openzeppelin/contracts-upgradeable/access/OwnableUpgradeable.sol\":2790:2798  newOwner */\n      dup2\n        /* \"@openzeppelin/contracts-upgradeable/access/OwnableUpgradeable.sol\":2781:2787  _owner */\n      0x33\n      0x00\n        /* \"@openzeppelin/contracts-upgradeable/access/OwnableUpgradeable.sol\":2781:2798  _owner = newOwner */\n      0x0100\n      exp\n      dup2\n      sload\n      dup2\n      0xffffffffffffffffffffffffffffffffffffffff\n      mul\n      not\n      and\n      swap1\n      dup4\n      0xffffffffffffffffffffffffffffffffffffffff\n      and\n      mul\n      or\n      swap1\n      sstore\n      pop\n        /* \"@openzeppelin/contracts-upgradeable/access/OwnableUpgradeable.sol\":2844:2852  newOwner */\n      dup2\n        /* \"@openzeppelin/contracts-upgradeable/access/OwnableUpgradeable.sol\":2813:2853  OwnershipTransferred(oldOwner, newOwner) */\n      0xffffffffffffffffffffffffffffffffffffffff\n      and\n        /* \"@openzeppelin/contracts-upgradeable/access/OwnableUpgradeable.sol\":2834:2842  oldOwner */\n      dup2\n        /* \"@openzeppelin/contracts-upgradeable/access/OwnableUpgradeable.sol\":2813:2853  OwnershipTransferred(oldOwner, newOwner) */\n      0xffffffffffffffffffffffffffffffffffffffff\n      and\n      0x8be0079c531659141344cd1fd0a4f28419497f9722a3daafe3b4186f6b6457e0\n      mload(0x40)\n      mload(0x40)\n      dup1\n      swap2\n      sub\n      swap1\n      log3\n        /* \"@openzeppelin/contracts-upgradeable/access/OwnableUpgradeable.sol\":2736:2860  {... */\n      pop\n        /* \"@openzeppelin/contracts-upgradeable/access/OwnableUpgradeable.sol\":2673:2860  function _transferOwnership(address newOwner) internal virtual {... */\n      pop\n      jump\t// out\n        /* \"@openzeppelin/contracts-upgradeable/security/PausableUpgradeable.sol\":2429:2544  function _pause() internal virtual whenNotPaused {... */\n    tag_140:\n        /* \"@openzeppelin/contracts-upgradeable/security/PausableUpgradeable.sol\":1482:1501  _requireNotPaused() */\n      tag_243\n        /* \"@openzeppelin/contracts-upgradeable/security/PausableUpgradeable.sol\":1482:1499  _requireNotPaused */\n      tag_144\n        /* \"@openzeppelin/contracts-upgradeable/security/PausableUpgradeable.sol\":1482:1501  _requireNotPaused() */\n      jump\t// in\n    tag_243:\n        /* \"@openzeppelin/contracts-upgradeable/security/PausableUpgradeable.sol\":2498:2502  true */\n      0x01\n        /* \"@openzeppelin/contracts-upgradeable/security/PausableUpgradeable.sol\":2488:2495  _paused */\n      0x65\n      0x00\n        /* \"@openzeppelin/contracts-upgradeable/security/PausableUpgradeable.sol\":2488:2502  _paused = true */\n      0x0100\n      exp\n      dup2\n      sload\n      dup2\n      0xff\n      mul\n      not\n      and\n      swap1\n      dup4\n      iszero\n      iszero\n      mul\n      or\n      swap1\n      sstore\n      pop\n        /* \"@openzeppelin/contracts-upgradeable/security/PausableUpgradeable.sol\":2517:2537  Paused(_msgSender()) */\n      0x62e78cea01bee320cd4e420270b5ea74000d11b0c9f74754ebdbfc544b05a258\n        /* \"@openzeppelin/contracts-upgradeable/security/PausableUpgradeable.sol\":2524:2536  _msgSender() */\n      tag_245\n        /* \"@openzeppelin/contracts-upgradeable/security/PausableUpgradeable.sol\":2524:2534  _msgSender */\n      tag_120\n        /* \"@openzeppelin/contracts-upgradeable/security/PausableUpgradeable.sol\":2524:2536  _msgSender() */\n      jump\t// in\n    tag_245:\n        /* \"@openzeppelin/contracts-upgradeable/security/PausableUpgradeable.sol\":2517:2537  Paused(_msgSender()) */\n      mload(0x40)\n      tag_246\n      swap2\n      swap1\n      tag_30\n      jump\t// in\n    tag_246:\n      mload(0x40)\n      dup1\n      swap2\n      sub\n      swap1\n      log1\n        /* \"@openzeppelin/contracts-upgradeable/security/PausableUpgradeable.sol\":2429:2544  function _pause() internal virtual whenNotPaused {... */\n      jump\t// out\n        /* \"@openzeppelin/contracts-upgradeable/security/PausableUpgradeable.sol\":2010:2116  function _requireNotPaused() internal view virtual {... */\n    tag_144:\n        /* \"@openzeppelin/contracts-upgradeable/security/PausableUpgradeable.sol\":2080:2088  paused() */\n      tag_248\n        /* \"@openzeppelin/contracts-upgradeable/security/PausableUpgradeable.sol\":2080:2086  paused */\n      tag_42\n        /* \"@openzeppelin/contracts-upgradeable/security/PausableUpgradeable.sol\":2080:2088  paused() */\n      jump\t// in\n    tag_248:\n        /* \"@openzeppelin/contracts-upgradeable/security/PausableUpgradeable.sol\":2079:2088  !paused() */\n      iszero\n        /* \"@openzeppelin/contracts-upgradeable/security/PausableUpgradeable.sol\":2071:2109  require(!paused(), \"Pausable: paused\") */\n      tag_249\n      jumpi\n      mload(0x40)\n      0x08c379a000000000000000000000000000000000000000000000000000000000\n      dup2\n      mstore\n      0x04\n      add\n      tag_250\n      swap1\n      tag_251\n      jump\t// in\n    tag_250:\n      mload(0x40)\n      dup1\n      swap2\n      sub\n      swap1\n      revert\n    tag_249:\n        /* \"@openzeppelin/contracts-upgradeable/security/PausableUpgradeable.sol\":2010:2116  function _requireNotPaused() internal view virtual {... */\n      jump\t// out\n        /* \"@openzeppelin/contracts/token/ERC20/utils/SafeERC20.sol\":974:1215  function safeTransferFrom(... */\n    tag_166:\n        /* \"@openzeppelin/contracts/token/ERC20/utils/SafeERC20.sol\":1112:1208  _callOptionalReturn(token, abi.encodeWithSelector(token.transferFrom.selector, from, to, value)) */\n      tag_253\n        /* \"@openzeppelin/contracts/token/ERC20/utils/SafeERC20.sol\":1132:1137  token */\n      dup5\n        /* \"@openzeppelin/contracts/token/ERC20/utils/SafeERC20.sol\":1162:1189  token.transferFrom.selector */\n      shl(0xe0, 0x23b872dd)\n        /* \"@openzeppelin/contracts/token/ERC20/utils/SafeERC20.sol\":1191:1195  from */\n      dup6\n        /* \"@openzeppelin/contracts/token/ERC20/utils/SafeERC20.sol\":1197:1199  to */\n      dup6\n        /* \"@openzeppelin/contracts/token/ERC20/utils/SafeERC20.sol\":1201:1206  value */\n      dup6\n        /* \"@openzeppelin/contracts/token/ERC20/utils/SafeERC20.sol\":1139:1207  abi.encodeWithSelector(token.transferFrom.selector, from, to, value) */\n      add(0x24, mload(0x40))\n      tag_254\n      swap4\n      swap3\n      swap2\n      swap1\n      tag_255\n      jump\t// in\n    tag_254:\n      mload(0x40)\n      0x20\n      dup2\n      dup4\n      sub\n      sub\n      dup2\n      mstore\n      swap1\n      0x40\n      mstore\n      swap1\n      not(0xffffffffffffffffffffffffffffffffffffffffffffffffffffffff)\n      and\n      0x20\n      dup3\n      add\n      dup1\n      mload\n      0xffffffffffffffffffffffffffffffffffffffffffffffffffffffff\n      dup4\n      dup2\n      dup4\n      and\n      or\n      dup4\n      mstore\n      pop\n      pop\n      pop\n      pop\n        /* \"@openzeppelin/contracts/token/ERC20/utils/SafeERC20.sol\":1112:1131  _callOptionalReturn */\n      tag_256\n        /* \"@openzeppelin/contracts/token/ERC20/utils/SafeERC20.sol\":1112:1208  _callOptionalReturn(token, abi.encodeWithSelector(token.transferFrom.selector, from, to, value)) */\n      jump\t// in\n    tag_253:\n        /* \"@openzeppelin/contracts/token/ERC20/utils/SafeERC20.sol\":974:1215  function safeTransferFrom(... */\n      pop\n      pop\n      pop\n      pop\n      jump\t// out\n        /* \"@openzeppelin/contracts-upgradeable/security/PausableUpgradeable.sol\":2188:2294  function _requirePaused() internal view virtual {... */\n    tag_211:\n        /* \"@openzeppelin/contracts-upgradeable/security/PausableUpgradeable.sol\":2254:2262  paused() */\n      tag_258\n        /* \"@openzeppelin/contracts-upgradeable/security/PausableUpgradeable.sol\":2254:2260  paused */\n      tag_42\n        /* \"@openzeppelin/contracts-upgradeable/security/PausableUpgradeable.sol\":2254:2262  paused() */\n      jump\t// in\n    tag_258:\n        /* \"@openzeppelin/contracts-upgradeable/security/PausableUpgradeable.sol\":2246:2287  require(paused(), \"Pausable: not paused\") */\n      tag_259\n      jumpi\n      mload(0x40)\n      0x08c379a000000000000000000000000000000000000000000000000000000000\n      dup2\n      mstore\n      0x04\n      add\n      tag_260\n      swap1\n      tag_261\n      jump\t// in\n    tag_260:\n      mload(0x40)\n      dup1\n      swap2\n      sub\n      swap1\n      revert\n    tag_259:\n        /* \"@openzeppelin/contracts-upgradeable/security/PausableUpgradeable.sol\":2188:2294  function _requirePaused() internal view virtual {... */\n      jump\t// out\n        /* \"@openzeppelin/contracts-upgradeable/access/OwnableUpgradeable.sol\":1104:1215  function __Ownable_init_unchained() internal onlyInitializing {... */\n    tag_222:\n        /* \"@openzeppelin/contracts-upgradeable/proxy/utils/Initializable.sol\":4910:4923  _initializing */\n      0x00\n      0x01\n      swap1\n      sload\n      swap1\n      0x0100\n      exp\n      swap1\n      div\n      0xff\n      and\n        /* \"@openzeppelin/contracts-upgradeable/proxy/utils/Initializable.sol\":4902:4971  require(_initializing, \"Initializable: contract is not initializing\") */\n      tag_263\n      jumpi\n      mload(0x40)\n      0x08c379a000000000000000000000000000000000000000000000000000000000\n      dup2\n      mstore\n      0x04\n      add\n      tag_264\n      swap1\n      tag_219\n      jump\t// in\n    tag_264:\n      mload(0x40)\n      dup1\n      swap2\n      sub\n      swap1\n      revert\n    tag_263:\n        /* \"@openzeppelin/contracts-upgradeable/access/OwnableUpgradeable.sol\":1176:1208  _transferOwnership(_msgSender()) */\n      tag_266\n        /* \"@openzeppelin/contracts-upgradeable/access/OwnableUpgradeable.sol\":1195:1207  _msgSender() */\n      tag_267\n        /* \"@openzeppelin/contracts-upgradeable/access/OwnableUpgradeable.sol\":1195:1205  _msgSender */\n      tag_120\n        /* \"@openzeppelin/contracts-upgradeable/access/OwnableUpgradeable.sol\":1195:1207  _msgSender() */\n      jump\t// in\n    tag_267:\n        /* \"@openzeppelin/contracts-upgradeable/access/OwnableUpgradeable.sol\":1176:1194  _transferOwnership */\n      tag_135\n        /* \"@openzeppelin/contracts-upgradeable/access/OwnableUpgradeable.sol\":1176:1208  _transferOwnership(_msgSender()) */\n      jump\t// in\n    tag_266:\n        /* \"@openzeppelin/contracts-upgradeable/access/OwnableUpgradeable.sol\":1104:1215  function __Ownable_init_unchained() internal onlyInitializing {... */\n      jump\t// out\n        /* \"@openzeppelin/contracts-upgradeable/security/PausableUpgradeable.sol\":1166:1261  function __Pausable_init_unchained() internal onlyInitializing {... */\n    tag_228:\n        /* \"@openzeppelin/contracts-upgradeable/proxy/utils/Initializable.sol\":4910:4923  _initializing */\n      0x00\n      0x01\n      swap1\n      sload\n      swap1\n      0x0100\n      exp\n      swap1\n      div\n      0xff\n      and\n        /* \"@openzeppelin/contracts-upgradeable/proxy/utils/Initializable.sol\":4902:4971  require(_initializing, \"Initializable: contract is not initializing\") */\n      tag_269\n      jumpi\n      mload(0x40)\n      0x08c379a000000000000000000000000000000000000000000000000000000000\n      dup2\n      mstore\n      0x04\n      add\n      tag_270\n      swap1\n      tag_219\n      jump\t// in\n    tag_270:\n      mload(0x40)\n      dup1\n      swap2\n      sub\n      swap1\n      revert\n    tag_269:\n        /* \"@openzeppelin/contracts-upgradeable/security/PausableUpgradeable.sol\":1249:1254  false */\n      0x00\n        /* \"@openzeppelin/contracts-upgradeable/security/PausableUpgradeable.sol\":1239:1246  _paused */\n      0x65\n      0x00\n        /* \"@openzeppelin/contracts-upgradeable/security/PausableUpgradeable.sol\":1239:1254  _paused = false */\n      0x0100\n      exp\n      dup2\n      sload\n      dup2\n      0xff\n      mul\n      not\n      and\n      swap1\n      dup4\n      iszero\n      iszero\n      mul\n      or\n      swap1\n      sstore\n      pop\n        /* \"@openzeppelin/contracts-upgradeable/security/PausableUpgradeable.sol\":1166:1261  function __Pausable_init_unchained() internal onlyInitializing {... */\n      jump\t// out\n        /* \"@openzeppelin/contracts-upgradeable/security/ReentrancyGuardUpgradeable.sol\":1970:2079  function __ReentrancyGuard_init_unchained() internal onlyInitializing {... */\n    tag_234:\n        /* \"@openzeppelin/contracts-upgradeable/proxy/utils/Initializable.sol\":4910:4923  _initializing */\n      0x00\n      0x01\n      swap1\n      sload\n      swap1\n      0x0100\n      exp\n      swap1\n      div\n      0xff\n      and\n        /* \"@openzeppelin/contracts-upgradeable/proxy/utils/Initializable.sol\":4902:4971  require(_initializing, \"Initializable: contract is not initializing\") */\n      tag_273\n      jumpi\n      mload(0x40)\n      0x08c379a000000000000000000000000000000000000000000000000000000000\n      dup2\n      mstore\n      0x04\n      add\n      tag_274\n      swap1\n      tag_219\n      jump\t// in\n    tag_274:\n      mload(0x40)\n      dup1\n      swap2\n      sub\n      swap1\n      revert\n    tag_273:\n        /* \"@openzeppelin/contracts-upgradeable/security/ReentrancyGuardUpgradeable.sol\":1772:1773  1 */\n      0x01\n        /* \"@openzeppelin/contracts-upgradeable/security/ReentrancyGuardUpgradeable.sol\":2050:2057  _status */\n      0x97\n        /* \"@openzeppelin/contracts-upgradeable/security/ReentrancyGuardUpgradeable.sol\":2050:2072  _status = _NOT_ENTERED */\n      dup2\n      swap1\n      sstore\n      pop\n        /* \"@openzeppelin/contracts-upgradeable/security/ReentrancyGuardUpgradeable.sol\":1970:2079  function __ReentrancyGuard_init_unchained() internal onlyInitializing {... */\n      jump\t// out\n        /* \"@openzeppelin/contracts/token/ERC20/utils/SafeERC20.sol\":3747:4453  function _callOptionalReturn(IERC20 token, bytes memory data) private {... */\n    tag_256:\n        /* \"@openzeppelin/contracts/token/ERC20/utils/SafeERC20.sol\":4166:4189  bytes memory returndata */\n      0x00\n        /* \"@openzeppelin/contracts/token/ERC20/utils/SafeERC20.sol\":4192:4261  address(token).functionCall(data, \"SafeERC20: low-level call failed\") */\n      tag_277\n        /* \"@openzeppelin/contracts/token/ERC20/utils/SafeERC20.sol\":4220:4224  data */\n      dup3\n        /* \"@openzeppelin/contracts/token/ERC20/utils/SafeERC20.sol\":4192:4261  address(token).functionCall(data, \"SafeERC20: low-level call failed\") */\n      mload(0x40)\n      dup1\n      0x40\n      add\n      0x40\n      mstore\n      dup1\n      0x20\n      dup2\n      mstore\n      0x20\n      add\n      0x5361666545524332303a206c6f772d6c6576656c2063616c6c206661696c6564\n      dup2\n      mstore\n      pop\n        /* \"@openzeppelin/contracts/token/ERC20/utils/SafeERC20.sol\":4200:4205  token */\n      dup6\n        /* \"@openzeppelin/contracts/token/ERC20/utils/SafeERC20.sol\":4192:4219  address(token).functionCall */\n      0xffffffffffffffffffffffffffffffffffffffff\n      and\n      tag_278\n      swap1\n        /* \"@openzeppelin/contracts/token/ERC20/utils/SafeERC20.sol\":4192:4261  address(token).functionCall(data, \"SafeERC20: low-level call failed\") */\n      swap3\n      swap2\n      swap1\n      0xffffffff\n      and\n      jump\t// in\n    tag_277:\n        /* \"@openzeppelin/contracts/token/ERC20/utils/SafeERC20.sol\":4166:4261  bytes memory returndata = address(token).functionCall(data, \"SafeERC20: low-level call failed\") */\n      swap1\n      pop\n        /* \"@openzeppelin/contracts/token/ERC20/utils/SafeERC20.sol\":4295:4296  0 */\n      0x00\n        /* \"@openzeppelin/contracts/token/ERC20/utils/SafeERC20.sol\":4275:4285  returndata */\n      dup2\n        /* \"@openzeppelin/contracts/token/ERC20/utils/SafeERC20.sol\":4275:4292  returndata.length */\n      mload\n        /* \"@openzeppelin/contracts/token/ERC20/utils/SafeERC20.sol\":4275:4296  returndata.length > 0 */\n      gt\n        /* \"@openzeppelin/contracts/token/ERC20/utils/SafeERC20.sol\":4271:4447  if (returndata.length > 0) {... */\n      iszero\n      tag_279\n      jumpi\n        /* \"@openzeppelin/contracts/token/ERC20/utils/SafeERC20.sol\":4370:4380  returndata */\n      dup1\n        /* \"@openzeppelin/contracts/token/ERC20/utils/SafeERC20.sol\":4359:4389  abi.decode(returndata, (bool)) */\n      dup1\n      0x20\n      add\n      swap1\n      mload\n      dup2\n      add\n      swap1\n      tag_280\n      swap2\n      swap1\n      tag_281\n      jump\t// in\n    tag_280:\n        /* \"@openzeppelin/contracts/token/ERC20/utils/SafeERC20.sol\":4351:4436  require(abi.decode(returndata, (bool)), \"SafeERC20: ERC20 operation did not succeed\") */\n      tag_282\n      jumpi\n      mload(0x40)\n      0x08c379a000000000000000000000000000000000000000000000000000000000\n      dup2\n      mstore\n      0x04\n      add\n      tag_283\n      swap1\n      tag_284\n      jump\t// in\n    tag_283:\n      mload(0x40)\n      dup1\n      swap2\n      sub\n      swap1\n      revert\n    tag_282:\n        /* \"@openzeppelin/contracts/token/ERC20/utils/SafeERC20.sol\":4271:4447  if (returndata.length > 0) {... */\n    tag_279:\n        /* \"@openzeppelin/contracts/token/ERC20/utils/SafeERC20.sol\":3817:4453  {... */\n      pop\n        /* \"@openzeppelin/contracts/token/ERC20/utils/SafeERC20.sol\":3747:4453  function _callOptionalReturn(IERC20 token, bytes memory data) private {... */\n      pop\n      pop\n      jump\t// out\n        /* \"@openzeppelin/contracts/utils/Address.sol\":3861:4084  function functionCall(... */\n    tag_278:\n        /* \"@openzeppelin/contracts/utils/Address.sol\":3994:4006  bytes memory */\n      0x60\n        /* \"@openzeppelin/contracts/utils/Address.sol\":4025:4077  functionCallWithValue(target, data, 0, errorMessage) */\n      tag_286\n        /* \"@openzeppelin/contracts/utils/Address.sol\":4047:4053  target */\n      dup5\n        /* \"@openzeppelin/contracts/utils/Address.sol\":4055:4059  data */\n      dup5\n        /* \"@openzeppelin/contracts/utils/Address.sol\":4061:4062  0 */\n      0x00\n        /* \"@openzeppelin/contracts/utils/Address.sol\":4064:4076  errorMessage */\n      dup6\n        /* \"@openzeppelin/contracts/utils/Address.sol\":4025:4046  functionCallWithValue */\n      tag_287\n        /* \"@openzeppelin/contracts/utils/Address.sol\":4025:4077  functionCallWithValue(target, data, 0, errorMessage) */\n      jump\t// in\n    tag_286:\n        /* \"@openzeppelin/contracts/utils/Address.sol\":4018:4077  return functionCallWithValue(target, data, 0, errorMessage) */\n      swap1\n      pop\n        /* \"@openzeppelin/contracts/utils/Address.sol\":3861:4084  function functionCall(... */\n      swap4\n      swap3\n      pop\n      pop\n      pop\n      jump\t// out\n        /* \"@openzeppelin/contracts/utils/Address.sol\":4948:5447  function functionCallWithValue(... */\n    tag_287:\n        /* \"@openzeppelin/contracts/utils/Address.sol\":5113:5125  bytes memory */\n      0x60\n        /* \"@openzeppelin/contracts/utils/Address.sol\":5170:5175  value */\n      dup3\n        /* \"@openzeppelin/contracts/utils/Address.sol\":5145:5166  address(this).balance */\n      selfbalance\n        /* \"@openzeppelin/contracts/utils/Address.sol\":5145:5175  address(this).balance >= value */\n      lt\n      iszero\n        /* \"@openzeppelin/contracts/utils/Address.sol\":5137:5218  require(address(this).balance >= value, \"Address: insufficient balance for call\") */\n      tag_289\n      jumpi\n      mload(0x40)\n      0x08c379a000000000000000000000000000000000000000000000000000000000\n      dup2\n      mstore\n      0x04\n      add\n      tag_290\n      swap1\n      tag_291\n      jump\t// in\n    tag_290:\n      mload(0x40)\n      dup1\n      swap2\n      sub\n      swap1\n      revert\n    tag_289:\n        /* \"@openzeppelin/contracts/utils/Address.sol\":5236:5254  isContract(target) */\n      tag_292\n        /* \"@openzeppelin/contracts/utils/Address.sol\":5247:5253  target */\n      dup6\n        /* \"@openzeppelin/contracts/utils/Address.sol\":5236:5246  isContract */\n      tag_293\n        /* \"@openzeppelin/contracts/utils/Address.sol\":5236:5254  isContract(target) */\n      jump\t// in\n    tag_292:\n        /* \"@openzeppelin/contracts/utils/Address.sol\":5228:5288  require(isContract(target), \"Address: call to non-contract\") */\n      tag_294\n      jumpi\n      mload(0x40)\n      0x08c379a000000000000000000000000000000000000000000000000000000000\n      dup2\n      mstore\n      0x04\n      add\n      tag_295\n      swap1\n      tag_296\n      jump\t// in\n    tag_295:\n      mload(0x40)\n      dup1\n      swap2\n      sub\n      swap1\n      revert\n    tag_294:\n        /* \"@openzeppelin/contracts/utils/Address.sol\":5300:5312  bool success */\n      0x00\n        /* \"@openzeppelin/contracts/utils/Address.sol\":5314:5337  bytes memory returndata */\n      dup1\n        /* \"@openzeppelin/contracts/utils/Address.sol\":5341:5347  target */\n      dup7\n        /* \"@openzeppelin/contracts/utils/Address.sol\":5341:5352  target.call */\n      0xffffffffffffffffffffffffffffffffffffffff\n      and\n        /* \"@openzeppelin/contracts/utils/Address.sol\":5360:5365  value */\n      dup6\n        /* \"@openzeppelin/contracts/utils/Address.sol\":5367:5371  data */\n      dup8\n        /* \"@openzeppelin/contracts/utils/Address.sol\":5341:5372  target.call{value: value}(data) */\n      mload(0x40)\n      tag_297\n      swap2\n      swap1\n      tag_298\n      jump\t// in\n    tag_297:\n      0x00\n      mload(0x40)\n      dup1\n      dup4\n      sub\n      dup2\n      dup6\n      dup8\n      gas\n      call\n      swap3\n      pop\n      pop\n      pop\n      returndatasize\n      dup1\n      0x00\n      dup2\n      eq\n      tag_301\n      jumpi\n      mload(0x40)\n      swap2\n      pop\n      and(add(returndatasize, 0x3f), not(0x1f))\n      dup3\n      add\n      0x40\n      mstore\n      returndatasize\n      dup3\n      mstore\n      returndatasize\n      0x00\n      0x20\n      dup5\n      add\n      returndatacopy\n      jump(tag_300)\n    tag_301:\n      0x60\n      swap2\n      pop\n    tag_300:\n      pop\n        /* \"@openzeppelin/contracts/utils/Address.sol\":5299:5372  (bool success, bytes memory returndata) = target.call{value: value}(data) */\n      swap2\n      pop\n      swap2\n      pop\n        /* \"@openzeppelin/contracts/utils/Address.sol\":5389:5440  verifyCallResult(success, returndata, errorMessage) */\n      tag_302\n        /* \"@openzeppelin/contracts/utils/Address.sol\":5406:5413  success */\n      dup3\n        /* \"@openzeppelin/contracts/utils/Address.sol\":5415:5425  returndata */\n      dup3\n        /* \"@openzeppelin/contracts/utils/Address.sol\":5427:5439  errorMessage */\n      dup7\n        /* \"@openzeppelin/contracts/utils/Address.sol\":5389:5405  verifyCallResult */\n      tag_303\n        /* \"@openzeppelin/contracts/utils/Address.sol\":5389:5440  verifyCallResult(success, returndata, errorMessage) */\n      jump\t// in\n    tag_302:\n        /* \"@openzeppelin/contracts/utils/Address.sol\":5382:5440  return verifyCallResult(success, returndata, errorMessage) */\n      swap3\n      pop\n      pop\n      pop\n        /* \"@openzeppelin/contracts/utils/Address.sol\":4948:5447  function functionCallWithValue(... */\n      swap5\n      swap4\n      pop\n      pop\n      pop\n      pop\n      jump\t// out\n        /* \"@openzeppelin/contracts/utils/Address.sol\":1175:1495  function isContract(address account) internal view returns (bool) {... */\n    tag_293:\n        /* \"@openzeppelin/contracts/utils/Address.sol\":1235:1239  bool */\n      0x00\n        /* \"@openzeppelin/contracts/utils/Address.sol\":1487:1488  0 */\n      dup1\n        /* \"@openzeppelin/contracts/utils/Address.sol\":1465:1472  account */\n      dup3\n        /* \"@openzeppelin/contracts/utils/Address.sol\":1465:1484  account.code.length */\n      0xffffffffffffffffffffffffffffffffffffffff\n      and\n      extcodesize\n        /* \"@openzeppelin/contracts/utils/Address.sol\":1465:1488  account.code.length > 0 */\n      gt\n        /* \"@openzeppelin/contracts/utils/Address.sol\":1458:1488  return account.code.length > 0 */\n      swap1\n      pop\n        /* \"@openzeppelin/contracts/utils/Address.sol\":1175:1495  function isContract(address account) internal view returns (bool) {... */\n      swap2\n      swap1\n      pop\n      jump\t// out\n        /* \"@openzeppelin/contracts/utils/Address.sol\":7561:8303  function verifyCallResult(... */\n    tag_303:\n        /* \"@openzeppelin/contracts/utils/Address.sol\":7707:7719  bytes memory */\n      0x60\n        /* \"@openzeppelin/contracts/utils/Address.sol\":7735:7742  success */\n      dup4\n        /* \"@openzeppelin/contracts/utils/Address.sol\":7731:8297  if (success) {... */\n      iszero\n      tag_306\n      jumpi\n        /* \"@openzeppelin/contracts/utils/Address.sol\":7765:7775  returndata */\n      dup3\n        /* \"@openzeppelin/contracts/utils/Address.sol\":7758:7775  return returndata */\n      swap1\n      pop\n      jump(tag_305)\n        /* \"@openzeppelin/contracts/utils/Address.sol\":7731:8297  if (success) {... */\n    tag_306:\n        /* \"@openzeppelin/contracts/utils/Address.sol\":7896:7897  0 */\n      0x00\n        /* \"@openzeppelin/contracts/utils/Address.sol\":7876:7886  returndata */\n      dup4\n        /* \"@openzeppelin/contracts/utils/Address.sol\":7876:7893  returndata.length */\n      mload\n        /* \"@openzeppelin/contracts/utils/Address.sol\":7876:7897  returndata.length > 0 */\n      gt\n        /* \"@openzeppelin/contracts/utils/Address.sol\":7872:8287  if (returndata.length > 0) {... */\n      iszero\n      tag_308\n      jumpi\n        /* \"@openzeppelin/contracts/utils/Address.sol\":8120:8130  returndata */\n      dup3\n        /* \"@openzeppelin/contracts/utils/Address.sol\":8114:8131  mload(returndata) */\n      mload\n        /* \"@openzeppelin/contracts/utils/Address.sol\":8180:8195  returndata_size */\n      dup1\n        /* \"@openzeppelin/contracts/utils/Address.sol\":8167:8177  returndata */\n      dup5\n        /* \"@openzeppelin/contracts/utils/Address.sol\":8163:8165  32 */\n      0x20\n        /* \"@openzeppelin/contracts/utils/Address.sol\":8159:8178  add(32, returndata) */\n      add\n        /* \"@openzeppelin/contracts/utils/Address.sol\":8152:8196  revert(add(32, returndata), returndata_size) */\n      revert\n        /* \"@openzeppelin/contracts/utils/Address.sol\":7872:8287  if (returndata.length > 0) {... */\n    tag_308:\n        /* \"@openzeppelin/contracts/utils/Address.sol\":8259:8271  errorMessage */\n      dup2\n        /* \"@openzeppelin/contracts/utils/Address.sol\":8252:8272  revert(errorMessage) */\n      mload(0x40)\n      0x08c379a000000000000000000000000000000000000000000000000000000000\n      dup2\n      mstore\n      0x04\n      add\n      tag_310\n      swap2\n      swap1\n      tag_311\n      jump\t// in\n    tag_310:\n      mload(0x40)\n      dup1\n      swap2\n      sub\n      swap1\n      revert\n        /* \"@openzeppelin/contracts/utils/Address.sol\":7561:8303  function verifyCallResult(... */\n    tag_305:\n      swap4\n      swap3\n      pop\n      pop\n      pop\n      jump\t// out\n        /* \"#utility.yul\":7:146   */\n    tag_313:\n        /* \"#utility.yul\":53:58   */\n      0x00\n        /* \"#utility.yul\":91:97   */\n      dup2\n        /* \"#utility.yul\":78:98   */\n      calldataload\n        /* \"#utility.yul\":69:98   */\n      swap1\n      pop\n        /* \"#utility.yul\":107:140   */\n      tag_315\n        /* \"#utility.yul\":134:139   */\n      dup2\n        /* \"#utility.yul\":107:140   */\n      tag_316\n      jump\t// in\n    tag_315:\n        /* \"#utility.yul\":7:146   */\n      swap3\n      swap2\n      pop\n      pop\n      jump\t// out\n        /* \"#utility.yul\":152:289   */\n    tag_317:\n        /* \"#utility.yul\":206:211   */\n      0x00\n        /* \"#utility.yul\":237:243   */\n      dup2\n        /* \"#utility.yul\":231:244   */\n      mload\n        /* \"#utility.yul\":222:244   */\n      swap1\n      pop\n        /* \"#utility.yul\":253:283   */\n      tag_319\n        /* \"#utility.yul\":277:282   */\n      dup2\n        /* \"#utility.yul\":253:283   */\n      tag_320\n      jump\t// in\n    tag_319:\n        /* \"#utility.yul\":152:289   */\n      swap3\n      swap2\n      pop\n      pop\n      jump\t// out\n        /* \"#utility.yul\":295:466   */\n    tag_321:\n        /* \"#utility.yul\":357:362   */\n      0x00\n        /* \"#utility.yul\":395:401   */\n      dup2\n        /* \"#utility.yul\":382:402   */\n      calldataload\n        /* \"#utility.yul\":373:402   */\n      swap1\n      pop\n        /* \"#utility.yul\":411:460   */\n      tag_323\n        /* \"#utility.yul\":454:459   */\n      dup2\n        /* \"#utility.yul\":411:460   */\n      tag_324\n      jump\t// in\n    tag_323:\n        /* \"#utility.yul\":295:466   */\n      swap3\n      swap2\n      pop\n      pop\n      jump\t// out\n        /* \"#utility.yul\":472:639   */\n    tag_325:\n        /* \"#utility.yul\":532:537   */\n      0x00\n        /* \"#utility.yul\":570:576   */\n      dup2\n        /* \"#utility.yul\":557:577   */\n      calldataload\n        /* \"#utility.yul\":548:577   */\n      swap1\n      pop\n        /* \"#utility.yul\":586:633   */\n      tag_327\n        /* \"#utility.yul\":627:632   */\n      dup2\n        /* \"#utility.yul\":586:633   */\n      tag_328\n      jump\t// in\n    tag_327:\n        /* \"#utility.yul\":472:639   */\n      swap3\n      swap2\n      pop\n      pop\n      jump\t// out\n        /* \"#utility.yul\":645:784   */\n    tag_329:\n        /* \"#utility.yul\":691:696   */\n      0x00\n        /* \"#utility.yul\":729:735   */\n      dup2\n        /* \"#utility.yul\":716:736   */\n      calldataload\n        /* \"#utility.yul\":707:736   */\n      swap1\n      pop\n        /* \"#utility.yul\":745:778   */\n      tag_331\n        /* \"#utility.yul\":772:777   */\n      dup2\n        /* \"#utility.yul\":745:778   */\n      tag_332\n      jump\t// in\n    tag_331:\n        /* \"#utility.yul\":645:784   */\n      swap3\n      swap2\n      pop\n      pop\n      jump\t// out\n        /* \"#utility.yul\":790:933   */\n    tag_333:\n        /* \"#utility.yul\":847:852   */\n      0x00\n        /* \"#utility.yul\":878:884   */\n      dup2\n        /* \"#utility.yul\":872:885   */\n      mload\n        /* \"#utility.yul\":863:885   */\n      swap1\n      pop\n        /* \"#utility.yul\":894:927   */\n      tag_335\n        /* \"#utility.yul\":921:926   */\n      dup2\n        /* \"#utility.yul\":894:927   */\n      tag_332\n      jump\t// in\n    tag_335:\n        /* \"#utility.yul\":790:933   */\n      swap3\n      swap2\n      pop\n      pop\n      jump\t// out\n        /* \"#utility.yul\":939:1268   */\n    tag_50:\n        /* \"#utility.yul\":998:1004   */\n      0x00\n        /* \"#utility.yul\":1047:1049   */\n      0x20\n        /* \"#utility.yul\":1035:1044   */\n      dup3\n        /* \"#utility.yul\":1026:1033   */\n      dup5\n        /* \"#utility.yul\":1022:1045   */\n      sub\n        /* \"#utility.yul\":1018:1050   */\n      slt\n        /* \"#utility.yul\":1015:1134   */\n      iszero\n      tag_337\n      jumpi\n        /* \"#utility.yul\":1053:1132   */\n      tag_338\n      tag_339\n      jump\t// in\n    tag_338:\n        /* \"#utility.yul\":1015:1134   */\n    tag_337:\n        /* \"#utility.yul\":1173:1174   */\n      0x00\n        /* \"#utility.yul\":1198:1251   */\n      tag_340\n        /* \"#utility.yul\":1243:1250   */\n      dup5\n        /* \"#utility.yul\":1234:1240   */\n      dup3\n        /* \"#utility.yul\":1223:1232   */\n      dup6\n        /* \"#utility.yul\":1219:1241   */\n      add\n        /* \"#utility.yul\":1198:1251   */\n      tag_313\n      jump\t// in\n    tag_340:\n        /* \"#utility.yul\":1188:1251   */\n      swap2\n      pop\n        /* \"#utility.yul\":1144:1261   */\n      pop\n        /* \"#utility.yul\":939:1268   */\n      swap3\n      swap2\n      pop\n      pop\n      jump\t// out\n        /* \"#utility.yul\":1274:1619   */\n    tag_281:\n        /* \"#utility.yul\":1341:1347   */\n      0x00\n        /* \"#utility.yul\":1390:1392   */\n      0x20\n        /* \"#utility.yul\":1378:1387   */\n      dup3\n        /* \"#utility.yul\":1369:1376   */\n      dup5\n        /* \"#utility.yul\":1365:1388   */\n      sub\n        /* \"#utility.yul\":1361:1393   */\n      slt\n        /* \"#utility.yul\":1358:1477   */\n      iszero\n      tag_342\n      jumpi\n        /* \"#utility.yul\":1396:1475   */\n      tag_343\n      tag_339\n      jump\t// in\n    tag_343:\n        /* \"#utility.yul\":1358:1477   */\n    tag_342:\n        /* \"#utility.yul\":1516:1517   */\n      0x00\n        /* \"#utility.yul\":1541:1602   */\n      tag_344\n        /* \"#utility.yul\":1594:1601   */\n      dup5\n        /* \"#utility.yul\":1585:1591   */\n      dup3\n        /* \"#utility.yul\":1574:1583   */\n      dup6\n        /* \"#utility.yul\":1570:1592   */\n      add\n        /* \"#utility.yul\":1541:1602   */\n      tag_317\n      jump\t// in\n    tag_344:\n        /* \"#utility.yul\":1531:1602   */\n      swap2\n      pop\n        /* \"#utility.yul\":1487:1612   */\n      pop\n        /* \"#utility.yul\":1274:1619   */\n      swap3\n      swap2\n      pop\n      pop\n      jump\t// out\n        /* \"#utility.yul\":1625:2159   */\n    tag_39:\n        /* \"#utility.yul\":1723:1729   */\n      0x00\n        /* \"#utility.yul\":1731:1737   */\n      dup1\n        /* \"#utility.yul\":1780:1782   */\n      0x40\n        /* \"#utility.yul\":1768:1777   */\n      dup4\n        /* \"#utility.yul\":1759:1766   */\n      dup6\n        /* \"#utility.yul\":1755:1778   */\n      sub\n        /* \"#utility.yul\":1751:1783   */\n      slt\n        /* \"#utility.yul\":1748:1867   */\n      iszero\n      tag_346\n      jumpi\n        /* \"#utility.yul\":1786:1865   */\n      tag_347\n      tag_339\n      jump\t// in\n    tag_347:\n        /* \"#utility.yul\":1748:1867   */\n    tag_346:\n        /* \"#utility.yul\":1906:1907   */\n      0x00\n        /* \"#utility.yul\":1931:1998   */\n      tag_348\n        /* \"#utility.yul\":1990:1997   */\n      dup6\n        /* \"#utility.yul\":1981:1987   */\n      dup3\n        /* \"#utility.yul\":1970:1979   */\n      dup7\n        /* \"#utility.yul\":1966:1988   */\n      add\n        /* \"#utility.yul\":1931:1998   */\n      tag_325\n      jump\t// in\n    tag_348:\n        /* \"#utility.yul\":1921:1998   */\n      swap3\n      pop\n        /* \"#utility.yul\":1877:2008   */\n      pop\n        /* \"#utility.yul\":2047:2049   */\n      0x20\n        /* \"#utility.yul\":2073:2142   */\n      tag_349\n        /* \"#utility.yul\":2134:2141   */\n      dup6\n        /* \"#utility.yul\":2125:2131   */\n      dup3\n        /* \"#utility.yul\":2114:2123   */\n      dup7\n        /* \"#utility.yul\":2110:2132   */\n      add\n        /* \"#utility.yul\":2073:2142   */\n      tag_321\n      jump\t// in\n    tag_349:\n        /* \"#utility.yul\":2063:2142   */\n      swap2\n      pop\n        /* \"#utility.yul\":2018:2152   */\n      pop\n        /* \"#utility.yul\":1625:2159   */\n      swap3\n      pop\n      swap3\n      swap1\n      pop\n      jump\t// out\n        /* \"#utility.yul\":2165:2494   */\n    tag_70:\n        /* \"#utility.yul\":2224:2230   */\n      0x00\n        /* \"#utility.yul\":2273:2275   */\n      0x20\n        /* \"#utility.yul\":2261:2270   */\n      dup3\n        /* \"#utility.yul\":2252:2259   */\n      dup5\n        /* \"#utility.yul\":2248:2271   */\n      sub\n        /* \"#utility.yul\":2244:2276   */\n      slt\n        /* \"#utility.yul\":2241:2360   */\n      iszero\n      tag_351\n      jumpi\n        /* \"#utility.yul\":2279:2358   */\n      tag_352\n      tag_339\n      jump\t// in\n    tag_352:\n        /* \"#utility.yul\":2241:2360   */\n    tag_351:\n        /* \"#utility.yul\":2399:2400   */\n      0x00\n        /* \"#utility.yul\":2424:2477   */\n      tag_353\n        /* \"#utility.yul\":2469:2476   */\n      dup5\n        /* \"#utility.yul\":2460:2466   */\n      dup3\n        /* \"#utility.yul\":2449:2458   */\n      dup6\n        /* \"#utility.yul\":2445:2467   */\n      add\n        /* \"#utility.yul\":2424:2477   */\n      tag_329\n      jump\t// in\n    tag_353:\n        /* \"#utility.yul\":2414:2477   */\n      swap2\n      pop\n        /* \"#utility.yul\":2370:2487   */\n      pop\n        /* \"#utility.yul\":2165:2494   */\n      swap3\n      swap2\n      pop\n      pop\n      jump\t// out\n        /* \"#utility.yul\":2500:2851   */\n    tag_181:\n        /* \"#utility.yul\":2570:2576   */\n      0x00\n        /* \"#utility.yul\":2619:2621   */\n      0x20\n        /* \"#utility.yul\":2607:2616   */\n      dup3\n        /* \"#utility.yul\":2598:2605   */\n      dup5\n        /* \"#utility.yul\":2594:2617   */\n      sub\n        /* \"#utility.yul\":2590:2622   */\n      slt\n        /* \"#utility.yul\":2587:2706   */\n      iszero\n      tag_355\n      jumpi\n        /* \"#utility.yul\":2625:2704   */\n      tag_356\n      tag_339\n      jump\t// in\n    tag_356:\n        /* \"#utility.yul\":2587:2706   */\n    tag_355:\n        /* \"#utility.yul\":2745:2746   */\n      0x00\n        /* \"#utility.yul\":2770:2834   */\n      tag_357\n        /* \"#utility.yul\":2826:2833   */\n      dup5\n        /* \"#utility.yul\":2817:2823   */\n      dup3\n        /* \"#utility.yul\":2806:2815   */\n      dup6\n        /* \"#utility.yul\":2802:2824   */\n      add\n        /* \"#utility.yul\":2770:2834   */\n      tag_333\n      jump\t// in\n    tag_357:\n        /* \"#utility.yul\":2760:2834   */\n      swap2\n      pop\n        /* \"#utility.yul\":2716:2844   */\n      pop\n        /* \"#utility.yul\":2500:2851   */\n      swap3\n      swap2\n      pop\n      pop\n      jump\t// out\n        /* \"#utility.yul\":2857:3331   */\n    tag_76:\n        /* \"#utility.yul\":2925:2931   */\n      0x00\n        /* \"#utility.yul\":2933:2939   */\n      dup1\n        /* \"#utility.yul\":2982:2984   */\n      0x40\n        /* \"#utility.yul\":2970:2979   */\n      dup4\n        /* \"#utility.yul\":2961:2968   */\n      dup6\n        /* \"#utility.yul\":2957:2980   */\n      sub\n        /* \"#utility.yul\":2953:2985   */\n      slt\n        /* \"#utility.yul\":2950:3069   */\n      iszero\n      tag_359\n      jumpi\n        /* \"#utility.yul\":2988:3067   */\n      tag_360\n      tag_339\n      jump\t// in\n    tag_360:\n        /* \"#utility.yul\":2950:3069   */\n    tag_359:\n        /* \"#utility.yul\":3108:3109   */\n      0x00\n        /* \"#utility.yul\":3133:3186   */\n      tag_361\n        /* \"#utility.yul\":3178:3185   */\n      dup6\n        /* \"#utility.yul\":3169:3175   */\n      dup3\n        /* \"#utility.yul\":3158:3167   */\n      dup7\n        /* \"#utility.yul\":3154:3176   */\n      add\n        /* \"#utility.yul\":3133:3186   */\n      tag_329\n      jump\t// in\n    tag_361:\n        /* \"#utility.yul\":3123:3186   */\n      swap3\n      pop\n        /* \"#utility.yul\":3079:3196   */\n      pop\n        /* \"#utility.yul\":3235:3237   */\n      0x20\n        /* \"#utility.yul\":3261:3314   */\n      tag_362\n        /* \"#utility.yul\":3306:3313   */\n      dup6\n        /* \"#utility.yul\":3297:3303   */\n      dup3\n        /* \"#utility.yul\":3286:3295   */\n      dup7\n        /* \"#utility.yul\":3282:3304   */\n      add\n        /* \"#utility.yul\":3261:3314   */\n      tag_329\n      jump\t// in\n    tag_362:\n        /* \"#utility.yul\":3251:3314   */\n      swap2\n      pop\n        /* \"#utility.yul\":3206:3324   */\n      pop\n        /* \"#utility.yul\":2857:3331   */\n      swap3\n      pop\n      swap3\n      swap1\n      pop\n      jump\t// out\n        /* \"#utility.yul\":3337:3956   */\n    tag_25:\n        /* \"#utility.yul\":3414:3420   */\n      0x00\n        /* \"#utility.yul\":3422:3428   */\n      dup1\n        /* \"#utility.yul\":3430:3436   */\n      0x00\n        /* \"#utility.yul\":3479:3481   */\n      0x60\n        /* \"#utility.yul\":3467:3476   */\n      dup5\n        /* \"#utility.yul\":3458:3465   */\n      dup7\n        /* \"#utility.yul\":3454:3477   */\n      sub\n        /* \"#utility.yul\":3450:3482   */\n      slt\n        /* \"#utility.yul\":3447:3566   */\n      iszero\n      tag_364\n      jumpi\n        /* \"#utility.yul\":3485:3564   */\n      tag_365\n      tag_339\n      jump\t// in\n    tag_365:\n        /* \"#utility.yul\":3447:3566   */\n    tag_364:\n        /* \"#utility.yul\":3605:3606   */\n      0x00\n        /* \"#utility.yul\":3630:3683   */\n      tag_366\n        /* \"#utility.yul\":3675:3682   */\n      dup7\n        /* \"#utility.yul\":3666:3672   */\n      dup3\n        /* \"#utility.yul\":3655:3664   */\n      dup8\n        /* \"#utility.yul\":3651:3673   */\n      add\n        /* \"#utility.yul\":3630:3683   */\n      tag_329\n      jump\t// in\n    tag_366:\n        /* \"#utility.yul\":3620:3683   */\n      swap4\n      pop\n        /* \"#utility.yul\":3576:3693   */\n      pop\n        /* \"#utility.yul\":3732:3734   */\n      0x20\n        /* \"#utility.yul\":3758:3811   */\n      tag_367\n        /* \"#utility.yul\":3803:3810   */\n      dup7\n        /* \"#utility.yul\":3794:3800   */\n      dup3\n        /* \"#utility.yul\":3783:3792   */\n      dup8\n        /* \"#utility.yul\":3779:3801   */\n      add\n        /* \"#utility.yul\":3758:3811   */\n      tag_329\n      jump\t// in\n    tag_367:\n        /* \"#utility.yul\":3748:3811   */\n      swap3\n      pop\n        /* \"#utility.yul\":3703:3821   */\n      pop\n        /* \"#utility.yul\":3860:3862   */\n      0x40\n        /* \"#utility.yul\":3886:3939   */\n      tag_368\n        /* \"#utility.yul\":3931:3938   */\n      dup7\n        /* \"#utility.yul\":3922:3928   */\n      dup3\n        /* \"#utility.yul\":3911:3920   */\n      dup8\n        /* \"#utility.yul\":3907:3929   */\n      add\n        /* \"#utility.yul\":3886:3939   */\n      tag_329\n      jump\t// in\n    tag_368:\n        /* \"#utility.yul\":3876:3939   */\n      swap2\n      pop\n        /* \"#utility.yul\":3831:3949   */\n      pop\n        /* \"#utility.yul\":3337:3956   */\n      swap3\n      pop\n      swap3\n      pop\n      swap3\n      jump\t// out\n        /* \"#utility.yul\":3962:4141   */\n    tag_369:\n        /* \"#utility.yul\":4031:4041   */\n      0x00\n        /* \"#utility.yul\":4052:4098   */\n      tag_371\n        /* \"#utility.yul\":4094:4097   */\n      dup4\n        /* \"#utility.yul\":4086:4092   */\n      dup4\n        /* \"#utility.yul\":4052:4098   */\n      tag_372\n      jump\t// in\n    tag_371:\n        /* \"#utility.yul\":4130:4134   */\n      0x20\n        /* \"#utility.yul\":4125:4128   */\n      dup4\n        /* \"#utility.yul\":4121:4135   */\n      add\n        /* \"#utility.yul\":4107:4135   */\n      swap1\n      pop\n        /* \"#utility.yul\":3962:4141   */\n      swap3\n      swap2\n      pop\n      pop\n      jump\t// out\n        /* \"#utility.yul\":4147:4265   */\n    tag_373:\n        /* \"#utility.yul\":4234:4258   */\n      tag_375\n        /* \"#utility.yul\":4252:4257   */\n      dup2\n        /* \"#utility.yul\":4234:4258   */\n      tag_376\n      jump\t// in\n    tag_375:\n        /* \"#utility.yul\":4229:4232   */\n      dup3\n        /* \"#utility.yul\":4222:4259   */\n      mstore\n        /* \"#utility.yul\":4147:4265   */\n      pop\n      pop\n      jump\t// out\n        /* \"#utility.yul\":4301:5033   */\n    tag_377:\n        /* \"#utility.yul\":4420:4423   */\n      0x00\n        /* \"#utility.yul\":4449:4503   */\n      tag_379\n        /* \"#utility.yul\":4497:4502   */\n      dup3\n        /* \"#utility.yul\":4449:4503   */\n      tag_380\n      jump\t// in\n    tag_379:\n        /* \"#utility.yul\":4519:4605   */\n      tag_381\n        /* \"#utility.yul\":4598:4604   */\n      dup2\n        /* \"#utility.yul\":4593:4596   */\n      dup6\n        /* \"#utility.yul\":4519:4605   */\n      tag_382\n      jump\t// in\n    tag_381:\n        /* \"#utility.yul\":4512:4605   */\n      swap4\n      pop\n        /* \"#utility.yul\":4629:4685   */\n      tag_383\n        /* \"#utility.yul\":4679:4684   */\n      dup4\n        /* \"#utility.yul\":4629:4685   */\n      tag_384\n      jump\t// in\n    tag_383:\n        /* \"#utility.yul\":4708:4715   */\n      dup1\n        /* \"#utility.yul\":4739:4740   */\n      0x00\n        /* \"#utility.yul\":4724:5008   */\n    tag_385:\n        /* \"#utility.yul\":4749:4755   */\n      dup4\n        /* \"#utility.yul\":4746:4747   */\n      dup2\n        /* \"#utility.yul\":4743:4756   */\n      lt\n        /* \"#utility.yul\":4724:5008   */\n      iszero\n      tag_387\n      jumpi\n        /* \"#utility.yul\":4825:4831   */\n      dup2\n        /* \"#utility.yul\":4819:4832   */\n      mload\n        /* \"#utility.yul\":4852:4915   */\n      tag_388\n        /* \"#utility.yul\":4911:4914   */\n      dup9\n        /* \"#utility.yul\":4896:4909   */\n      dup3\n        /* \"#utility.yul\":4852:4915   */\n      tag_369\n      jump\t// in\n    tag_388:\n        /* \"#utility.yul\":4845:4915   */\n      swap8\n      pop\n        /* \"#utility.yul\":4938:4998   */\n      tag_389\n        /* \"#utility.yul\":4991:4997   */\n      dup4\n        /* \"#utility.yul\":4938:4998   */\n      tag_390\n      jump\t// in\n    tag_389:\n        /* \"#utility.yul\":4928:4998   */\n      swap3\n      pop\n        /* \"#utility.yul\":4784:5008   */\n      pop\n        /* \"#utility.yul\":4771:4772   */\n      0x01\n        /* \"#utility.yul\":4768:4769   */\n      dup2\n        /* \"#utility.yul\":4764:4773   */\n      add\n        /* \"#utility.yul\":4759:4773   */\n      swap1\n      pop\n        /* \"#utility.yul\":4724:5008   */\n      jump(tag_385)\n    tag_387:\n        /* \"#utility.yul\":4728:4742   */\n      pop\n        /* \"#utility.yul\":5024:5027   */\n      dup6\n        /* \"#utility.yul\":5017:5027   */\n      swap4\n      pop\n        /* \"#utility.yul\":4425:5033   */\n      pop\n      pop\n      pop\n        /* \"#utility.yul\":4301:5033   */\n      swap3\n      swap2\n      pop\n      pop\n      jump\t// out\n        /* \"#utility.yul\":5039:5148   */\n    tag_391:\n        /* \"#utility.yul\":5120:5141   */\n      tag_393\n        /* \"#utility.yul\":5135:5140   */\n      dup2\n        /* \"#utility.yul\":5120:5141   */\n      tag_394\n      jump\t// in\n    tag_393:\n        /* \"#utility.yul\":5115:5118   */\n      dup3\n        /* \"#utility.yul\":5108:5142   */\n      mstore\n        /* \"#utility.yul\":5039:5148   */\n      pop\n      pop\n      jump\t// out\n        /* \"#utility.yul\":5154:5527   */\n    tag_395:\n        /* \"#utility.yul\":5258:5261   */\n      0x00\n        /* \"#utility.yul\":5286:5324   */\n      tag_397\n        /* \"#utility.yul\":5318:5323   */\n      dup3\n        /* \"#utility.yul\":5286:5324   */\n      tag_398\n      jump\t// in\n    tag_397:\n        /* \"#utility.yul\":5340:5428   */\n      tag_399\n        /* \"#utility.yul\":5421:5427   */\n      dup2\n        /* \"#utility.yul\":5416:5419   */\n      dup6\n        /* \"#utility.yul\":5340:5428   */\n      tag_400\n      jump\t// in\n    tag_399:\n        /* \"#utility.yul\":5333:5428   */\n      swap4\n      pop\n        /* \"#utility.yul\":5437:5489   */\n      tag_401\n        /* \"#utility.yul\":5482:5488   */\n      dup2\n        /* \"#utility.yul\":5477:5480   */\n      dup6\n        /* \"#utility.yul\":5470:5474   */\n      0x20\n        /* \"#utility.yul\":5463:5468   */\n      dup7\n        /* \"#utility.yul\":5459:5475   */\n      add\n        /* \"#utility.yul\":5437:5489   */\n      tag_402\n      jump\t// in\n    tag_401:\n        /* \"#utility.yul\":5514:5520   */\n      dup1\n        /* \"#utility.yul\":5509:5512   */\n      dup5\n        /* \"#utility.yul\":5505:5521   */\n      add\n        /* \"#utility.yul\":5498:5521   */\n      swap2\n      pop\n        /* \"#utility.yul\":5262:5527   */\n      pop\n        /* \"#utility.yul\":5154:5527   */\n      swap3\n      swap2\n      pop\n      pop\n      jump\t// out\n        /* \"#utility.yul\":5533:5696   */\n    tag_403:\n        /* \"#utility.yul\":5636:5689   */\n      tag_405\n        /* \"#utility.yul\":5683:5688   */\n      dup2\n        /* \"#utility.yul\":5636:5689   */\n      tag_406\n      jump\t// in\n    tag_405:\n        /* \"#utility.yul\":5631:5634   */\n      dup3\n        /* \"#utility.yul\":5624:5690   */\n      mstore\n        /* \"#utility.yul\":5533:5696   */\n      pop\n      pop\n      jump\t// out\n        /* \"#utility.yul\":5702:5861   */\n    tag_407:\n        /* \"#utility.yul\":5803:5854   */\n      tag_409\n        /* \"#utility.yul\":5848:5853   */\n      dup2\n        /* \"#utility.yul\":5803:5854   */\n      tag_410\n      jump\t// in\n    tag_409:\n        /* \"#utility.yul\":5798:5801   */\n      dup3\n        /* \"#utility.yul\":5791:5855   */\n      mstore\n        /* \"#utility.yul\":5702:5861   */\n      pop\n      pop\n      jump\t// out\n        /* \"#utility.yul\":5867:6010   */\n    tag_411:\n        /* \"#utility.yul\":5960:6003   */\n      tag_413\n        /* \"#utility.yul\":5997:6002   */\n      dup2\n        /* \"#utility.yul\":5960:6003   */\n      tag_414\n      jump\t// in\n    tag_413:\n        /* \"#utility.yul\":5955:5958   */\n      dup3\n        /* \"#utility.yul\":5948:6004   */\n      mstore\n        /* \"#utility.yul\":5867:6010   */\n      pop\n      pop\n      jump\t// out\n        /* \"#utility.yul\":6016:6380   */\n    tag_415:\n        /* \"#utility.yul\":6104:6107   */\n      0x00\n        /* \"#utility.yul\":6132:6171   */\n      tag_417\n        /* \"#utility.yul\":6165:6170   */\n      dup3\n        /* \"#utility.yul\":6132:6171   */\n      tag_418\n      jump\t// in\n    tag_417:\n        /* \"#utility.yul\":6187:6258   */\n      tag_419\n        /* \"#utility.yul\":6251:6257   */\n      dup2\n        /* \"#utility.yul\":6246:6249   */\n      dup6\n        /* \"#utility.yul\":6187:6258   */\n      tag_420\n      jump\t// in\n    tag_419:\n        /* \"#utility.yul\":6180:6258   */\n      swap4\n      pop\n        /* \"#utility.yul\":6267:6319   */\n      tag_421\n        /* \"#utility.yul\":6312:6318   */\n      dup2\n        /* \"#utility.yul\":6307:6310   */\n      dup6\n        /* \"#utility.yul\":6300:6304   */\n      0x20\n        /* \"#utility.yul\":6293:6298   */\n      dup7\n        /* \"#utility.yul\":6289:6305   */\n      add\n        /* \"#utility.yul\":6267:6319   */\n      tag_402\n      jump\t// in\n    tag_421:\n        /* \"#utility.yul\":6344:6373   */\n      tag_422\n        /* \"#utility.yul\":6366:6372   */\n      dup2\n        /* \"#utility.yul\":6344:6373   */\n      tag_423\n      jump\t// in\n    tag_422:\n        /* \"#utility.yul\":6339:6342   */\n      dup5\n        /* \"#utility.yul\":6335:6374   */\n      add\n        /* \"#utility.yul\":6328:6374   */\n      swap2\n      pop\n        /* \"#utility.yul\":6108:6380   */\n      pop\n        /* \"#utility.yul\":6016:6380   */\n      swap3\n      swap2\n      pop\n      pop\n      jump\t// out\n        /* \"#utility.yul\":6386:6752   */\n    tag_424:\n        /* \"#utility.yul\":6528:6531   */\n      0x00\n        /* \"#utility.yul\":6549:6616   */\n      tag_426\n        /* \"#utility.yul\":6613:6615   */\n      0x13\n        /* \"#utility.yul\":6608:6611   */\n      dup4\n        /* \"#utility.yul\":6549:6616   */\n      tag_420\n      jump\t// in\n    tag_426:\n        /* \"#utility.yul\":6542:6616   */\n      swap2\n      pop\n        /* \"#utility.yul\":6625:6718   */\n      tag_427\n        /* \"#utility.yul\":6714:6717   */\n      dup3\n        /* \"#utility.yul\":6625:6718   */\n      tag_428\n      jump\t// in\n    tag_427:\n        /* \"#utility.yul\":6743:6745   */\n      0x20\n        /* \"#utility.yul\":6738:6741   */\n      dup3\n        /* \"#utility.yul\":6734:6746   */\n      add\n        /* \"#utility.yul\":6727:6746   */\n      swap1\n      pop\n        /* \"#utility.yul\":6386:6752   */\n      swap2\n      swap1\n      pop\n      jump\t// out\n        /* \"#utility.yul\":6758:7124   */\n    tag_429:\n        /* \"#utility.yul\":6900:6903   */\n      0x00\n        /* \"#utility.yul\":6921:6988   */\n      tag_431\n        /* \"#utility.yul\":6985:6987   */\n      0x14\n        /* \"#utility.yul\":6980:6983   */\n      dup4\n        /* \"#utility.yul\":6921:6988   */\n      tag_420\n      jump\t// in\n    tag_431:\n        /* \"#utility.yul\":6914:6988   */\n      swap2\n      pop\n        /* \"#utility.yul\":6997:7090   */\n      tag_432\n        /* \"#utility.yul\":7086:7089   */\n      dup3\n        /* \"#utility.yul\":6997:7090   */\n      tag_433\n      jump\t// in\n    tag_432:\n        /* \"#utility.yul\":7115:7117   */\n      0x20\n        /* \"#utility.yul\":7110:7113   */\n      dup3\n        /* \"#utility.yul\":7106:7118   */\n      add\n        /* \"#utility.yul\":7099:7118   */\n      swap1\n      pop\n        /* \"#utility.yul\":6758:7124   */\n      swap2\n      swap1\n      pop\n      jump\t// out\n        /* \"#utility.yul\":7130:7496   */\n    tag_434:\n        /* \"#utility.yul\":7272:7275   */\n      0x00\n        /* \"#utility.yul\":7293:7360   */\n      tag_436\n        /* \"#utility.yul\":7357:7359   */\n      0x26\n        /* \"#utility.yul\":7352:7355   */\n      dup4\n        /* \"#utility.yul\":7293:7360   */\n      tag_420\n      jump\t// in\n    tag_436:\n        /* \"#utility.yul\":7286:7360   */\n      swap2\n      pop\n        /* \"#utility.yul\":7369:7462   */\n      tag_437\n        /* \"#utility.yul\":7458:7461   */\n      dup3\n        /* \"#utility.yul\":7369:7462   */\n      tag_438\n      jump\t// in\n    tag_437:\n        /* \"#utility.yul\":7487:7489   */\n      0x40\n        /* \"#utility.yul\":7482:7485   */\n      dup3\n        /* \"#utility.yul\":7478:7490   */\n      add\n        /* \"#utility.yul\":7471:7490   */\n      swap1\n      pop\n        /* \"#utility.yul\":7130:7496   */\n      swap2\n      swap1\n      pop\n      jump\t// out\n        /* \"#utility.yul\":7502:7868   */\n    tag_439:\n        /* \"#utility.yul\":7644:7647   */\n      0x00\n        /* \"#utility.yul\":7665:7732   */\n      tag_441\n        /* \"#utility.yul\":7729:7731   */\n      0x26\n        /* \"#utility.yul\":7724:7727   */\n      dup4\n        /* \"#utility.yul\":7665:7732   */\n      tag_420\n      jump\t// in\n    tag_441:\n        /* \"#utility.yul\":7658:7732   */\n      swap2\n      pop\n        /* \"#utility.yul\":7741:7834   */\n      tag_442\n        /* \"#utility.yul\":7830:7833   */\n      dup3\n        /* \"#utility.yul\":7741:7834   */\n      tag_443\n      jump\t// in\n    tag_442:\n        /* \"#utility.yul\":7859:7861   */\n      0x40\n        /* \"#utility.yul\":7854:7857   */\n      dup3\n        /* \"#utility.yul\":7850:7862   */\n      add\n        /* \"#utility.yul\":7843:7862   */\n      swap1\n      pop\n        /* \"#utility.yul\":7502:7868   */\n      swap2\n      swap1\n      pop\n      jump\t// out\n        /* \"#utility.yul\":7874:8240   */\n    tag_444:\n        /* \"#utility.yul\":8016:8019   */\n      0x00\n        /* \"#utility.yul\":8037:8104   */\n      tag_446\n        /* \"#utility.yul\":8101:8103   */\n      0x10\n        /* \"#utility.yul\":8096:8099   */\n      dup4\n        /* \"#utility.yul\":8037:8104   */\n      tag_420\n      jump\t// in\n    tag_446:\n        /* \"#utility.yul\":8030:8104   */\n      swap2\n      pop\n        /* \"#utility.yul\":8113:8206   */\n      tag_447\n        /* \"#utility.yul\":8202:8205   */\n      dup3\n        /* \"#utility.yul\":8113:8206   */\n      tag_448\n      jump\t// in\n    tag_447:\n        /* \"#utility.yul\":8231:8233   */\n      0x20\n        /* \"#utility.yul\":8226:8229   */\n      dup3\n        /* \"#utility.yul\":8222:8234   */\n      add\n        /* \"#utility.yul\":8215:8234   */\n      swap1\n      pop\n        /* \"#utility.yul\":7874:8240   */\n      swap2\n      swap1\n      pop\n      jump\t// out\n        /* \"#utility.yul\":8246:8612   */\n    tag_449:\n        /* \"#utility.yul\":8388:8391   */\n      0x00\n        /* \"#utility.yul\":8409:8476   */\n      tag_451\n        /* \"#utility.yul\":8473:8475   */\n      0x2e\n        /* \"#utility.yul\":8468:8471   */\n      dup4\n        /* \"#utility.yul\":8409:8476   */\n      tag_420\n      jump\t// in\n    tag_451:\n        /* \"#utility.yul\":8402:8476   */\n      swap2\n      pop\n        /* \"#utility.yul\":8485:8578   */\n      tag_452\n        /* \"#utility.yul\":8574:8577   */\n      dup3\n        /* \"#utility.yul\":8485:8578   */\n      tag_453\n      jump\t// in\n    tag_452:\n        /* \"#utility.yul\":8603:8605   */\n      0x40\n        /* \"#utility.yul\":8598:8601   */\n      dup3\n        /* \"#utility.yul\":8594:8606   */\n      add\n        /* \"#utility.yul\":8587:8606   */\n      swap1\n      pop\n        /* \"#utility.yul\":8246:8612   */\n      swap2\n      swap1\n      pop\n      jump\t// out\n        /* \"#utility.yul\":8618:8984   */\n    tag_454:\n        /* \"#utility.yul\":8760:8763   */\n      0x00\n        /* \"#utility.yul\":8781:8848   */\n      tag_456\n        /* \"#utility.yul\":8845:8847   */\n      0x1e\n        /* \"#utility.yul\":8840:8843   */\n      dup4\n        /* \"#utility.yul\":8781:8848   */\n      tag_420\n      jump\t// in\n    tag_456:\n        /* \"#utility.yul\":8774:8848   */\n      swap2\n      pop\n        /* \"#utility.yul\":8857:8950   */\n      tag_457\n        /* \"#utility.yul\":8946:8949   */\n      dup3\n        /* \"#utility.yul\":8857:8950   */\n      tag_458\n      jump\t// in\n    tag_457:\n        /* \"#utility.yul\":8975:8977   */\n      0x20\n        /* \"#utility.yul\":8970:8973   */\n      dup3\n        /* \"#utility.yul\":8966:8978   */\n      add\n        /* \"#utility.yul\":8959:8978   */\n      swap1\n      pop\n        /* \"#utility.yul\":8618:8984   */\n      swap2\n      swap1\n      pop\n      jump\t// out\n        /* \"#utility.yul\":8990:9356   */\n    tag_459:\n        /* \"#utility.yul\":9132:9135   */\n      0x00\n        /* \"#utility.yul\":9153:9220   */\n      tag_461\n        /* \"#utility.yul\":9217:9219   */\n      0x20\n        /* \"#utility.yul\":9212:9215   */\n      dup4\n        /* \"#utility.yul\":9153:9220   */\n      tag_420\n      jump\t// in\n    tag_461:\n        /* \"#utility.yul\":9146:9220   */\n      swap2\n      pop\n        /* \"#utility.yul\":9229:9322   */\n      tag_462\n        /* \"#utility.yul\":9318:9321   */\n      dup3\n        /* \"#utility.yul\":9229:9322   */\n      tag_463\n      jump\t// in\n    tag_462:\n        /* \"#utility.yul\":9347:9349   */\n      0x20\n        /* \"#utility.yul\":9342:9345   */\n      dup3\n        /* \"#utility.yul\":9338:9350   */\n      add\n        /* \"#utility.yul\":9331:9350   */\n      swap1\n      pop\n        /* \"#utility.yul\":8990:9356   */\n      swap2\n      swap1\n      pop\n      jump\t// out\n        /* \"#utility.yul\":9362:9728   */\n    tag_464:\n        /* \"#utility.yul\":9504:9507   */\n      0x00\n        /* \"#utility.yul\":9525:9592   */\n      tag_466\n        /* \"#utility.yul\":9589:9591   */\n      0x1b\n        /* \"#utility.yul\":9584:9587   */\n      dup4\n        /* \"#utility.yul\":9525:9592   */\n      tag_420\n      jump\t// in\n    tag_466:\n        /* \"#utility.yul\":9518:9592   */\n      swap2\n      pop\n        /* \"#utility.yul\":9601:9694   */\n      tag_467\n        /* \"#utility.yul\":9690:9693   */\n      dup3\n        /* \"#utility.yul\":9601:9694   */\n      tag_468\n      jump\t// in\n    tag_467:\n        /* \"#utility.yul\":9719:9721   */\n      0x20\n        /* \"#utility.yul\":9714:9717   */\n      dup3\n        /* \"#utility.yul\":9710:9722   */\n      add\n        /* \"#utility.yul\":9703:9722   */\n      swap1\n      pop\n        /* \"#utility.yul\":9362:9728   */\n      swap2\n      swap1\n      pop\n      jump\t// out\n        /* \"#utility.yul\":9734:10100   */\n    tag_469:\n        /* \"#utility.yul\":9876:9879   */\n      0x00\n        /* \"#utility.yul\":9897:9964   */\n      tag_471\n        /* \"#utility.yul\":9961:9963   */\n      0x22\n        /* \"#utility.yul\":9956:9959   */\n      dup4\n        /* \"#utility.yul\":9897:9964   */\n      tag_420\n      jump\t// in\n    tag_471:\n        /* \"#utility.yul\":9890:9964   */\n      swap2\n      pop\n        /* \"#utility.yul\":9973:10066   */\n      tag_472\n        /* \"#utility.yul\":10062:10065   */\n      dup3\n        /* \"#utility.yul\":9973:10066   */\n      tag_473\n      jump\t// in\n    tag_472:\n        /* \"#utility.yul\":10091:10093   */\n      0x40\n        /* \"#utility.yul\":10086:10089   */\n      dup3\n        /* \"#utility.yul\":10082:10094   */\n      add\n        /* \"#utility.yul\":10075:10094   */\n      swap1\n      pop\n        /* \"#utility.yul\":9734:10100   */\n      swap2\n      swap1\n      pop\n      jump\t// out\n        /* \"#utility.yul\":10106:10472   */\n    tag_474:\n        /* \"#utility.yul\":10248:10251   */\n      0x00\n        /* \"#utility.yul\":10269:10336   */\n      tag_476\n        /* \"#utility.yul\":10333:10335   */\n      0x1e\n        /* \"#utility.yul\":10328:10331   */\n      dup4\n        /* \"#utility.yul\":10269:10336   */\n      tag_420\n      jump\t// in\n    tag_476:\n        /* \"#utility.yul\":10262:10336   */\n      swap2\n      pop\n        /* \"#utility.yul\":10345:10438   */\n      tag_477\n        /* \"#utility.yul\":10434:10437   */\n      dup3\n        /* \"#utility.yul\":10345:10438   */\n      tag_478\n      jump\t// in\n    tag_477:\n        /* \"#utility.yul\":10463:10465   */\n      0x20\n        /* \"#utility.yul\":10458:10461   */\n      dup3\n        /* \"#utility.yul\":10454:10466   */\n      add\n        /* \"#utility.yul\":10447:10466   */\n      swap1\n      pop\n        /* \"#utility.yul\":10106:10472   */\n      swap2\n      swap1\n      pop\n      jump\t// out\n        /* \"#utility.yul\":10478:10844   */\n    tag_479:\n        /* \"#utility.yul\":10620:10623   */\n      0x00\n        /* \"#utility.yul\":10641:10708   */\n      tag_481\n        /* \"#utility.yul\":10705:10707   */\n      0x1d\n        /* \"#utility.yul\":10700:10703   */\n      dup4\n        /* \"#utility.yul\":10641:10708   */\n      tag_420\n      jump\t// in\n    tag_481:\n        /* \"#utility.yul\":10634:10708   */\n      swap2\n      pop\n        /* \"#utility.yul\":10717:10810   */\n      tag_482\n        /* \"#utility.yul\":10806:10809   */\n      dup3\n        /* \"#utility.yul\":10717:10810   */\n      tag_483\n      jump\t// in\n    tag_482:\n        /* \"#utility.yul\":10835:10837   */\n      0x20\n        /* \"#utility.yul\":10830:10833   */\n      dup3\n        /* \"#utility.yul\":10826:10838   */\n      add\n        /* \"#utility.yul\":10819:10838   */\n      swap1\n      pop\n        /* \"#utility.yul\":10478:10844   */\n      swap2\n      swap1\n      pop\n      jump\t// out\n        /* \"#utility.yul\":10850:11216   */\n    tag_484:\n        /* \"#utility.yul\":10992:10995   */\n      0x00\n        /* \"#utility.yul\":11013:11080   */\n      tag_486\n        /* \"#utility.yul\":11077:11079   */\n      0x2b\n        /* \"#utility.yul\":11072:11075   */\n      dup4\n        /* \"#utility.yul\":11013:11080   */\n      tag_420\n      jump\t// in\n    tag_486:\n        /* \"#utility.yul\":11006:11080   */\n      swap2\n      pop\n        /* \"#utility.yul\":11089:11182   */\n      tag_487\n        /* \"#utility.yul\":11178:11181   */\n      dup3\n        /* \"#utility.yul\":11089:11182   */\n      tag_488\n      jump\t// in\n    tag_487:\n        /* \"#utility.yul\":11207:11209   */\n      0x40\n        /* \"#utility.yul\":11202:11205   */\n      dup3\n        /* \"#utility.yul\":11198:11210   */\n      add\n        /* \"#utility.yul\":11191:11210   */\n      swap1\n      pop\n        /* \"#utility.yul\":10850:11216   */\n      swap2\n      swap1\n      pop\n      jump\t// out\n        /* \"#utility.yul\":11222:11588   */\n    tag_489:\n        /* \"#utility.yul\":11364:11367   */\n      0x00\n        /* \"#utility.yul\":11385:11452   */\n      tag_491\n        /* \"#utility.yul\":11449:11451   */\n      0x2a\n        /* \"#utility.yul\":11444:11447   */\n      dup4\n        /* \"#utility.yul\":11385:11452   */\n      tag_420\n      jump\t// in\n    tag_491:\n        /* \"#utility.yul\":11378:11452   */\n      swap2\n      pop\n        /* \"#utility.yul\":11461:11554   */\n      tag_492\n        /* \"#utility.yul\":11550:11553   */\n      dup3\n        /* \"#utility.yul\":11461:11554   */\n      tag_493\n      jump\t// in\n    tag_492:\n        /* \"#utility.yul\":11579:11581   */\n      0x40\n        /* \"#utility.yul\":11574:11577   */\n      dup3\n        /* \"#utility.yul\":11570:11582   */\n      add\n        /* \"#utility.yul\":11563:11582   */\n      swap1\n      pop\n        /* \"#utility.yul\":11222:11588   */\n      swap2\n      swap1\n      pop\n      jump\t// out\n        /* \"#utility.yul\":11594:11960   */\n    tag_494:\n        /* \"#utility.yul\":11736:11739   */\n      0x00\n        /* \"#utility.yul\":11757:11824   */\n      tag_496\n        /* \"#utility.yul\":11821:11823   */\n      0x1f\n        /* \"#utility.yul\":11816:11819   */\n      dup4\n        /* \"#utility.yul\":11757:11824   */\n      tag_420\n      jump\t// in\n    tag_496:\n        /* \"#utility.yul\":11750:11824   */\n      swap2\n      pop\n        /* \"#utility.yul\":11833:11926   */\n      tag_497\n        /* \"#utility.yul\":11922:11925   */\n      dup3\n        /* \"#utility.yul\":11833:11926   */\n      tag_498\n      jump\t// in\n    tag_497:\n        /* \"#utility.yul\":11951:11953   */\n      0x20\n        /* \"#utility.yul\":11946:11949   */\n      dup3\n        /* \"#utility.yul\":11942:11954   */\n      add\n        /* \"#utility.yul\":11935:11954   */\n      swap1\n      pop\n        /* \"#utility.yul\":11594:11960   */\n      swap2\n      swap1\n      pop\n      jump\t// out\n        /* \"#utility.yul\":11966:12332   */\n    tag_499:\n        /* \"#utility.yul\":12108:12111   */\n      0x00\n        /* \"#utility.yul\":12129:12196   */\n      tag_501\n        /* \"#utility.yul\":12193:12195   */\n      0x1d\n        /* \"#utility.yul\":12188:12191   */\n      dup4\n        /* \"#utility.yul\":12129:12196   */\n      tag_420\n      jump\t// in\n    tag_501:\n        /* \"#utility.yul\":12122:12196   */\n      swap2\n      pop\n        /* \"#utility.yul\":12205:12298   */\n      tag_502\n        /* \"#utility.yul\":12294:12297   */\n      dup3\n        /* \"#utility.yul\":12205:12298   */\n      tag_503\n      jump\t// in\n    tag_502:\n        /* \"#utility.yul\":12323:12325   */\n      0x20\n        /* \"#utility.yul\":12318:12321   */\n      dup3\n        /* \"#utility.yul\":12314:12326   */\n      add\n        /* \"#utility.yul\":12307:12326   */\n      swap1\n      pop\n        /* \"#utility.yul\":11966:12332   */\n      swap2\n      swap1\n      pop\n      jump\t// out\n        /* \"#utility.yul\":12338:12704   */\n    tag_504:\n        /* \"#utility.yul\":12480:12483   */\n      0x00\n        /* \"#utility.yul\":12501:12568   */\n      tag_506\n        /* \"#utility.yul\":12565:12567   */\n      0x1c\n        /* \"#utility.yul\":12560:12563   */\n      dup4\n        /* \"#utility.yul\":12501:12568   */\n      tag_420\n      jump\t// in\n    tag_506:\n        /* \"#utility.yul\":12494:12568   */\n      swap2\n      pop\n        /* \"#utility.yul\":12577:12670   */\n      tag_507\n        /* \"#utility.yul\":12666:12669   */\n      dup3\n        /* \"#utility.yul\":12577:12670   */\n      tag_508\n      jump\t// in\n    tag_507:\n        /* \"#utility.yul\":12695:12697   */\n      0x20\n        /* \"#utility.yul\":12690:12693   */\n      dup3\n        /* \"#utility.yul\":12686:12698   */\n      add\n        /* \"#utility.yul\":12679:12698   */\n      swap1\n      pop\n        /* \"#utility.yul\":12338:12704   */\n      swap2\n      swap1\n      pop\n      jump\t// out\n        /* \"#utility.yul\":12710:12818   */\n    tag_372:\n        /* \"#utility.yul\":12787:12811   */\n      tag_510\n        /* \"#utility.yul\":12805:12810   */\n      dup2\n        /* \"#utility.yul\":12787:12811   */\n      tag_511\n      jump\t// in\n    tag_510:\n        /* \"#utility.yul\":12782:12785   */\n      dup3\n        /* \"#utility.yul\":12775:12812   */\n      mstore\n        /* \"#utility.yul\":12710:12818   */\n      pop\n      pop\n      jump\t// out\n        /* \"#utility.yul\":12824:12942   */\n    tag_512:\n        /* \"#utility.yul\":12911:12935   */\n      tag_514\n        /* \"#utility.yul\":12929:12934   */\n      dup2\n        /* \"#utility.yul\":12911:12935   */\n      tag_511\n      jump\t// in\n    tag_514:\n        /* \"#utility.yul\":12906:12909   */\n      dup3\n        /* \"#utility.yul\":12899:12936   */\n      mstore\n        /* \"#utility.yul\":12824:12942   */\n      pop\n      pop\n      jump\t// out\n        /* \"#utility.yul\":12948:13219   */\n    tag_298:\n        /* \"#utility.yul\":13078:13081   */\n      0x00\n        /* \"#utility.yul\":13100:13193   */\n      tag_516\n        /* \"#utility.yul\":13189:13192   */\n      dup3\n        /* \"#utility.yul\":13180:13186   */\n      dup5\n        /* \"#utility.yul\":13100:13193   */\n      tag_395\n      jump\t// in\n    tag_516:\n        /* \"#utility.yul\":13093:13193   */\n      swap2\n      pop\n        /* \"#utility.yul\":13210:13213   */\n      dup2\n        /* \"#utility.yul\":13203:13213   */\n      swap1\n      pop\n        /* \"#utility.yul\":12948:13219   */\n      swap3\n      swap2\n      pop\n      pop\n      jump\t// out\n        /* \"#utility.yul\":13225:13447   */\n    tag_30:\n        /* \"#utility.yul\":13318:13322   */\n      0x00\n        /* \"#utility.yul\":13356:13358   */\n      0x20\n        /* \"#utility.yul\":13345:13354   */\n      dup3\n        /* \"#utility.yul\":13341:13359   */\n      add\n        /* \"#utility.yul\":13333:13359   */\n      swap1\n      pop\n        /* \"#utility.yul\":13369:13440   */\n      tag_518\n        /* \"#utility.yul\":13437:13438   */\n      0x00\n        /* \"#utility.yul\":13426:13435   */\n      dup4\n        /* \"#utility.yul\":13422:13439   */\n      add\n        /* \"#utility.yul\":13413:13419   */\n      dup5\n        /* \"#utility.yul\":13369:13440   */\n      tag_373\n      jump\t// in\n    tag_518:\n        /* \"#utility.yul\":13225:13447   */\n      swap3\n      swap2\n      pop\n      pop\n      jump\t// out\n        /* \"#utility.yul\":13453:13895   */\n    tag_255:\n        /* \"#utility.yul\":13602:13606   */\n      0x00\n        /* \"#utility.yul\":13640:13642   */\n      0x60\n        /* \"#utility.yul\":13629:13638   */\n      dup3\n        /* \"#utility.yul\":13625:13643   */\n      add\n        /* \"#utility.yul\":13617:13643   */\n      swap1\n      pop\n        /* \"#utility.yul\":13653:13724   */\n      tag_520\n        /* \"#utility.yul\":13721:13722   */\n      0x00\n        /* \"#utility.yul\":13710:13719   */\n      dup4\n        /* \"#utility.yul\":13706:13723   */\n      add\n        /* \"#utility.yul\":13697:13703   */\n      dup7\n        /* \"#utility.yul\":13653:13724   */\n      tag_373\n      jump\t// in\n    tag_520:\n        /* \"#utility.yul\":13734:13806   */\n      tag_521\n        /* \"#utility.yul\":13802:13804   */\n      0x20\n        /* \"#utility.yul\":13791:13800   */\n      dup4\n        /* \"#utility.yul\":13787:13805   */\n      add\n        /* \"#utility.yul\":13778:13784   */\n      dup6\n        /* \"#utility.yul\":13734:13806   */\n      tag_373\n      jump\t// in\n    tag_521:\n        /* \"#utility.yul\":13816:13888   */\n      tag_522\n        /* \"#utility.yul\":13884:13886   */\n      0x40\n        /* \"#utility.yul\":13873:13882   */\n      dup4\n        /* \"#utility.yul\":13869:13887   */\n      add\n        /* \"#utility.yul\":13860:13866   */\n      dup5\n        /* \"#utility.yul\":13816:13888   */\n      tag_512\n      jump\t// in\n    tag_522:\n        /* \"#utility.yul\":13453:13895   */\n      swap5\n      swap4\n      pop\n      pop\n      pop\n      pop\n      jump\t// out\n        /* \"#utility.yul\":13901:14111   */\n    tag_44:\n        /* \"#utility.yul\":13988:13992   */\n      0x00\n        /* \"#utility.yul\":14026:14028   */\n      0x20\n        /* \"#utility.yul\":14015:14024   */\n      dup3\n        /* \"#utility.yul\":14011:14029   */\n      add\n        /* \"#utility.yul\":14003:14029   */\n      swap1\n      pop\n        /* \"#utility.yul\":14039:14104   */\n      tag_524\n        /* \"#utility.yul\":14101:14102   */\n      0x00\n        /* \"#utility.yul\":14090:14099   */\n      dup4\n        /* \"#utility.yul\":14086:14103   */\n      add\n        /* \"#utility.yul\":14077:14083   */\n      dup5\n        /* \"#utility.yul\":14039:14104   */\n      tag_391\n      jump\t// in\n    tag_524:\n        /* \"#utility.yul\":13901:14111   */\n      swap3\n      swap2\n      pop\n      pop\n      jump\t// out\n        /* \"#utility.yul\":14117:14371   */\n    tag_34:\n        /* \"#utility.yul\":14226:14230   */\n      0x00\n        /* \"#utility.yul\":14264:14266   */\n      0x20\n        /* \"#utility.yul\":14253:14262   */\n      dup3\n        /* \"#utility.yul\":14249:14267   */\n      add\n        /* \"#utility.yul\":14241:14267   */\n      swap1\n      pop\n        /* \"#utility.yul\":14277:14364   */\n      tag_526\n        /* \"#utility.yul\":14361:14362   */\n      0x00\n        /* \"#utility.yul\":14350:14359   */\n      dup4\n        /* \"#utility.yul\":14346:14363   */\n      add\n        /* \"#utility.yul\":14337:14343   */\n      dup5\n        /* \"#utility.yul\":14277:14364   */\n      tag_403\n      jump\t// in\n    tag_526:\n        /* \"#utility.yul\":14117:14371   */\n      swap3\n      swap2\n      pop\n      pop\n      jump\t// out\n        /* \"#utility.yul\":14377:14627   */\n    tag_64:\n        /* \"#utility.yul\":14484:14488   */\n      0x00\n        /* \"#utility.yul\":14522:14524   */\n      0x20\n        /* \"#utility.yul\":14511:14520   */\n      dup3\n        /* \"#utility.yul\":14507:14525   */\n      add\n        /* \"#utility.yul\":14499:14525   */\n      swap1\n      pop\n        /* \"#utility.yul\":14535:14620   */\n      tag_528\n        /* \"#utility.yul\":14617:14618   */\n      0x00\n        /* \"#utility.yul\":14606:14615   */\n      dup4\n        /* \"#utility.yul\":14602:14619   */\n      add\n        /* \"#utility.yul\":14593:14599   */\n      dup5\n        /* \"#utility.yul\":14535:14620   */\n      tag_407\n      jump\t// in\n    tag_528:\n        /* \"#utility.yul\":14377:14627   */\n      swap3\n      swap2\n      pop\n      pop\n      jump\t// out\n        /* \"#utility.yul\":14633:14867   */\n    tag_125:\n        /* \"#utility.yul\":14732:14736   */\n      0x00\n        /* \"#utility.yul\":14770:14772   */\n      0x20\n        /* \"#utility.yul\":14759:14768   */\n      dup3\n        /* \"#utility.yul\":14755:14773   */\n      add\n        /* \"#utility.yul\":14747:14773   */\n      swap1\n      pop\n        /* \"#utility.yul\":14783:14860   */\n      tag_530\n        /* \"#utility.yul\":14857:14858   */\n      0x00\n        /* \"#utility.yul\":14846:14855   */\n      dup4\n        /* \"#utility.yul\":14842:14859   */\n      add\n        /* \"#utility.yul\":14833:14839   */\n      dup5\n        /* \"#utility.yul\":14783:14860   */\n      tag_411\n      jump\t// in\n    tag_530:\n        /* \"#utility.yul\":14633:14867   */\n      swap3\n      swap2\n      pop\n      pop\n      jump\t// out\n        /* \"#utility.yul\":14873:15186   */\n    tag_311:\n        /* \"#utility.yul\":14986:14990   */\n      0x00\n        /* \"#utility.yul\":15024:15026   */\n      0x20\n        /* \"#utility.yul\":15013:15022   */\n      dup3\n        /* \"#utility.yul\":15009:15027   */\n      add\n        /* \"#utility.yul\":15001:15027   */\n      swap1\n      pop\n        /* \"#utility.yul\":15073:15082   */\n      dup2\n        /* \"#utility.yul\":15067:15071   */\n      dup2\n        /* \"#utility.yul\":15063:15083   */\n      sub\n        /* \"#utility.yul\":15059:15060   */\n      0x00\n        /* \"#utility.yul\":15048:15057   */\n      dup4\n        /* \"#utility.yul\":15044:15061   */\n      add\n        /* \"#utility.yul\":15037:15084   */\n      mstore\n        /* \"#utility.yul\":15101:15179   */\n      tag_532\n        /* \"#utility.yul\":15174:15178   */\n      dup2\n        /* \"#utility.yul\":15165:15171   */\n      dup5\n        /* \"#utility.yul\":15101:15179   */\n      tag_415\n      jump\t// in\n    tag_532:\n        /* \"#utility.yul\":15093:15179   */\n      swap1\n      pop\n        /* \"#utility.yul\":14873:15186   */\n      swap3\n      swap2\n      pop\n      pop\n      jump\t// out\n        /* \"#utility.yul\":15192:15611   */\n    tag_160:\n        /* \"#utility.yul\":15358:15362   */\n      0x00\n        /* \"#utility.yul\":15396:15398   */\n      0x20\n        /* \"#utility.yul\":15385:15394   */\n      dup3\n        /* \"#utility.yul\":15381:15399   */\n      add\n        /* \"#utility.yul\":15373:15399   */\n      swap1\n      pop\n        /* \"#utility.yul\":15445:15454   */\n      dup2\n        /* \"#utility.yul\":15439:15443   */\n      dup2\n        /* \"#utility.yul\":15435:15455   */\n      sub\n        /* \"#utility.yul\":15431:15432   */\n      0x00\n        /* \"#utility.yul\":15420:15429   */\n      dup4\n        /* \"#utility.yul\":15416:15433   */\n      add\n        /* \"#utility.yul\":15409:15456   */\n      mstore\n        /* \"#utility.yul\":15473:15604   */\n      tag_534\n        /* \"#utility.yul\":15599:15603   */\n      dup2\n        /* \"#utility.yul\":15473:15604   */\n      tag_424\n      jump\t// in\n    tag_534:\n        /* \"#utility.yul\":15465:15604   */\n      swap1\n      pop\n        /* \"#utility.yul\":15192:15611   */\n      swap2\n      swap1\n      pop\n      jump\t// out\n        /* \"#utility.yul\":15617:16036   */\n    tag_261:\n        /* \"#utility.yul\":15783:15787   */\n      0x00\n        /* \"#utility.yul\":15821:15823   */\n      0x20\n        /* \"#utility.yul\":15810:15819   */\n      dup3\n        /* \"#utility.yul\":15806:15824   */\n      add\n        /* \"#utility.yul\":15798:15824   */\n      swap1\n      pop\n        /* \"#utility.yul\":15870:15879   */\n      dup2\n        /* \"#utility.yul\":15864:15868   */\n      dup2\n        /* \"#utility.yul\":15860:15880   */\n      sub\n        /* \"#utility.yul\":15856:15857   */\n      0x00\n        /* \"#utility.yul\":15845:15854   */\n      dup4\n        /* \"#utility.yul\":15841:15858   */\n      add\n        /* \"#utility.yul\":15834:15881   */\n      mstore\n        /* \"#utility.yul\":15898:16029   */\n      tag_536\n        /* \"#utility.yul\":16024:16028   */\n      dup2\n        /* \"#utility.yul\":15898:16029   */\n      tag_429\n      jump\t// in\n    tag_536:\n        /* \"#utility.yul\":15890:16029   */\n      swap1\n      pop\n        /* \"#utility.yul\":15617:16036   */\n      swap2\n      swap1\n      pop\n      jump\t// out\n        /* \"#utility.yul\":16042:16461   */\n    tag_201:\n        /* \"#utility.yul\":16208:16212   */\n      0x00\n        /* \"#utility.yul\":16246:16248   */\n      0x20\n        /* \"#utility.yul\":16235:16244   */\n      dup3\n        /* \"#utility.yul\":16231:16249   */\n      add\n        /* \"#utility.yul\":16223:16249   */\n      swap1\n      pop\n        /* \"#utility.yul\":16295:16304   */\n      dup2\n        /* \"#utility.yul\":16289:16293   */\n      dup2\n        /* \"#utility.yul\":16285:16305   */\n      sub\n        /* \"#utility.yul\":16281:16282   */\n      0x00\n        /* \"#utility.yul\":16270:16279   */\n      dup4\n        /* \"#utility.yul\":16266:16283   */\n      add\n        /* \"#utility.yul\":16259:16306   */\n      mstore\n        /* \"#utility.yul\":16323:16454   */\n      tag_538\n        /* \"#utility.yul\":16449:16453   */\n      dup2\n        /* \"#utility.yul\":16323:16454   */\n      tag_434\n      jump\t// in\n    tag_538:\n        /* \"#utility.yul\":16315:16454   */\n      swap1\n      pop\n        /* \"#utility.yul\":16042:16461   */\n      swap2\n      swap1\n      pop\n      jump\t// out\n        /* \"#utility.yul\":16467:16886   */\n    tag_291:\n        /* \"#utility.yul\":16633:16637   */\n      0x00\n        /* \"#utility.yul\":16671:16673   */\n      0x20\n        /* \"#utility.yul\":16660:16669   */\n      dup3\n        /* \"#utility.yul\":16656:16674   */\n      add\n        /* \"#utility.yul\":16648:16674   */\n      swap1\n      pop\n        /* \"#utility.yul\":16720:16729   */\n      dup2\n        /* \"#utility.yul\":16714:16718   */\n      dup2\n        /* \"#utility.yul\":16710:16730   */\n      sub\n        /* \"#utility.yul\":16706:16707   */\n      0x00\n        /* \"#utility.yul\":16695:16704   */\n      dup4\n        /* \"#utility.yul\":16691:16708   */\n      add\n        /* \"#utility.yul\":16684:16731   */\n      mstore\n        /* \"#utility.yul\":16748:16879   */\n      tag_540\n        /* \"#utility.yul\":16874:16878   */\n      dup2\n        /* \"#utility.yul\":16748:16879   */\n      tag_439\n      jump\t// in\n    tag_540:\n        /* \"#utility.yul\":16740:16879   */\n      swap1\n      pop\n        /* \"#utility.yul\":16467:16886   */\n      swap2\n      swap1\n      pop\n      jump\t// out\n        /* \"#utility.yul\":16892:17311   */\n    tag_251:\n        /* \"#utility.yul\":17058:17062   */\n      0x00\n        /* \"#utility.yul\":17096:17098   */\n      0x20\n        /* \"#utility.yul\":17085:17094   */\n      dup3\n        /* \"#utility.yul\":17081:17099   */\n      add\n        /* \"#utility.yul\":17073:17099   */\n      swap1\n      pop\n        /* \"#utility.yul\":17145:17154   */\n      dup2\n        /* \"#utility.yul\":17139:17143   */\n      dup2\n        /* \"#utility.yul\":17135:17155   */\n      sub\n        /* \"#utility.yul\":17131:17132   */\n      0x00\n        /* \"#utility.yul\":17120:17129   */\n      dup4\n        /* \"#utility.yul\":17116:17133   */\n      add\n        /* \"#utility.yul\":17109:17156   */\n      mstore\n        /* \"#utility.yul\":17173:17304   */\n      tag_542\n        /* \"#utility.yul\":17299:17303   */\n      dup2\n        /* \"#utility.yul\":17173:17304   */\n      tag_444\n      jump\t// in\n    tag_542:\n        /* \"#utility.yul\":17165:17304   */\n      swap1\n      pop\n        /* \"#utility.yul\":16892:17311   */\n      swap2\n      swap1\n      pop\n      jump\t// out\n        /* \"#utility.yul\":17317:17736   */\n    tag_110:\n        /* \"#utility.yul\":17483:17487   */\n      0x00\n        /* \"#utility.yul\":17521:17523   */\n      0x20\n        /* \"#utility.yul\":17510:17519   */\n      dup3\n        /* \"#utility.yul\":17506:17524   */\n      add\n        /* \"#utility.yul\":17498:17524   */\n      swap1\n      pop\n        /* \"#utility.yul\":17570:17579   */\n      dup2\n        /* \"#utility.yul\":17564:17568   */\n      dup2\n        /* \"#utility.yul\":17560:17580   */\n      sub\n        /* \"#utility.yul\":17556:17557   */\n      0x00\n        /* \"#utility.yul\":17545:17554   */\n      dup4\n        /* \"#utility.yul\":17541:17558   */\n      add\n        /* \"#utility.yul\":17534:17581   */\n      mstore\n        /* \"#utility.yul\":17598:17729   */\n      tag_544\n        /* \"#utility.yul\":17724:17728   */\n      dup2\n        /* \"#utility.yul\":17598:17729   */\n      tag_449\n      jump\t// in\n    tag_544:\n        /* \"#utility.yul\":17590:17729   */\n      swap1\n      pop\n        /* \"#utility.yul\":17317:17736   */\n      swap2\n      swap1\n      pop\n      jump\t// out\n        /* \"#utility.yul\":17742:18161   */\n    tag_155:\n        /* \"#utility.yul\":17908:17912   */\n      0x00\n        /* \"#utility.yul\":17946:17948   */\n      0x20\n        /* \"#utility.yul\":17935:17944   */\n      dup3\n        /* \"#utility.yul\":17931:17949   */\n      add\n        /* \"#utility.yul\":17923:17949   */\n      swap1\n      pop\n        /* \"#utility.yul\":17995:18004   */\n      dup2\n        /* \"#utility.yul\":17989:17993   */\n      dup2\n        /* \"#utility.yul\":17985:18005   */\n      sub\n        /* \"#utility.yul\":17981:17982   */\n      0x00\n        /* \"#utility.yul\":17970:17979   */\n      dup4\n        /* \"#utility.yul\":17966:17983   */\n      add\n        /* \"#utility.yul\":17959:18006   */\n      mstore\n        /* \"#utility.yul\":18023:18154   */\n      tag_546\n        /* \"#utility.yul\":18149:18153   */\n      dup2\n        /* \"#utility.yul\":18023:18154   */\n      tag_454\n      jump\t// in\n    tag_546:\n        /* \"#utility.yul\":18015:18154   */\n      swap1\n      pop\n        /* \"#utility.yul\":17742:18161   */\n      swap2\n      swap1\n      pop\n      jump\t// out\n        /* \"#utility.yul\":18167:18586   */\n    tag_208:\n        /* \"#utility.yul\":18333:18337   */\n      0x00\n        /* \"#utility.yul\":18371:18373   */\n      0x20\n        /* \"#utility.yul\":18360:18369   */\n      dup3\n        /* \"#utility.yul\":18356:18374   */\n      add\n        /* \"#utility.yul\":18348:18374   */\n      swap1\n      pop\n        /* \"#utility.yul\":18420:18429   */\n      dup2\n        /* \"#utility.yul\":18414:18418   */\n      dup2\n        /* \"#utility.yul\":18410:18430   */\n      sub\n        /* \"#utility.yul\":18406:18407   */\n      0x00\n        /* \"#utility.yul\":18395:18404   */\n      dup4\n        /* \"#utility.yul\":18391:18408   */\n      add\n        /* \"#utility.yul\":18384:18431   */\n      mstore\n        /* \"#utility.yul\":18448:18579   */\n      tag_548\n        /* \"#utility.yul\":18574:18578   */\n      dup2\n        /* \"#utility.yul\":18448:18579   */\n      tag_459\n      jump\t// in\n    tag_548:\n        /* \"#utility.yul\":18440:18579   */\n      swap1\n      pop\n        /* \"#utility.yul\":18167:18586   */\n      swap2\n      swap1\n      pop\n      jump\t// out\n        /* \"#utility.yul\":18592:19011   */\n    tag_90:\n        /* \"#utility.yul\":18758:18762   */\n      0x00\n        /* \"#utility.yul\":18796:18798   */\n      0x20\n        /* \"#utility.yul\":18785:18794   */\n      dup3\n        /* \"#utility.yul\":18781:18799   */\n      add\n        /* \"#utility.yul\":18773:18799   */\n      swap1\n      pop\n        /* \"#utility.yul\":18845:18854   */\n      dup2\n        /* \"#utility.yul\":18839:18843   */\n      dup2\n        /* \"#utility.yul\":18835:18855   */\n      sub\n        /* \"#utility.yul\":18831:18832   */\n      0x00\n        /* \"#utility.yul\":18820:18829   */\n      dup4\n        /* \"#utility.yul\":18816:18833   */\n      add\n        /* \"#utility.yul\":18809:18856   */\n      mstore\n        /* \"#utility.yul\":18873:19004   */\n      tag_550\n        /* \"#utility.yul\":18999:19003   */\n      dup2\n        /* \"#utility.yul\":18873:19004   */\n      tag_464\n      jump\t// in\n    tag_550:\n        /* \"#utility.yul\":18865:19004   */\n      swap1\n      pop\n        /* \"#utility.yul\":18592:19011   */\n      swap2\n      swap1\n      pop\n      jump\t// out\n        /* \"#utility.yul\":19017:19436   */\n    tag_93:\n        /* \"#utility.yul\":19183:19187   */\n      0x00\n        /* \"#utility.yul\":19221:19223   */\n      0x20\n        /* \"#utility.yul\":19210:19219   */\n      dup3\n        /* \"#utility.yul\":19206:19224   */\n      add\n        /* \"#utility.yul\":19198:19224   */\n      swap1\n      pop\n        /* \"#utility.yul\":19270:19279   */\n      dup2\n        /* \"#utility.yul\":19264:19268   */\n      dup2\n        /* \"#utility.yul\":19260:19280   */\n      sub\n        /* \"#utility.yul\":19256:19257   */\n      0x00\n        /* \"#utility.yul\":19245:19254   */\n      dup4\n        /* \"#utility.yul\":19241:19258   */\n      add\n        /* \"#utility.yul\":19234:19281   */\n      mstore\n        /* \"#utility.yul\":19298:19429   */\n      tag_552\n        /* \"#utility.yul\":19424:19428   */\n      dup2\n        /* \"#utility.yul\":19298:19429   */\n      tag_469\n      jump\t// in\n    tag_552:\n        /* \"#utility.yul\":19290:19429   */\n      swap1\n      pop\n        /* \"#utility.yul\":19017:19436   */\n      swap2\n      swap1\n      pop\n      jump\t// out\n        /* \"#utility.yul\":19442:19861   */\n    tag_152:\n        /* \"#utility.yul\":19608:19612   */\n      0x00\n        /* \"#utility.yul\":19646:19648   */\n      0x20\n        /* \"#utility.yul\":19635:19644   */\n      dup3\n        /* \"#utility.yul\":19631:19649   */\n      add\n        /* \"#utility.yul\":19623:19649   */\n      swap1\n      pop\n        /* \"#utility.yul\":19695:19704   */\n      dup2\n        /* \"#utility.yul\":19689:19693   */\n      dup2\n        /* \"#utility.yul\":19685:19705   */\n      sub\n        /* \"#utility.yul\":19681:19682   */\n      0x00\n        /* \"#utility.yul\":19670:19679   */\n      dup4\n        /* \"#utility.yul\":19666:19683   */\n      add\n        /* \"#utility.yul\":19659:19706   */\n      mstore\n        /* \"#utility.yul\":19723:19854   */\n      tag_554\n        /* \"#utility.yul\":19849:19853   */\n      dup2\n        /* \"#utility.yul\":19723:19854   */\n      tag_474\n      jump\t// in\n    tag_554:\n        /* \"#utility.yul\":19715:19854   */\n      swap1\n      pop\n        /* \"#utility.yul\":19442:19861   */\n      swap2\n      swap1\n      pop\n      jump\t// out\n        /* \"#utility.yul\":19867:20286   */\n    tag_296:\n        /* \"#utility.yul\":20033:20037   */\n      0x00\n        /* \"#utility.yul\":20071:20073   */\n      0x20\n        /* \"#utility.yul\":20060:20069   */\n      dup3\n        /* \"#utility.yul\":20056:20074   */\n      add\n        /* \"#utility.yul\":20048:20074   */\n      swap1\n      pop\n        /* \"#utility.yul\":20120:20129   */\n      dup2\n        /* \"#utility.yul\":20114:20118   */\n      dup2\n        /* \"#utility.yul\":20110:20130   */\n      sub\n        /* \"#utility.yul\":20106:20107   */\n      0x00\n        /* \"#utility.yul\":20095:20104   */\n      dup4\n        /* \"#utility.yul\":20091:20108   */\n      add\n        /* \"#utility.yul\":20084:20131   */\n      mstore\n        /* \"#utility.yul\":20148:20279   */\n      tag_556\n        /* \"#utility.yul\":20274:20278   */\n      dup2\n        /* \"#utility.yul\":20148:20279   */\n      tag_479\n      jump\t// in\n    tag_556:\n        /* \"#utility.yul\":20140:20279   */\n      swap1\n      pop\n        /* \"#utility.yul\":19867:20286   */\n      swap2\n      swap1\n      pop\n      jump\t// out\n        /* \"#utility.yul\":20292:20711   */\n    tag_219:\n        /* \"#utility.yul\":20458:20462   */\n      0x00\n        /* \"#utility.yul\":20496:20498   */\n      0x20\n        /* \"#utility.yul\":20485:20494   */\n      dup3\n        /* \"#utility.yul\":20481:20499   */\n      add\n        /* \"#utility.yul\":20473:20499   */\n      swap1\n      pop\n        /* \"#utility.yul\":20545:20554   */\n      dup2\n        /* \"#utility.yul\":20539:20543   */\n      dup2\n        /* \"#utility.yul\":20535:20555   */\n      sub\n        /* \"#utility.yul\":20531:20532   */\n      0x00\n        /* \"#utility.yul\":20520:20529   */\n      dup4\n        /* \"#utility.yul\":20516:20533   */\n      add\n        /* \"#utility.yul\":20509:20556   */\n      mstore\n        /* \"#utility.yul\":20573:20704   */\n      tag_558\n        /* \"#utility.yul\":20699:20703   */\n      dup2\n        /* \"#utility.yul\":20573:20704   */\n      tag_484\n      jump\t// in\n    tag_558:\n        /* \"#utility.yul\":20565:20704   */\n      swap1\n      pop\n        /* \"#utility.yul\":20292:20711   */\n      swap2\n      swap1\n      pop\n      jump\t// out\n        /* \"#utility.yul\":20717:21136   */\n    tag_284:\n        /* \"#utility.yul\":20883:20887   */\n      0x00\n        /* \"#utility.yul\":20921:20923   */\n      0x20\n        /* \"#utility.yul\":20910:20919   */\n      dup3\n        /* \"#utility.yul\":20906:20924   */\n      add\n        /* \"#utility.yul\":20898:20924   */\n      swap1\n      pop\n        /* \"#utility.yul\":20970:20979   */\n      dup2\n        /* \"#utility.yul\":20964:20968   */\n      dup2\n        /* \"#utility.yul\":20960:20980   */\n      sub\n        /* \"#utility.yul\":20956:20957   */\n      0x00\n        /* \"#utility.yul\":20945:20954   */\n      dup4\n        /* \"#utility.yul\":20941:20958   */\n      add\n        /* \"#utility.yul\":20934:20981   */\n      mstore\n        /* \"#utility.yul\":20998:21129   */\n      tag_560\n        /* \"#utility.yul\":21124:21128   */\n      dup2\n        /* \"#utility.yul\":20998:21129   */\n      tag_489\n      jump\t// in\n    tag_560:\n        /* \"#utility.yul\":20990:21129   */\n      swap1\n      pop\n        /* \"#utility.yul\":20717:21136   */\n      swap2\n      swap1\n      pop\n      jump\t// out\n        /* \"#utility.yul\":21142:21561   */\n    tag_148:\n        /* \"#utility.yul\":21308:21312   */\n      0x00\n        /* \"#utility.yul\":21346:21348   */\n      0x20\n        /* \"#utility.yul\":21335:21344   */\n      dup3\n        /* \"#utility.yul\":21331:21349   */\n      add\n        /* \"#utility.yul\":21323:21349   */\n      swap1\n      pop\n        /* \"#utility.yul\":21395:21404   */\n      dup2\n        /* \"#utility.yul\":21389:21393   */\n      dup2\n        /* \"#utility.yul\":21385:21405   */\n      sub\n        /* \"#utility.yul\":21381:21382   */\n      0x00\n        /* \"#utility.yul\":21370:21379   */\n      dup4\n        /* \"#utility.yul\":21366:21383   */\n      add\n        /* \"#utility.yul\":21359:21406   */\n      mstore\n        /* \"#utility.yul\":21423:21554   */\n      tag_562\n        /* \"#utility.yul\":21549:21553   */\n      dup2\n        /* \"#utility.yul\":21423:21554   */\n      tag_494\n      jump\t// in\n    tag_562:\n        /* \"#utility.yul\":21415:21554   */\n      swap1\n      pop\n        /* \"#utility.yul\":21142:21561   */\n      swap2\n      swap1\n      pop\n      jump\t// out\n        /* \"#utility.yul\":21567:21986   */\n    tag_194:\n        /* \"#utility.yul\":21733:21737   */\n      0x00\n        /* \"#utility.yul\":21771:21773   */\n      0x20\n        /* \"#utility.yul\":21760:21769   */\n      dup3\n        /* \"#utility.yul\":21756:21774   */\n      add\n        /* \"#utility.yul\":21748:21774   */\n      swap1\n      pop\n        /* \"#utility.yul\":21820:21829   */\n      dup2\n        /* \"#utility.yul\":21814:21818   */\n      dup2\n        /* \"#utility.yul\":21810:21830   */\n      sub\n        /* \"#utility.yul\":21806:21807   */\n      0x00\n        /* \"#utility.yul\":21795:21804   */\n      dup4\n        /* \"#utility.yul\":21791:21808   */\n      add\n        /* \"#utility.yul\":21784:21831   */\n      mstore\n        /* \"#utility.yul\":21848:21979   */\n      tag_564\n        /* \"#utility.yul\":21974:21978   */\n      dup2\n        /* \"#utility.yul\":21848:21979   */\n      tag_499\n      jump\t// in\n    tag_564:\n        /* \"#utility.yul\":21840:21979   */\n      swap1\n      pop\n        /* \"#utility.yul\":21567:21986   */\n      swap2\n      swap1\n      pop\n      jump\t// out\n        /* \"#utility.yul\":21992:22411   */\n    tag_239:\n        /* \"#utility.yul\":22158:22162   */\n      0x00\n        /* \"#utility.yul\":22196:22198   */\n      0x20\n        /* \"#utility.yul\":22185:22194   */\n      dup3\n        /* \"#utility.yul\":22181:22199   */\n      add\n        /* \"#utility.yul\":22173:22199   */\n      swap1\n      pop\n        /* \"#utility.yul\":22245:22254   */\n      dup2\n        /* \"#utility.yul\":22239:22243   */\n      dup2\n        /* \"#utility.yul\":22235:22255   */\n      sub\n        /* \"#utility.yul\":22231:22232   */\n      0x00\n        /* \"#utility.yul\":22220:22229   */\n      dup4\n        /* \"#utility.yul\":22216:22233   */\n      add\n        /* \"#utility.yul\":22209:22256   */\n      mstore\n        /* \"#utility.yul\":22273:22404   */\n      tag_566\n        /* \"#utility.yul\":22399:22403   */\n      dup2\n        /* \"#utility.yul\":22273:22404   */\n      tag_504\n      jump\t// in\n    tag_566:\n        /* \"#utility.yul\":22265:22404   */\n      swap1\n      pop\n        /* \"#utility.yul\":21992:22411   */\n      swap2\n      swap1\n      pop\n      jump\t// out\n        /* \"#utility.yul\":22417:22639   */\n    tag_58:\n        /* \"#utility.yul\":22510:22514   */\n      0x00\n        /* \"#utility.yul\":22548:22550   */\n      0x20\n        /* \"#utility.yul\":22537:22546   */\n      dup3\n        /* \"#utility.yul\":22533:22551   */\n      add\n        /* \"#utility.yul\":22525:22551   */\n      swap1\n      pop\n        /* \"#utility.yul\":22561:22632   */\n      tag_568\n        /* \"#utility.yul\":22629:22630   */\n      0x00\n        /* \"#utility.yul\":22618:22627   */\n      dup4\n        /* \"#utility.yul\":22614:22631   */\n      add\n        /* \"#utility.yul\":22605:22611   */\n      dup5\n        /* \"#utility.yul\":22561:22632   */\n      tag_512\n      jump\t// in\n    tag_568:\n        /* \"#utility.yul\":22417:22639   */\n      swap3\n      swap2\n      pop\n      pop\n      jump\t// out\n        /* \"#utility.yul\":22645:23349   */\n    tag_188:\n        /* \"#utility.yul\":22872:22876   */\n      0x00\n        /* \"#utility.yul\":22910:22913   */\n      0x80\n        /* \"#utility.yul\":22899:22908   */\n      dup3\n        /* \"#utility.yul\":22895:22914   */\n      add\n        /* \"#utility.yul\":22887:22914   */\n      swap1\n      pop\n        /* \"#utility.yul\":22924:22995   */\n      tag_570\n        /* \"#utility.yul\":22992:22993   */\n      0x00\n        /* \"#utility.yul\":22981:22990   */\n      dup4\n        /* \"#utility.yul\":22977:22994   */\n      add\n        /* \"#utility.yul\":22968:22974   */\n      dup8\n        /* \"#utility.yul\":22924:22995   */\n      tag_512\n      jump\t// in\n    tag_570:\n        /* \"#utility.yul\":23005:23077   */\n      tag_571\n        /* \"#utility.yul\":23073:23075   */\n      0x20\n        /* \"#utility.yul\":23062:23071   */\n      dup4\n        /* \"#utility.yul\":23058:23076   */\n      add\n        /* \"#utility.yul\":23049:23055   */\n      dup7\n        /* \"#utility.yul\":23005:23077   */\n      tag_512\n      jump\t// in\n    tag_571:\n        /* \"#utility.yul\":23087:23159   */\n      tag_572\n        /* \"#utility.yul\":23155:23157   */\n      0x40\n        /* \"#utility.yul\":23144:23153   */\n      dup4\n        /* \"#utility.yul\":23140:23158   */\n      add\n        /* \"#utility.yul\":23131:23137   */\n      dup6\n        /* \"#utility.yul\":23087:23159   */\n      tag_373\n      jump\t// in\n    tag_572:\n        /* \"#utility.yul\":23206:23215   */\n      dup2\n        /* \"#utility.yul\":23200:23204   */\n      dup2\n        /* \"#utility.yul\":23196:23216   */\n      sub\n        /* \"#utility.yul\":23191:23193   */\n      0x60\n        /* \"#utility.yul\":23180:23189   */\n      dup4\n        /* \"#utility.yul\":23176:23194   */\n      add\n        /* \"#utility.yul\":23169:23217   */\n      mstore\n        /* \"#utility.yul\":23234:23342   */\n      tag_573\n        /* \"#utility.yul\":23337:23341   */\n      dup2\n        /* \"#utility.yul\":23328:23334   */\n      dup5\n        /* \"#utility.yul\":23234:23342   */\n      tag_377\n      jump\t// in\n    tag_573:\n        /* \"#utility.yul\":23226:23342   */\n      swap1\n      pop\n        /* \"#utility.yul\":22645:23349   */\n      swap6\n      swap5\n      pop\n      pop\n      pop\n      pop\n      pop\n      jump\t// out\n        /* \"#utility.yul\":23355:23797   */\n    tag_73:\n        /* \"#utility.yul\":23504:23508   */\n      0x00\n        /* \"#utility.yul\":23542:23544   */\n      0x60\n        /* \"#utility.yul\":23531:23540   */\n      dup3\n        /* \"#utility.yul\":23527:23545   */\n      add\n        /* \"#utility.yul\":23519:23545   */\n      swap1\n      pop\n        /* \"#utility.yul\":23555:23626   */\n      tag_575\n        /* \"#utility.yul\":23623:23624   */\n      0x00\n        /* \"#utility.yul\":23612:23621   */\n      dup4\n        /* \"#utility.yul\":23608:23625   */\n      add\n        /* \"#utility.yul\":23599:23605   */\n      dup7\n        /* \"#utility.yul\":23555:23626   */\n      tag_512\n      jump\t// in\n    tag_575:\n        /* \"#utility.yul\":23636:23708   */\n      tag_576\n        /* \"#utility.yul\":23704:23706   */\n      0x20\n        /* \"#utility.yul\":23693:23702   */\n      dup4\n        /* \"#utility.yul\":23689:23707   */\n      add\n        /* \"#utility.yul\":23680:23686   */\n      dup6\n        /* \"#utility.yul\":23636:23708   */\n      tag_512\n      jump\t// in\n    tag_576:\n        /* \"#utility.yul\":23718:23790   */\n      tag_577\n        /* \"#utility.yul\":23786:23788   */\n      0x40\n        /* \"#utility.yul\":23775:23784   */\n      dup4\n        /* \"#utility.yul\":23771:23789   */\n      add\n        /* \"#utility.yul\":23762:23768   */\n      dup5\n        /* \"#utility.yul\":23718:23790   */\n      tag_512\n      jump\t// in\n    tag_577:\n        /* \"#utility.yul\":23355:23797   */\n      swap5\n      swap4\n      pop\n      pop\n      pop\n      pop\n      jump\t// out\n        /* \"#utility.yul\":23884:24016   */\n    tag_384:\n        /* \"#utility.yul\":23951:23955   */\n      0x00\n        /* \"#utility.yul\":23974:23977   */\n      dup2\n        /* \"#utility.yul\":23966:23977   */\n      swap1\n      pop\n        /* \"#utility.yul\":24004:24008   */\n      0x20\n        /* \"#utility.yul\":23999:24002   */\n      dup3\n        /* \"#utility.yul\":23995:24009   */\n      add\n        /* \"#utility.yul\":23987:24009   */\n      swap1\n      pop\n        /* \"#utility.yul\":23884:24016   */\n      swap2\n      swap1\n      pop\n      jump\t// out\n        /* \"#utility.yul\":24022:24136   */\n    tag_380:\n        /* \"#utility.yul\":24089:24095   */\n      0x00\n        /* \"#utility.yul\":24123:24128   */\n      dup2\n        /* \"#utility.yul\":24117:24129   */\n      mload\n        /* \"#utility.yul\":24107:24129   */\n      swap1\n      pop\n        /* \"#utility.yul\":24022:24136   */\n      swap2\n      swap1\n      pop\n      jump\t// out\n        /* \"#utility.yul\":24142:24240   */\n    tag_398:\n        /* \"#utility.yul\":24193:24199   */\n      0x00\n        /* \"#utility.yul\":24227:24232   */\n      dup2\n        /* \"#utility.yul\":24221:24233   */\n      mload\n        /* \"#utility.yul\":24211:24233   */\n      swap1\n      pop\n        /* \"#utility.yul\":24142:24240   */\n      swap2\n      swap1\n      pop\n      jump\t// out\n        /* \"#utility.yul\":24246:24345   */\n    tag_418:\n        /* \"#utility.yul\":24298:24304   */\n      0x00\n        /* \"#utility.yul\":24332:24337   */\n      dup2\n        /* \"#utility.yul\":24326:24338   */\n      mload\n        /* \"#utility.yul\":24316:24338   */\n      swap1\n      pop\n        /* \"#utility.yul\":24246:24345   */\n      swap2\n      swap1\n      pop\n      jump\t// out\n        /* \"#utility.yul\":24351:24464   */\n    tag_390:\n        /* \"#utility.yul\":24421:24425   */\n      0x00\n        /* \"#utility.yul\":24453:24457   */\n      0x20\n        /* \"#utility.yul\":24448:24451   */\n      dup3\n        /* \"#utility.yul\":24444:24458   */\n      add\n        /* \"#utility.yul\":24436:24458   */\n      swap1\n      pop\n        /* \"#utility.yul\":24351:24464   */\n      swap2\n      swap1\n      pop\n      jump\t// out\n        /* \"#utility.yul\":24470:24654   */\n    tag_382:\n        /* \"#utility.yul\":24569:24580   */\n      0x00\n        /* \"#utility.yul\":24603:24609   */\n      dup3\n        /* \"#utility.yul\":24598:24601   */\n      dup3\n        /* \"#utility.yul\":24591:24610   */\n      mstore\n        /* \"#utility.yul\":24643:24647   */\n      0x20\n        /* \"#utility.yul\":24638:24641   */\n      dup3\n        /* \"#utility.yul\":24634:24648   */\n      add\n        /* \"#utility.yul\":24619:24648   */\n      swap1\n      pop\n        /* \"#utility.yul\":24470:24654   */\n      swap3\n      swap2\n      pop\n      pop\n      jump\t// out\n        /* \"#utility.yul\":24660:24807   */\n    tag_400:\n        /* \"#utility.yul\":24761:24772   */\n      0x00\n        /* \"#utility.yul\":24798:24801   */\n      dup2\n        /* \"#utility.yul\":24783:24801   */\n      swap1\n      pop\n        /* \"#utility.yul\":24660:24807   */\n      swap3\n      swap2\n      pop\n      pop\n      jump\t// out\n        /* \"#utility.yul\":24813:24982   */\n    tag_420:\n        /* \"#utility.yul\":24897:24908   */\n      0x00\n        /* \"#utility.yul\":24931:24937   */\n      dup3\n        /* \"#utility.yul\":24926:24929   */\n      dup3\n        /* \"#utility.yul\":24919:24938   */\n      mstore\n        /* \"#utility.yul\":24971:24975   */\n      0x20\n        /* \"#utility.yul\":24966:24969   */\n      dup3\n        /* \"#utility.yul\":24962:24976   */\n      add\n        /* \"#utility.yul\":24947:24976   */\n      swap1\n      pop\n        /* \"#utility.yul\":24813:24982   */\n      swap3\n      swap2\n      pop\n      pop\n      jump\t// out\n        /* \"#utility.yul\":24988:25293   */\n    tag_168:\n        /* \"#utility.yul\":25028:25031   */\n      0x00\n        /* \"#utility.yul\":25047:25067   */\n      tag_589\n        /* \"#utility.yul\":25065:25066   */\n      dup3\n        /* \"#utility.yul\":25047:25067   */\n      tag_511\n      jump\t// in\n    tag_589:\n        /* \"#utility.yul\":25042:25067   */\n      swap2\n      pop\n        /* \"#utility.yul\":25081:25101   */\n      tag_590\n        /* \"#utility.yul\":25099:25100   */\n      dup4\n        /* \"#utility.yul\":25081:25101   */\n      tag_511\n      jump\t// in\n    tag_590:\n        /* \"#utility.yul\":25076:25101   */\n      swap3\n      pop\n        /* \"#utility.yul\":25235:25236   */\n      dup3\n        /* \"#utility.yul\":25167:25233   */\n      0xffffffffffffffffffffffffffffffffffffffffffffffffffffffffffffffff\n        /* \"#utility.yul\":25163:25237   */\n      sub\n        /* \"#utility.yul\":25160:25161   */\n      dup3\n        /* \"#utility.yul\":25157:25238   */\n      gt\n        /* \"#utility.yul\":25154:25261   */\n      iszero\n      tag_591\n      jumpi\n        /* \"#utility.yul\":25241:25259   */\n      tag_592\n      tag_593\n      jump\t// in\n    tag_592:\n        /* \"#utility.yul\":25154:25261   */\n    tag_591:\n        /* \"#utility.yul\":25285:25286   */\n      dup3\n        /* \"#utility.yul\":25282:25283   */\n      dup3\n        /* \"#utility.yul\":25278:25287   */\n      add\n        /* \"#utility.yul\":25271:25287   */\n      swap1\n      pop\n        /* \"#utility.yul\":24988:25293   */\n      swap3\n      swap2\n      pop\n      pop\n      jump\t// out\n        /* \"#utility.yul\":25299:25647   */\n    tag_165:\n        /* \"#utility.yul\":25339:25346   */\n      0x00\n        /* \"#utility.yul\":25362:25382   */\n      tag_595\n        /* \"#utility.yul\":25380:25381   */\n      dup3\n        /* \"#utility.yul\":25362:25382   */\n      tag_511\n      jump\t// in\n    tag_595:\n        /* \"#utility.yul\":25357:25382   */\n      swap2\n      pop\n        /* \"#utility.yul\":25396:25416   */\n      tag_596\n        /* \"#utility.yul\":25414:25415   */\n      dup4\n        /* \"#utility.yul\":25396:25416   */\n      tag_511\n      jump\t// in\n    tag_596:\n        /* \"#utility.yul\":25391:25416   */\n      swap3\n      pop\n        /* \"#utility.yul\":25584:25585   */\n      dup2\n        /* \"#utility.yul\":25516:25582   */\n      0xffffffffffffffffffffffffffffffffffffffffffffffffffffffffffffffff\n        /* \"#utility.yul\":25512:25586   */\n      div\n        /* \"#utility.yul\":25509:25510   */\n      dup4\n        /* \"#utility.yul\":25506:25587   */\n      gt\n        /* \"#utility.yul\":25501:25502   */\n      dup3\n        /* \"#utility.yul\":25494:25503   */\n      iszero\n        /* \"#utility.yul\":25487:25504   */\n      iszero\n        /* \"#utility.yul\":25483:25588   */\n      and\n        /* \"#utility.yul\":25480:25611   */\n      iszero\n      tag_597\n      jumpi\n        /* \"#utility.yul\":25591:25609   */\n      tag_598\n      tag_593\n      jump\t// in\n    tag_598:\n        /* \"#utility.yul\":25480:25611   */\n    tag_597:\n        /* \"#utility.yul\":25639:25640   */\n      dup3\n        /* \"#utility.yul\":25636:25637   */\n      dup3\n        /* \"#utility.yul\":25632:25641   */\n      mul\n        /* \"#utility.yul\":25621:25641   */\n      swap1\n      pop\n        /* \"#utility.yul\":25299:25647   */\n      swap3\n      swap2\n      pop\n      pop\n      jump\t// out\n        /* \"#utility.yul\":25653:25844   */\n    tag_157:\n        /* \"#utility.yul\":25693:25697   */\n      0x00\n        /* \"#utility.yul\":25713:25733   */\n      tag_600\n        /* \"#utility.yul\":25731:25732   */\n      dup3\n        /* \"#utility.yul\":25713:25733   */\n      tag_511\n      jump\t// in\n    tag_600:\n        /* \"#utility.yul\":25708:25733   */\n      swap2\n      pop\n        /* \"#utility.yul\":25747:25767   */\n      tag_601\n        /* \"#utility.yul\":25765:25766   */\n      dup4\n        /* \"#utility.yul\":25747:25767   */\n      tag_511\n      jump\t// in\n    tag_601:\n        /* \"#utility.yul\":25742:25767   */\n      swap3\n      pop\n        /* \"#utility.yul\":25786:25787   */\n      dup3\n        /* \"#utility.yul\":25783:25784   */\n      dup3\n        /* \"#utility.yul\":25780:25788   */\n      lt\n        /* \"#utility.yul\":25777:25811   */\n      iszero\n      tag_602\n      jumpi\n        /* \"#utility.yul\":25791:25809   */\n      tag_603\n      tag_593\n      jump\t// in\n    tag_603:\n        /* \"#utility.yul\":25777:25811   */\n    tag_602:\n        /* \"#utility.yul\":25836:25837   */\n      dup3\n        /* \"#utility.yul\":25833:25834   */\n      dup3\n        /* \"#utility.yul\":25829:25838   */\n      sub\n        /* \"#utility.yul\":25821:25838   */\n      swap1\n      pop\n        /* \"#utility.yul\":25653:25844   */\n      swap3\n      swap2\n      pop\n      pop\n      jump\t// out\n        /* \"#utility.yul\":25850:25946   */\n    tag_376:\n        /* \"#utility.yul\":25887:25894   */\n      0x00\n        /* \"#utility.yul\":25916:25940   */\n      tag_605\n        /* \"#utility.yul\":25934:25939   */\n      dup3\n        /* \"#utility.yul\":25916:25940   */\n      tag_606\n      jump\t// in\n    tag_605:\n        /* \"#utility.yul\":25905:25940   */\n      swap1\n      pop\n        /* \"#utility.yul\":25850:25946   */\n      swap2\n      swap1\n      pop\n      jump\t// out\n        /* \"#utility.yul\":25952:26042   */\n    tag_394:\n        /* \"#utility.yul\":25986:25993   */\n      0x00\n        /* \"#utility.yul\":26029:26034   */\n      dup2\n        /* \"#utility.yul\":26022:26035   */\n      iszero\n        /* \"#utility.yul\":26015:26036   */\n      iszero\n        /* \"#utility.yul\":26004:26036   */\n      swap1\n      pop\n        /* \"#utility.yul\":25952:26042   */\n      swap2\n      swap1\n      pop\n      jump\t// out\n        /* \"#utility.yul\":26048:26160   */\n    tag_608:\n        /* \"#utility.yul\":26101:26108   */\n      0x00\n        /* \"#utility.yul\":26130:26154   */\n      tag_610\n        /* \"#utility.yul\":26148:26153   */\n      dup3\n        /* \"#utility.yul\":26130:26154   */\n      tag_376\n      jump\t// in\n    tag_610:\n        /* \"#utility.yul\":26119:26154   */\n      swap1\n      pop\n        /* \"#utility.yul\":26048:26160   */\n      swap2\n      swap1\n      pop\n      jump\t// out\n        /* \"#utility.yul\":26166:26276   */\n    tag_611:\n        /* \"#utility.yul\":26217:26224   */\n      0x00\n        /* \"#utility.yul\":26246:26270   */\n      tag_613\n        /* \"#utility.yul\":26264:26269   */\n      dup3\n        /* \"#utility.yul\":26246:26270   */\n      tag_376\n      jump\t// in\n    tag_613:\n        /* \"#utility.yul\":26235:26270   */\n      swap1\n      pop\n        /* \"#utility.yul\":26166:26276   */\n      swap2\n      swap1\n      pop\n      jump\t// out\n        /* \"#utility.yul\":26282:26408   */\n    tag_606:\n        /* \"#utility.yul\":26319:26326   */\n      0x00\n        /* \"#utility.yul\":26359:26401   */\n      0xffffffffffffffffffffffffffffffffffffffff\n        /* \"#utility.yul\":26352:26357   */\n      dup3\n        /* \"#utility.yul\":26348:26402   */\n      and\n        /* \"#utility.yul\":26337:26402   */\n      swap1\n      pop\n        /* \"#utility.yul\":26282:26408   */\n      swap2\n      swap1\n      pop\n      jump\t// out\n        /* \"#utility.yul\":26414:26491   */\n    tag_511:\n        /* \"#utility.yul\":26451:26458   */\n      0x00\n        /* \"#utility.yul\":26480:26485   */\n      dup2\n        /* \"#utility.yul\":26469:26485   */\n      swap1\n      pop\n        /* \"#utility.yul\":26414:26491   */\n      swap2\n      swap1\n      pop\n      jump\t// out\n        /* \"#utility.yul\":26497:26583   */\n    tag_616:\n        /* \"#utility.yul\":26532:26539   */\n      0x00\n        /* \"#utility.yul\":26572:26576   */\n      0xff\n        /* \"#utility.yul\":26565:26570   */\n      dup3\n        /* \"#utility.yul\":26561:26577   */\n      and\n        /* \"#utility.yul\":26550:26577   */\n      swap1\n      pop\n        /* \"#utility.yul\":26497:26583   */\n      swap2\n      swap1\n      pop\n      jump\t// out\n        /* \"#utility.yul\":26589:26731   */\n    tag_406:\n        /* \"#utility.yul\":26655:26664   */\n      0x00\n        /* \"#utility.yul\":26688:26725   */\n      tag_619\n        /* \"#utility.yul\":26719:26724   */\n      dup3\n        /* \"#utility.yul\":26688:26725   */\n      tag_620\n      jump\t// in\n    tag_619:\n        /* \"#utility.yul\":26675:26725   */\n      swap1\n      pop\n        /* \"#utility.yul\":26589:26731   */\n      swap2\n      swap1\n      pop\n      jump\t// out\n        /* \"#utility.yul\":26737:26877   */\n    tag_410:\n        /* \"#utility.yul\":26801:26810   */\n      0x00\n        /* \"#utility.yul\":26834:26871   */\n      tag_622\n        /* \"#utility.yul\":26865:26870   */\n      dup3\n        /* \"#utility.yul\":26834:26871   */\n      tag_620\n      jump\t// in\n    tag_622:\n        /* \"#utility.yul\":26821:26871   */\n      swap1\n      pop\n        /* \"#utility.yul\":26737:26877   */\n      swap2\n      swap1\n      pop\n      jump\t// out\n        /* \"#utility.yul\":26883:27000   */\n    tag_414:\n        /* \"#utility.yul\":26939:26948   */\n      0x00\n        /* \"#utility.yul\":26972:26994   */\n      tag_624\n        /* \"#utility.yul\":26988:26993   */\n      dup3\n        /* \"#utility.yul\":26972:26994   */\n      tag_616\n      jump\t// in\n    tag_624:\n        /* \"#utility.yul\":26959:26994   */\n      swap1\n      pop\n        /* \"#utility.yul\":26883:27000   */\n      swap2\n      swap1\n      pop\n      jump\t// out\n        /* \"#utility.yul\":27006:27132   */\n    tag_620:\n        /* \"#utility.yul\":27056:27065   */\n      0x00\n        /* \"#utility.yul\":27089:27126   */\n      tag_626\n        /* \"#utility.yul\":27120:27125   */\n      dup3\n        /* \"#utility.yul\":27089:27126   */\n      tag_627\n      jump\t// in\n    tag_626:\n        /* \"#utility.yul\":27076:27126   */\n      swap1\n      pop\n        /* \"#utility.yul\":27006:27132   */\n      swap2\n      swap1\n      pop\n      jump\t// out\n        /* \"#utility.yul\":27138:27251   */\n    tag_627:\n        /* \"#utility.yul\":27188:27197   */\n      0x00\n        /* \"#utility.yul\":27221:27245   */\n      tag_629\n        /* \"#utility.yul\":27239:27244   */\n      dup3\n        /* \"#utility.yul\":27221:27245   */\n      tag_606\n      jump\t// in\n    tag_629:\n        /* \"#utility.yul\":27208:27245   */\n      swap1\n      pop\n        /* \"#utility.yul\":27138:27251   */\n      swap2\n      swap1\n      pop\n      jump\t// out\n        /* \"#utility.yul\":27257:27564   */\n    tag_402:\n        /* \"#utility.yul\":27325:27326   */\n      0x00\n        /* \"#utility.yul\":27335:27448   */\n    tag_631:\n        /* \"#utility.yul\":27349:27355   */\n      dup4\n        /* \"#utility.yul\":27346:27347   */\n      dup2\n        /* \"#utility.yul\":27343:27356   */\n      lt\n        /* \"#utility.yul\":27335:27448   */\n      iszero\n      tag_633\n      jumpi\n        /* \"#utility.yul\":27434:27435   */\n      dup1\n        /* \"#utility.yul\":27429:27432   */\n      dup3\n        /* \"#utility.yul\":27425:27436   */\n      add\n        /* \"#utility.yul\":27419:27437   */\n      mload\n        /* \"#utility.yul\":27415:27416   */\n      dup2\n        /* \"#utility.yul\":27410:27413   */\n      dup5\n        /* \"#utility.yul\":27406:27417   */\n      add\n        /* \"#utility.yul\":27399:27438   */\n      mstore\n        /* \"#utility.yul\":27371:27373   */\n      0x20\n        /* \"#utility.yul\":27368:27369   */\n      dup2\n        /* \"#utility.yul\":27364:27374   */\n      add\n        /* \"#utility.yul\":27359:27374   */\n      swap1\n      pop\n        /* \"#utility.yul\":27335:27448   */\n      jump(tag_631)\n    tag_633:\n        /* \"#utility.yul\":27466:27472   */\n      dup4\n        /* \"#utility.yul\":27463:27464   */\n      dup2\n        /* \"#utility.yul\":27460:27473   */\n      gt\n        /* \"#utility.yul\":27457:27558   */\n      iszero\n      tag_634\n      jumpi\n        /* \"#utility.yul\":27546:27547   */\n      0x00\n        /* \"#utility.yul\":27537:27543   */\n      dup5\n        /* \"#utility.yul\":27532:27535   */\n      dup5\n        /* \"#utility.yul\":27528:27544   */\n      add\n        /* \"#utility.yul\":27521:27548   */\n      mstore\n        /* \"#utility.yul\":27457:27558   */\n    tag_634:\n        /* \"#utility.yul\":27306:27564   */\n      pop\n        /* \"#utility.yul\":27257:27564   */\n      pop\n      pop\n      pop\n      jump\t// out\n        /* \"#utility.yul\":27570:27803   */\n    tag_186:\n        /* \"#utility.yul\":27609:27612   */\n      0x00\n        /* \"#utility.yul\":27632:27656   */\n      tag_636\n        /* \"#utility.yul\":27650:27655   */\n      dup3\n        /* \"#utility.yul\":27632:27656   */\n      tag_511\n      jump\t// in\n    tag_636:\n        /* \"#utility.yul\":27623:27656   */\n      swap2\n      pop\n        /* \"#utility.yul\":27678:27744   */\n      0xffffffffffffffffffffffffffffffffffffffffffffffffffffffffffffffff\n        /* \"#utility.yul\":27671:27676   */\n      dup3\n        /* \"#utility.yul\":27668:27745   */\n      eq\n        /* \"#utility.yul\":27665:27768   */\n      iszero\n      tag_637\n      jumpi\n        /* \"#utility.yul\":27748:27766   */\n      tag_638\n      tag_593\n      jump\t// in\n    tag_638:\n        /* \"#utility.yul\":27665:27768   */\n    tag_637:\n        /* \"#utility.yul\":27795:27796   */\n      0x01\n        /* \"#utility.yul\":27788:27793   */\n      dup3\n        /* \"#utility.yul\":27784:27797   */\n      add\n        /* \"#utility.yul\":27777:27797   */\n      swap1\n      pop\n        /* \"#utility.yul\":27570:27803   */\n      swap2\n      swap1\n      pop\n      jump\t// out\n        /* \"#utility.yul\":27809:27989   */\n    tag_593:\n        /* \"#utility.yul\":27857:27934   */\n      0x4e487b7100000000000000000000000000000000000000000000000000000000\n        /* \"#utility.yul\":27854:27855   */\n      0x00\n        /* \"#utility.yul\":27847:27935   */\n      mstore\n        /* \"#utility.yul\":27954:27958   */\n      0x11\n        /* \"#utility.yul\":27951:27952   */\n      0x04\n        /* \"#utility.yul\":27944:27959   */\n      mstore\n        /* \"#utility.yul\":27978:27982   */\n      0x24\n        /* \"#utility.yul\":27975:27976   */\n      0x00\n        /* \"#utility.yul\":27968:27983   */\n      revert\n        /* \"#utility.yul\":27995:28175   */\n    tag_184:\n        /* \"#utility.yul\":28043:28120   */\n      0x4e487b7100000000000000000000000000000000000000000000000000000000\n        /* \"#utility.yul\":28040:28041   */\n      0x00\n        /* \"#utility.yul\":28033:28121   */\n      mstore\n        /* \"#utility.yul\":28140:28144   */\n      0x32\n        /* \"#utility.yul\":28137:28138   */\n      0x04\n        /* \"#utility.yul\":28130:28145   */\n      mstore\n        /* \"#utility.yul\":28164:28168   */\n      0x24\n        /* \"#utility.yul\":28161:28162   */\n      0x00\n        /* \"#utility.yul\":28154:28169   */\n      revert\n        /* \"#utility.yul\":28181:28361   */\n    tag_171:\n        /* \"#utility.yul\":28229:28306   */\n      0x4e487b7100000000000000000000000000000000000000000000000000000000\n        /* \"#utility.yul\":28226:28227   */\n      0x00\n        /* \"#utility.yul\":28219:28307   */\n      mstore\n        /* \"#utility.yul\":28326:28330   */\n      0x41\n        /* \"#utility.yul\":28323:28324   */\n      0x04\n        /* \"#utility.yul\":28316:28331   */\n      mstore\n        /* \"#utility.yul\":28350:28354   */\n      0x24\n        /* \"#utility.yul\":28347:28348   */\n      0x00\n        /* \"#utility.yul\":28340:28355   */\n      revert\n        /* \"#utility.yul\":28490:28607   */\n    tag_339:\n        /* \"#utility.yul\":28599:28600   */\n      0x00\n        /* \"#utility.yul\":28596:28597   */\n      dup1\n        /* \"#utility.yul\":28589:28601   */\n      revert\n        /* \"#utility.yul\":28613:28715   */\n    tag_423:\n        /* \"#utility.yul\":28654:28660   */\n      0x00\n        /* \"#utility.yul\":28705:28707   */\n      0x1f\n        /* \"#utility.yul\":28701:28708   */\n      not\n        /* \"#utility.yul\":28696:28698   */\n      0x1f\n        /* \"#utility.yul\":28689:28694   */\n      dup4\n        /* \"#utility.yul\":28685:28699   */\n      add\n        /* \"#utility.yul\":28681:28709   */\n      and\n        /* \"#utility.yul\":28671:28709   */\n      swap1\n      pop\n        /* \"#utility.yul\":28613:28715   */\n      swap2\n      swap1\n      pop\n      jump\t// out\n        /* \"#utility.yul\":28721:28890   */\n    tag_428:\n        /* \"#utility.yul\":28861:28882   */\n      0x41736b68756e4e46543a20736f6c64206f757400000000000000000000000000\n        /* \"#utility.yul\":28857:28858   */\n      0x00\n        /* \"#utility.yul\":28849:28855   */\n      dup3\n        /* \"#utility.yul\":28845:28859   */\n      add\n        /* \"#utility.yul\":28838:28883   */\n      mstore\n        /* \"#utility.yul\":28721:28890   */\n      pop\n      jump\t// out\n        /* \"#utility.yul\":28896:29066   */\n    tag_433:\n        /* \"#utility.yul\":29036:29058   */\n      0x5061757361626c653a206e6f7420706175736564000000000000000000000000\n        /* \"#utility.yul\":29032:29033   */\n      0x00\n        /* \"#utility.yul\":29024:29030   */\n      dup3\n        /* \"#utility.yul\":29020:29034   */\n      add\n        /* \"#utility.yul\":29013:29059   */\n      mstore\n        /* \"#utility.yul\":28896:29066   */\n      pop\n      jump\t// out\n        /* \"#utility.yul\":29072:29297   */\n    tag_438:\n        /* \"#utility.yul\":29212:29246   */\n      0x4f776e61626c653a206e6577206f776e657220697320746865207a65726f2061\n        /* \"#utility.yul\":29208:29209   */\n      0x00\n        /* \"#utility.yul\":29200:29206   */\n      dup3\n        /* \"#utility.yul\":29196:29210   */\n      add\n        /* \"#utility.yul\":29189:29247   */\n      mstore\n        /* \"#utility.yul\":29281:29289   */\n      0x6464726573730000000000000000000000000000000000000000000000000000\n        /* \"#utility.yul\":29276:29278   */\n      0x20\n        /* \"#utility.yul\":29268:29274   */\n      dup3\n        /* \"#utility.yul\":29264:29279   */\n      add\n        /* \"#utility.yul\":29257:29290   */\n      mstore\n        /* \"#utility.yul\":29072:29297   */\n      pop\n      jump\t// out\n        /* \"#utility.yul\":29303:29528   */\n    tag_443:\n        /* \"#utility.yul\":29443:29477   */\n      0x416464726573733a20696e73756666696369656e742062616c616e636520666f\n        /* \"#utility.yul\":29439:29440   */\n      0x00\n        /* \"#utility.yul\":29431:29437   */\n      dup3\n        /* \"#utility.yul\":29427:29441   */\n      add\n        /* \"#utility.yul\":29420:29478   */\n      mstore\n        /* \"#utility.yul\":29512:29520   */\n      0x722063616c6c0000000000000000000000000000000000000000000000000000\n        /* \"#utility.yul\":29507:29509   */\n      0x20\n        /* \"#utility.yul\":29499:29505   */\n      dup3\n        /* \"#utility.yul\":29495:29510   */\n      add\n        /* \"#utility.yul\":29488:29521   */\n      mstore\n        /* \"#utility.yul\":29303:29528   */\n      pop\n      jump\t// out\n        /* \"#utility.yul\":29534:29700   */\n    tag_448:\n        /* \"#utility.yul\":29674:29692   */\n      0x5061757361626c653a2070617573656400000000000000000000000000000000\n        /* \"#utility.yul\":29670:29671   */\n      0x00\n        /* \"#utility.yul\":29662:29668   */\n      dup3\n        /* \"#utility.yul\":29658:29672   */\n      add\n        /* \"#utility.yul\":29651:29693   */\n      mstore\n        /* \"#utility.yul\":29534:29700   */\n      pop\n      jump\t// out\n        /* \"#utility.yul\":29706:29939   */\n    tag_453:\n        /* \"#utility.yul\":29846:29880   */\n      0x496e697469616c697a61626c653a20636f6e747261637420697320616c726561\n        /* \"#utility.yul\":29842:29843   */\n      0x00\n        /* \"#utility.yul\":29834:29840   */\n      dup3\n        /* \"#utility.yul\":29830:29844   */\n      add\n        /* \"#utility.yul\":29823:29881   */\n      mstore\n        /* \"#utility.yul\":29915:29931   */\n      0x647920696e697469616c697a6564000000000000000000000000000000000000\n        /* \"#utility.yul\":29910:29912   */\n      0x20\n        /* \"#utility.yul\":29902:29908   */\n      dup3\n        /* \"#utility.yul\":29898:29913   */\n      add\n        /* \"#utility.yul\":29891:29932   */\n      mstore\n        /* \"#utility.yul\":29706:29939   */\n      pop\n      jump\t// out\n        /* \"#utility.yul\":29945:30125   */\n    tag_458:\n        /* \"#utility.yul\":30085:30117   */\n      0x41736b68756e4e46543a205469657220646f6573206e6f742065786973740000\n        /* \"#utility.yul\":30081:30082   */\n      0x00\n        /* \"#utility.yul\":30073:30079   */\n      dup3\n        /* \"#utility.yul\":30069:30083   */\n      add\n        /* \"#utility.yul\":30062:30118   */\n      mstore\n        /* \"#utility.yul\":29945:30125   */\n      pop\n      jump\t// out\n        /* \"#utility.yul\":30131:30313   */\n    tag_463:\n        /* \"#utility.yul\":30271:30305   */\n      0x4f776e61626c653a2063616c6c6572206973206e6f7420746865206f776e6572\n        /* \"#utility.yul\":30267:30268   */\n      0x00\n        /* \"#utility.yul\":30259:30265   */\n      dup3\n        /* \"#utility.yul\":30255:30269   */\n      add\n        /* \"#utility.yul\":30248:30306   */\n      mstore\n        /* \"#utility.yul\":30131:30313   */\n      pop\n      jump\t// out\n        /* \"#utility.yul\":30319:30496   */\n    tag_468:\n        /* \"#utility.yul\":30459:30488   */\n      0x41736b68756e4e46543a20707269636520697320696e76616c69640000000000\n        /* \"#utility.yul\":30455:30456   */\n      0x00\n        /* \"#utility.yul\":30447:30453   */\n      dup3\n        /* \"#utility.yul\":30443:30457   */\n      add\n        /* \"#utility.yul\":30436:30489   */\n      mstore\n        /* \"#utility.yul\":30319:30496   */\n      pop\n      jump\t// out\n        /* \"#utility.yul\":30502:30723   */\n    tag_473:\n        /* \"#utility.yul\":30642:30676   */\n      0x41736b68756e4e46543a20746f74616c20737570706c7920697320696e76616c\n        /* \"#utility.yul\":30638:30639   */\n      0x00\n        /* \"#utility.yul\":30630:30636   */\n      dup3\n        /* \"#utility.yul\":30626:30640   */\n      add\n        /* \"#utility.yul\":30619:30677   */\n      mstore\n        /* \"#utility.yul\":30711:30715   */\n      0x6964000000000000000000000000000000000000000000000000000000000000\n        /* \"#utility.yul\":30706:30708   */\n      0x20\n        /* \"#utility.yul\":30698:30704   */\n      dup3\n        /* \"#utility.yul\":30694:30709   */\n      add\n        /* \"#utility.yul\":30687:30716   */\n      mstore\n        /* \"#utility.yul\":30502:30723   */\n      pop\n      jump\t// out\n        /* \"#utility.yul\":30729:30909   */\n    tag_478:\n        /* \"#utility.yul\":30869:30901   */\n      0x41736b68756e4e46543a207175616e7469747920697320696e76616c69640000\n        /* \"#utility.yul\":30865:30866   */\n      0x00\n        /* \"#utility.yul\":30857:30863   */\n      dup3\n        /* \"#utility.yul\":30853:30867   */\n      add\n        /* \"#utility.yul\":30846:30902   */\n      mstore\n        /* \"#utility.yul\":30729:30909   */\n      pop\n      jump\t// out\n        /* \"#utility.yul\":30915:31094   */\n    tag_483:\n        /* \"#utility.yul\":31055:31086   */\n      0x416464726573733a2063616c6c20746f206e6f6e2d636f6e7472616374000000\n        /* \"#utility.yul\":31051:31052   */\n      0x00\n        /* \"#utility.yul\":31043:31049   */\n      dup3\n        /* \"#utility.yul\":31039:31053   */\n      add\n        /* \"#utility.yul\":31032:31087   */\n      mstore\n        /* \"#utility.yul\":30915:31094   */\n      pop\n      jump\t// out\n        /* \"#utility.yul\":31100:31330   */\n    tag_488:\n        /* \"#utility.yul\":31240:31274   */\n      0x496e697469616c697a61626c653a20636f6e7472616374206973206e6f742069\n        /* \"#utility.yul\":31236:31237   */\n      0x00\n        /* \"#utility.yul\":31228:31234   */\n      dup3\n        /* \"#utility.yul\":31224:31238   */\n      add\n        /* \"#utility.yul\":31217:31275   */\n      mstore\n        /* \"#utility.yul\":31309:31322   */\n      0x6e697469616c697a696e67000000000000000000000000000000000000000000\n        /* \"#utility.yul\":31304:31306   */\n      0x20\n        /* \"#utility.yul\":31296:31302   */\n      dup3\n        /* \"#utility.yul\":31292:31307   */\n      add\n        /* \"#utility.yul\":31285:31323   */\n      mstore\n        /* \"#utility.yul\":31100:31330   */\n      pop\n      jump\t// out\n        /* \"#utility.yul\":31336:31565   */\n    tag_493:\n        /* \"#utility.yul\":31476:31510   */\n      0x5361666545524332303a204552433230206f7065726174696f6e20646964206e\n        /* \"#utility.yul\":31472:31473   */\n      0x00\n        /* \"#utility.yul\":31464:31470   */\n      dup3\n        /* \"#utility.yul\":31460:31474   */\n      add\n        /* \"#utility.yul\":31453:31511   */\n      mstore\n        /* \"#utility.yul\":31545:31557   */\n      0x6f74207375636365656400000000000000000000000000000000000000000000\n        /* \"#utility.yul\":31540:31542   */\n      0x20\n        /* \"#utility.yul\":31532:31538   */\n      dup3\n        /* \"#utility.yul\":31528:31543   */\n      add\n        /* \"#utility.yul\":31521:31558   */\n      mstore\n        /* \"#utility.yul\":31336:31565   */\n      pop\n      jump\t// out\n        /* \"#utility.yul\":31571:31752   */\n    tag_498:\n        /* \"#utility.yul\":31711:31744   */\n      0x5265656e7472616e637947756172643a207265656e7472616e742063616c6c00\n        /* \"#utility.yul\":31707:31708   */\n      0x00\n        /* \"#utility.yul\":31699:31705   */\n      dup3\n        /* \"#utility.yul\":31695:31709   */\n      add\n        /* \"#utility.yul\":31688:31745   */\n      mstore\n        /* \"#utility.yul\":31571:31752   */\n      pop\n      jump\t// out\n        /* \"#utility.yul\":31758:31937   */\n    tag_503:\n        /* \"#utility.yul\":31898:31929   */\n      0x41736b68756e4e46543a206164647265737320697320696e76616c6964000000\n        /* \"#utility.yul\":31894:31895   */\n      0x00\n        /* \"#utility.yul\":31886:31892   */\n      dup3\n        /* \"#utility.yul\":31882:31896   */\n      add\n        /* \"#utility.yul\":31875:31930   */\n      mstore\n        /* \"#utility.yul\":31758:31937   */\n      pop\n      jump\t// out\n        /* \"#utility.yul\":31943:32121   */\n    tag_508:\n        /* \"#utility.yul\":32083:32113   */\n      0x5369676e61626c653a206164647265737320697320696e76616c696400000000\n        /* \"#utility.yul\":32079:32080   */\n      0x00\n        /* \"#utility.yul\":32071:32077   */\n      dup3\n        /* \"#utility.yul\":32067:32081   */\n      add\n        /* \"#utility.yul\":32060:32114   */\n      mstore\n        /* \"#utility.yul\":31943:32121   */\n      pop\n      jump\t// out\n        /* \"#utility.yul\":32127:32249   */\n    tag_316:\n        /* \"#utility.yul\":32200:32224   */\n      tag_664\n        /* \"#utility.yul\":32218:32223   */\n      dup2\n        /* \"#utility.yul\":32200:32224   */\n      tag_376\n      jump\t// in\n    tag_664:\n        /* \"#utility.yul\":32193:32198   */\n      dup2\n        /* \"#utility.yul\":32190:32225   */\n      eq\n        /* \"#utility.yul\":32180:32243   */\n      tag_665\n      jumpi\n        /* \"#utility.yul\":32239:32240   */\n      0x00\n        /* \"#utility.yul\":32236:32237   */\n      dup1\n        /* \"#utility.yul\":32229:32241   */\n      revert\n        /* \"#utility.yul\":32180:32243   */\n    tag_665:\n        /* \"#utility.yul\":32127:32249   */\n      pop\n      jump\t// out\n        /* \"#utility.yul\":32255:32371   */\n    tag_320:\n        /* \"#utility.yul\":32325:32346   */\n      tag_667\n        /* \"#utility.yul\":32340:32345   */\n      dup2\n        /* \"#utility.yul\":32325:32346   */\n      tag_394\n      jump\t// in\n    tag_667:\n        /* \"#utility.yul\":32318:32323   */\n      dup2\n        /* \"#utility.yul\":32315:32347   */\n      eq\n        /* \"#utility.yul\":32305:32365   */\n      tag_668\n      jumpi\n        /* \"#utility.yul\":32361:32362   */\n      0x00\n        /* \"#utility.yul\":32358:32359   */\n      dup1\n        /* \"#utility.yul\":32351:32363   */\n      revert\n        /* \"#utility.yul\":32305:32365   */\n    tag_668:\n        /* \"#utility.yul\":32255:32371   */\n      pop\n      jump\t// out\n        /* \"#utility.yul\":32377:32531   */\n    tag_324:\n        /* \"#utility.yul\":32466:32506   */\n      tag_670\n        /* \"#utility.yul\":32500:32505   */\n      dup2\n        /* \"#utility.yul\":32466:32506   */\n      tag_608\n      jump\t// in\n    tag_670:\n        /* \"#utility.yul\":32459:32464   */\n      dup2\n        /* \"#utility.yul\":32456:32507   */\n      eq\n        /* \"#utility.yul\":32446:32525   */\n      tag_671\n      jumpi\n        /* \"#utility.yul\":32521:32522   */\n      0x00\n        /* \"#utility.yul\":32518:32519   */\n      dup1\n        /* \"#utility.yul\":32511:32523   */\n      revert\n        /* \"#utility.yul\":32446:32525   */\n    tag_671:\n        /* \"#utility.yul\":32377:32531   */\n      pop\n      jump\t// out\n        /* \"#utility.yul\":32537:32687   */\n    tag_328:\n        /* \"#utility.yul\":32624:32662   */\n      tag_673\n        /* \"#utility.yul\":32656:32661   */\n      dup2\n        /* \"#utility.yul\":32624:32662   */\n      tag_611\n      jump\t// in\n    tag_673:\n        /* \"#utility.yul\":32617:32622   */\n      dup2\n        /* \"#utility.yul\":32614:32663   */\n      eq\n        /* \"#utility.yul\":32604:32681   */\n      tag_674\n      jumpi\n        /* \"#utility.yul\":32677:32678   */\n      0x00\n        /* \"#utility.yul\":32674:32675   */\n      dup1\n        /* \"#utility.yul\":32667:32679   */\n      revert\n        /* \"#utility.yul\":32604:32681   */\n    tag_674:\n        /* \"#utility.yul\":32537:32687   */\n      pop\n      jump\t// out\n        /* \"#utility.yul\":32693:32815   */\n    tag_332:\n        /* \"#utility.yul\":32766:32790   */\n      tag_676\n        /* \"#utility.yul\":32784:32789   */\n      dup2\n        /* \"#utility.yul\":32766:32790   */\n      tag_511\n      jump\t// in\n    tag_676:\n        /* \"#utility.yul\":32759:32764   */\n      dup2\n        /* \"#utility.yul\":32756:32791   */\n      eq\n        /* \"#utility.yul\":32746:32809   */\n      tag_677\n      jumpi\n        /* \"#utility.yul\":32805:32806   */\n      0x00\n        /* \"#utility.yul\":32802:32803   */\n      dup1\n        /* \"#utility.yul\":32795:32807   */\n      revert\n        /* \"#utility.yul\":32746:32809   */\n    tag_677:\n        /* \"#utility.yul\":32693:32815   */\n      pop\n      jump\t// out\n\n    auxdata: 0xa26469706673582212200ca2dfe5fe99ef391c6c986df690e88a42beb370f4ae0ae69d3f0e52f9931c2564736f6c63430008070033\n}\n",
				"bytecode": {
					"linkReferences": {},
					"object": "608060405234801561001057600080fd5b50612660806100206000396000f3fe608060405234801561001057600080fd5b506004361061010b5760003560e01c8063715018a6116100a25780638da5cb5b116100715780638da5cb5b14610248578063c791543414610266578063d6febde814610298578063f0f44260146102b4578063f2fde38b146102d05761010b565b8063715018a6146101e65780637ecebe00146101f05780638456cb59146102205780638c7c9e0c1461022a5761010b565b8063485cc955116100de578063485cc955146101725780635c975abb1461018e57806361d027b3146101ac5780636c19e783146101ca5761010b565b806315ccaceb14610110578063238ac9331461012c5780633cba00e61461014a5780633f4ba83a14610168575b600080fd5b61012a60048036038101906101259190611735565b6102ec565b005b610134610400565b6040516101419190611b3b565b60405180910390f35b610152610426565b60405161015f9190611ba8565b60405180910390f35b61017061044c565b005b61018c6004803603810190610187919061165b565b61045e565b005b610196610687565b6040516101a39190611b8d565b60405180910390f35b6101b461069e565b6040516101c19190611b3b565b60405180910390f35b6101e460048036038101906101df9190611601565b6106c4565b005b6101ee6106d8565b005b61020a60048036038101906102059190611601565b6106ec565b6040516102179190611e3b565b60405180910390f35b610228610704565b005b610232610716565b60405161023f9190611bc3565b60405180910390f35b61025061073c565b60405161025d9190611b3b565b60405180910390f35b610280600480360381019061027b919061169b565b610766565b60405161028f93929190611ea2565b60405180910390f35b6102b260048036038101906102ad91906116f5565b610790565b005b6102ce60048036038101906102c99190611601565b610b22565b005b6102ea60048036038101906102e59190611601565b610c15565b005b6102f4610c99565b60008211610337576040517f08c379a000000000000000000000000000000000000000000000000000000000815260040161032e90611d1b565b60405180910390fd5b600060cd600085815260200190815260200160002090508060020154821015610395576040517f08c379a000000000000000000000000000000000000000000000000000000000815260040161038c90611d3b565b60405180910390fd5b828160000154146103aa578281600001819055505b818160010154146103bf578181600101819055505b7f7a3e11019e2d2a98001bf488f40a5a88fdc25dab512e1761aabaac47709e86818484846040516103f293929190611ea2565b60405180910390a150505050565b60c960009054906101000a900473ffffffffffffffffffffffffffffffffffffffff1681565b60cb60009054906101000a900473ffffffffffffffffffffffffffffffffffffffff1681565b610454610c99565b61045c610d17565b565b60008060019054906101000a900460ff1615905080801561048f5750600160008054906101000a900460ff1660ff16105b806104bc575061049e30610d7a565b1580156104bb5750600160008054906101000a900460ff1660ff16145b5b6104fb576040517f08c379a00000000000000000000000000000000000000000000000000000000081526004016104f290611cbb565b60405180910390fd5b60016000806101000a81548160ff021916908360ff1602179055508015610538576001600060016101000a81548160ff0219169083151502179055505b610540610d9d565b610548610df6565b610550610e4f565b8260ca60006101000a81548173ffffffffffffffffffffffffffffffffffffffff021916908373ffffffffffffffffffffffffffffffffffffffff1602179055508160cb60006101000a81548173ffffffffffffffffffffffffffffffffffffffff021916908373ffffffffffffffffffffffffffffffffffffffff16021790555060006105dc610ea8565b90508060cc60006101000a81548173ffffffffffffffffffffffffffffffffffffffff021916908373ffffffffffffffffffffffffffffffffffffffff16021790555061062881610eb0565b5080156106825760008060016101000a81548160ff0219169083151502179055507f7f26b83ff96e1f2b6a682f133852f6798a09c465da95921460cefb384740249860016040516106799190611bde565b60405180910390a15b505050565b6000606560009054906101000a900460ff16905090565b60cc60009054906101000a900473ffffffffffffffffffffffffffffffffffffffff1681565b6106cc610c99565b6106d581610eb0565b50565b6106e0610c99565b6106ea6000610f9b565b565b60ce6020528060005260406000206000915090505481565b61070c610c99565b610714611061565b565b60ca60009054906101000a900473ffffffffffffffffffffffffffffffffffffffff1681565b6000603360009054906101000a900473ffffffffffffffffffffffffffffffffffffffff16905090565b60cd6020528060005260406000206000915090508060000154908060010154908060020154905083565b6107986110c4565b600260975414156107de576040517f08c379a00000000000000000000000000000000000000000000000000000000081526004016107d590611ddb565b60405180910390fd5b6002609781905550600190506000811161082d576040517f08c379a000000000000000000000000000000000000000000000000000000000815260040161082490611d5b565b60405180910390fd5b600060cd60008481526020019081526020016000209050600081600001541161088b576040517f08c379a000000000000000000000000000000000000000000000000000000000815260040161088290611cdb565b60405180910390fd5b6000816002015482600101546108a19190611ff4565b9050600081116108e6576040517f08c379a00000000000000000000000000000000000000000000000000000000081526004016108dd90611c1b565b60405180910390fd5b808311156108f2578092505b60006108fc610ea8565b905061097e8160cc60009054906101000a900473ffffffffffffffffffffffffffffffffffffffff168686600001546109359190611f9a565b60ca60009054906101000a900473ffffffffffffffffffffffffffffffffffffffff1673ffffffffffffffffffffffffffffffffffffffff1661110e909392919063ffffffff16565b838360020160008282546109929190611f44565b9250508190555060008467ffffffffffffffff8111156109b5576109b46121d5565b5b6040519080825280602002602001820160405280156109e35781602001602082028036833780820191505090505b50905060005b85811015610ad05760cb60009054906101000a900473ffffffffffffffffffffffffffffffffffffffff1673ffffffffffffffffffffffffffffffffffffffff16636a627842846040518263ffffffff1660e01b8152600401610a4c9190611b3b565b602060405180830381600087803b158015610a6657600080fd5b505af1158015610a7a573d6000803e3d6000fd5b505050506040513d601f19601f82011682018060405250810190610a9e91906116c8565b828281518110610ab157610ab06121a6565b5b6020026020010181815250508080610ac89061212e565b9150506109e9565b507f09983ce9d4662d5f9eaf098d063603b1ed2392adcff8d7524663209645ea014b8685600001548484604051610b0a9493929190611e56565b60405180910390a15050505060016097819055505050565b610b2a610c99565b600073ffffffffffffffffffffffffffffffffffffffff168173ffffffffffffffffffffffffffffffffffffffff161415610b9a576040517f08c379a0000000000000000000000000000000000000000000000000000000008152600401610b9190611dfb565b60405180910390fd5b8060cc60006101000a81548173ffffffffffffffffffffffffffffffffffffffff021916908373ffffffffffffffffffffffffffffffffffffffff1602179055507f7dae230f18360d76a040c81f050aa14eb9d6dc7901b20fc5d855e2a20fe814d181604051610c0a9190611b3b565b60405180910390a150565b610c1d610c99565b600073ffffffffffffffffffffffffffffffffffffffff168173ffffffffffffffffffffffffffffffffffffffff161415610c8d576040517f08c379a0000000000000000000000000000000000000000000000000000000008152600401610c8490611c5b565b60405180910390fd5b610c9681610f9b565b50565b610ca1610ea8565b73ffffffffffffffffffffffffffffffffffffffff16610cbf61073c565b73ffffffffffffffffffffffffffffffffffffffff1614610d15576040517f08c379a0000000000000000000000000000000000000000000000000000000008152600401610d0c90611cfb565b60405180910390fd5b565b610d1f611197565b6000606560006101000a81548160ff0219169083151502179055507f5db9ee0a495bf2e6ff9c91a7834c1ba4fdd244a5e8aa4e537bd38aeae4b073aa610d63610ea8565b604051610d709190611b3b565b60405180910390a1565b6000808273ffffffffffffffffffffffffffffffffffffffff163b119050919050565b600060019054906101000a900460ff16610dec576040517f08c379a0000000000000000000000000000000000000000000000000000000008152600401610de390611d9b565b60405180910390fd5b610df46111e0565b565b600060019054906101000a900460ff16610e45576040517f08c379a0000000000000000000000000000000000000000000000000000000008152600401610e3c90611d9b565b60405180910390fd5b610e4d611241565b565b600060019054906101000a900460ff16610e9e576040517f08c379a0000000000000000000000000000000000000000000000000000000008152600401610e9590611d9b565b60405180910390fd5b610ea66112ad565b565b600033905090565b600073ffffffffffffffffffffffffffffffffffffffff168173ffffffffffffffffffffffffffffffffffffffff161415610f20576040517f08c379a0000000000000000000000000000000000000000000000000000000008152600401610f1790611e1b565b60405180910390fd5b8060c960006101000a81548173ffffffffffffffffffffffffffffffffffffffff021916908373ffffffffffffffffffffffffffffffffffffffff1602179055507f5553331329228fbd4123164423717a4a7539f6dfa1c3279a923b98fd681a6c7381604051610f909190611b3b565b60405180910390a150565b6000603360009054906101000a900473ffffffffffffffffffffffffffffffffffffffff16905081603360006101000a81548173ffffffffffffffffffffffffffffffffffffffff021916908373ffffffffffffffffffffffffffffffffffffffff1602179055508173ffffffffffffffffffffffffffffffffffffffff168173ffffffffffffffffffffffffffffffffffffffff167f8be0079c531659141344cd1fd0a4f28419497f9722a3daafe3b4186f6b6457e060405160405180910390a35050565b6110696110c4565b6001606560006101000a81548160ff0219169083151502179055507f62e78cea01bee320cd4e420270b5ea74000d11b0c9f74754ebdbfc544b05a2586110ad610ea8565b6040516110ba9190611b3b565b60405180910390a1565b6110cc610687565b1561110c576040517f08c379a000000000000000000000000000000000000000000000000000000000815260040161110390611c9b565b60405180910390fd5b565b611191846323b872dd60e01b85858560405160240161112f93929190611b56565b604051602081830303815290604052907bffffffffffffffffffffffffffffffffffffffffffffffffffffffff19166020820180517bffffffffffffffffffffffffffffffffffffffffffffffffffffffff8381831617835250505050611306565b50505050565b61119f610687565b6111de576040517f08c379a00000000000000000000000000000000000000000000000000000000081526004016111d590611c3b565b60405180910390fd5b565b600060019054906101000a900460ff1661122f576040517f08c379a000000000000000000000000000000000000000000000000000000000815260040161122690611d9b565b60405180910390fd5b61123f61123a610ea8565b610f9b565b565b600060019054906101000a900460ff16611290576040517f08c379a000000000000000000000000000000000000000000000000000000000815260040161128790611d9b565b60405180910390fd5b6000606560006101000a81548160ff021916908315150217905550565b600060019054906101000a900460ff166112fc576040517f08c379a00000000000000000000000000000000000000000000000000000000081526004016112f390611d9b565b60405180910390fd5b6001609781905550565b6000611368826040518060400160405280602081526020017f5361666545524332303a206c6f772d6c6576656c2063616c6c206661696c65648152508573ffffffffffffffffffffffffffffffffffffffff166113cd9092919063ffffffff16565b90506000815111156113c85780806020019051810190611388919061162e565b6113c7576040517f08c379a00000000000000000000000000000000000000000000000000000000081526004016113be90611dbb565b60405180910390fd5b5b505050565b60606113dc84846000856113e5565b90509392505050565b60608247101561142a576040517f08c379a000000000000000000000000000000000000000000000000000000000815260040161142190611c7b565b60405180910390fd5b611433856114f9565b611472576040517f08c379a000000000000000000000000000000000000000000000000000000000815260040161146990611d7b565b60405180910390fd5b6000808673ffffffffffffffffffffffffffffffffffffffff16858760405161149b9190611b24565b60006040518083038185875af1925050503d80600081146114d8576040519150601f19603f3d011682016040523d82523d6000602084013e6114dd565b606091505b50915091506114ed82828661151c565b92505050949350505050565b6000808273ffffffffffffffffffffffffffffffffffffffff163b119050919050565b6060831561152c5782905061157c565b60008351111561153f5782518084602001fd5b816040517f08c379a00000000000000000000000000000000000000000000000000000000081526004016115739190611bf9565b60405180910390fd5b9392505050565b600081359050611592816125b7565b92915050565b6000815190506115a7816125ce565b92915050565b6000813590506115bc816125e5565b92915050565b6000813590506115d1816125fc565b92915050565b6000813590506115e681612613565b92915050565b6000815190506115fb81612613565b92915050565b60006020828403121561161757611616612204565b5b600061162584828501611583565b91505092915050565b60006020828403121561164457611643612204565b5b600061165284828501611598565b91505092915050565b6000806040838503121561167257611671612204565b5b6000611680858286016115c2565b9250506020611691858286016115ad565b9150509250929050565b6000602082840312156116b1576116b0612204565b5b60006116bf848285016115d7565b91505092915050565b6000602082840312156116de576116dd612204565b5b60006116ec848285016115ec565b91505092915050565b6000806040838503121561170c5761170b612204565b5b600061171a858286016115d7565b925050602061172b858286016115d7565b9150509250929050565b60008060006060848603121561174e5761174d612204565b5b600061175c868287016115d7565b935050602061176d868287016115d7565b925050604061177e868287016115d7565b9150509250925092565b60006117948383611b06565b60208301905092915050565b6117a981612028565b82525050565b60006117ba82611ee9565b6117c48185611f17565b93506117cf83611ed9565b8060005b838110156118005781516117e78882611788565b97506117f283611f0a565b9250506001810190506117d3565b5085935050505092915050565b6118168161203a565b82525050565b600061182782611ef4565b6118318185611f28565b93506118418185602086016120fb565b80840191505092915050565b611856816120a1565b82525050565b611865816120b3565b82525050565b611874816120c5565b82525050565b600061188582611eff565b61188f8185611f33565b935061189f8185602086016120fb565b6118a881612209565b840191505092915050565b60006118c0601383611f33565b91506118cb8261221a565b602082019050919050565b60006118e3601483611f33565b91506118ee82612243565b602082019050919050565b6000611906602683611f33565b91506119118261226c565b604082019050919050565b6000611929602683611f33565b9150611934826122bb565b604082019050919050565b600061194c601083611f33565b91506119578261230a565b602082019050919050565b600061196f602e83611f33565b915061197a82612333565b604082019050919050565b6000611992601e83611f33565b915061199d82612382565b602082019050919050565b60006119b5602083611f33565b91506119c0826123ab565b602082019050919050565b60006119d8601b83611f33565b91506119e3826123d4565b602082019050919050565b60006119fb602283611f33565b9150611a06826123fd565b604082019050919050565b6000611a1e601e83611f33565b9150611a298261244c565b602082019050919050565b6000611a41601d83611f33565b9150611a4c82612475565b602082019050919050565b6000611a64602b83611f33565b9150611a6f8261249e565b604082019050919050565b6000611a87602a83611f33565b9150611a92826124ed565b604082019050919050565b6000611aaa601f83611f33565b9150611ab58261253c565b602082019050919050565b6000611acd601d83611f33565b9150611ad882612565565b602082019050919050565b6000611af0601c83611f33565b9150611afb8261258e565b602082019050919050565b611b0f8161208a565b82525050565b611b1e8161208a565b82525050565b6000611b30828461181c565b915081905092915050565b6000602082019050611b5060008301846117a0565b92915050565b6000606082019050611b6b60008301866117a0565b611b7860208301856117a0565b611b856040830184611b15565b949350505050565b6000602082019050611ba2600083018461180d565b92915050565b6000602082019050611bbd600083018461184d565b92915050565b6000602082019050611bd8600083018461185c565b92915050565b6000602082019050611bf3600083018461186b565b92915050565b60006020820190508181036000830152611c13818461187a565b905092915050565b60006020820190508181036000830152611c34816118b3565b9050919050565b60006020820190508181036000830152611c54816118d6565b9050919050565b60006020820190508181036000830152611c74816118f9565b9050919050565b60006020820190508181036000830152611c948161191c565b9050919050565b60006020820190508181036000830152611cb48161193f565b9050919050565b60006020820190508181036000830152611cd481611962565b9050919050565b60006020820190508181036000830152611cf481611985565b9050919050565b60006020820190508181036000830152611d14816119a8565b9050919050565b60006020820190508181036000830152611d34816119cb565b9050919050565b60006020820190508181036000830152611d54816119ee565b9050919050565b60006020820190508181036000830152611d7481611a11565b9050919050565b60006020820190508181036000830152611d9481611a34565b9050919050565b60006020820190508181036000830152611db481611a57565b9050919050565b60006020820190508181036000830152611dd481611a7a565b9050919050565b60006020820190508181036000830152611df481611a9d565b9050919050565b60006020820190508181036000830152611e1481611ac0565b9050919050565b60006020820190508181036000830152611e3481611ae3565b9050919050565b6000602082019050611e506000830184611b15565b92915050565b6000608082019050611e6b6000830187611b15565b611e786020830186611b15565b611e8560408301856117a0565b8181036060830152611e9781846117af565b905095945050505050565b6000606082019050611eb76000830186611b15565b611ec46020830185611b15565b611ed16040830184611b15565b949350505050565b6000819050602082019050919050565b600081519050919050565b600081519050919050565b600081519050919050565b6000602082019050919050565b600082825260208201905092915050565b600081905092915050565b600082825260208201905092915050565b6000611f4f8261208a565b9150611f5a8361208a565b9250827fffffffffffffffffffffffffffffffffffffffffffffffffffffffffffffffff03821115611f8f57611f8e612177565b5b828201905092915050565b6000611fa58261208a565b9150611fb08361208a565b9250817fffffffffffffffffffffffffffffffffffffffffffffffffffffffffffffffff0483118215151615611fe957611fe8612177565b5b828202905092915050565b6000611fff8261208a565b915061200a8361208a565b92508282101561201d5761201c612177565b5b828203905092915050565b60006120338261206a565b9050919050565b60008115159050919050565b600061205182612028565b9050919050565b600061206382612028565b9050919050565b600073ffffffffffffffffffffffffffffffffffffffff82169050919050565b6000819050919050565b600060ff82169050919050565b60006120ac826120d7565b9050919050565b60006120be826120d7565b9050919050565b60006120d082612094565b9050919050565b60006120e2826120e9565b9050919050565b60006120f48261206a565b9050919050565b60005b838110156121195780820151818401526020810190506120fe565b83811115612128576000848401525b50505050565b60006121398261208a565b91507fffffffffffffffffffffffffffffffffffffffffffffffffffffffffffffffff82141561216c5761216b612177565b5b600182019050919050565b7f4e487b7100000000000000000000000000000000000000000000000000000000600052601160045260246000fd5b7f4e487b7100000000000000000000000000000000000000000000000000000000600052603260045260246000fd5b7f4e487b7100000000000000000000000000000000000000000000000000000000600052604160045260246000fd5b600080fd5b6000601f19601f8301169050919050565b7f41736b68756e4e46543a20736f6c64206f757400000000000000000000000000600082015250565b7f5061757361626c653a206e6f7420706175736564000000000000000000000000600082015250565b7f4f776e61626c653a206e6577206f776e657220697320746865207a65726f206160008201527f6464726573730000000000000000000000000000000000000000000000000000602082015250565b7f416464726573733a20696e73756666696369656e742062616c616e636520666f60008201527f722063616c6c0000000000000000000000000000000000000000000000000000602082015250565b7f5061757361626c653a2070617573656400000000000000000000000000000000600082015250565b7f496e697469616c697a61626c653a20636f6e747261637420697320616c72656160008201527f647920696e697469616c697a6564000000000000000000000000000000000000602082015250565b7f41736b68756e4e46543a205469657220646f6573206e6f742065786973740000600082015250565b7f4f776e61626c653a2063616c6c6572206973206e6f7420746865206f776e6572600082015250565b7f41736b68756e4e46543a20707269636520697320696e76616c69640000000000600082015250565b7f41736b68756e4e46543a20746f74616c20737570706c7920697320696e76616c60008201527f6964000000000000000000000000000000000000000000000000000000000000602082015250565b7f41736b68756e4e46543a207175616e7469747920697320696e76616c69640000600082015250565b7f416464726573733a2063616c6c20746f206e6f6e2d636f6e7472616374000000600082015250565b7f496e697469616c697a61626c653a20636f6e7472616374206973206e6f74206960008201527f6e697469616c697a696e67000000000000000000000000000000000000000000602082015250565b7f5361666545524332303a204552433230206f7065726174696f6e20646964206e60008201527f6f74207375636365656400000000000000000000000000000000000000000000602082015250565b7f5265656e7472616e637947756172643a207265656e7472616e742063616c6c00600082015250565b7f41736b68756e4e46543a206164647265737320697320696e76616c6964000000600082015250565b7f5369676e61626c653a206164647265737320697320696e76616c696400000000600082015250565b6125c081612028565b81146125cb57600080fd5b50565b6125d78161203a565b81146125e257600080fd5b50565b6125ee81612046565b81146125f957600080fd5b50565b61260581612058565b811461261057600080fd5b50565b61261c8161208a565b811461262757600080fd5b5056fea26469706673582212200ca2dfe5fe99ef391c6c986df690e88a42beb370f4ae0ae69d3f0e52f9931c2564736f6c63430008070033",
					"opcodes": "PUSH1 0x80 PUSH1 0x40 MSTORE CALLVALUE DUP1 ISZERO PUSH2 0x10 JUMPI PUSH1 0x0 DUP1 REVERT JUMPDEST POP PUSH2 0x2660 DUP1 PUSH2 0x20 PUSH1 0x0 CODECOPY PUSH1 0x0 RETURN INVALID PUSH1 0x80 PUSH1 0x40 MSTORE CALLVALUE DUP1 ISZERO PUSH2 0x10 JUMPI PUSH1 0x0 DUP1 REVERT JUMPDEST POP PUSH1 0x4 CALLDATASIZE LT PUSH2 0x10B JUMPI PUSH1 0x0 CALLDATALOAD PUSH1 0xE0 SHR DUP1 PUSH4 0x715018A6 GT PUSH2 0xA2 JUMPI DUP1 PUSH4 0x8DA5CB5B GT PUSH2 0x71 JUMPI DUP1 PUSH4 0x8DA5CB5B EQ PUSH2 0x248 JUMPI DUP1 PUSH4 0xC7915434 EQ PUSH2 0x266 JUMPI DUP1 PUSH4 0xD6FEBDE8 EQ PUSH2 0x298 JUMPI DUP1 PUSH4 0xF0F44260 EQ PUSH2 0x2B4 JUMPI DUP1 PUSH4 0xF2FDE38B EQ PUSH2 0x2D0 JUMPI PUSH2 0x10B JUMP JUMPDEST DUP1 PUSH4 0x715018A6 EQ PUSH2 0x1E6 JUMPI DUP1 PUSH4 0x7ECEBE00 EQ PUSH2 0x1F0 JUMPI DUP1 PUSH4 0x8456CB59 EQ PUSH2 0x220 JUMPI DUP1 PUSH4 0x8C7C9E0C EQ PUSH2 0x22A JUMPI PUSH2 0x10B JUMP JUMPDEST DUP1 PUSH4 0x485CC955 GT PUSH2 0xDE JUMPI DUP1 PUSH4 0x485CC955 EQ PUSH2 0x172 JUMPI DUP1 PUSH4 0x5C975ABB EQ PUSH2 0x18E JUMPI DUP1 PUSH4 0x61D027B3 EQ PUSH2 0x1AC JUMPI DUP1 PUSH4 0x6C19E783 EQ PUSH2 0x1CA JUMPI PUSH2 0x10B JUMP JUMPDEST DUP1 PUSH4 0x15CCACEB EQ PUSH2 0x110 JUMPI DUP1 PUSH4 0x238AC933 EQ PUSH2 0x12C JUMPI DUP1 PUSH4 0x3CBA00E6 EQ PUSH2 0x14A JUMPI DUP1 PUSH4 0x3F4BA83A EQ PUSH2 0x168 JUMPI JUMPDEST PUSH1 0x0 DUP1 REVERT JUMPDEST PUSH2 0x12A PUSH1 0x4 DUP1 CALLDATASIZE SUB DUP2 ADD SWAP1 PUSH2 0x125 SWAP2 SWAP1 PUSH2 0x1735 JUMP JUMPDEST PUSH2 0x2EC JUMP JUMPDEST STOP JUMPDEST PUSH2 0x134 PUSH2 0x400 JUMP JUMPDEST PUSH1 0x40 MLOAD PUSH2 0x141 SWAP2 SWAP1 PUSH2 0x1B3B JUMP JUMPDEST PUSH1 0x40 MLOAD DUP1 SWAP2 SUB SWAP1 RETURN JUMPDEST PUSH2 0x152 PUSH2 0x426 JUMP JUMPDEST PUSH1 0x40 MLOAD PUSH2 0x15F SWAP2 SWAP1 PUSH2 0x1BA8 JUMP JUMPDEST PUSH1 0x40 MLOAD DUP1 SWAP2 SUB SWAP1 RETURN JUMPDEST PUSH2 0x170 PUSH2 0x44C JUMP JUMPDEST STOP JUMPDEST PUSH2 0x18C PUSH1 0x4 DUP1 CALLDATASIZE SUB DUP2 ADD SWAP1 PUSH2 0x187 SWAP2 SWAP1 PUSH2 0x165B JUMP JUMPDEST PUSH2 0x45E JUMP JUMPDEST STOP JUMPDEST PUSH2 0x196 PUSH2 0x687 JUMP JUMPDEST PUSH1 0x40 MLOAD PUSH2 0x1A3 SWAP2 SWAP1 PUSH2 0x1B8D JUMP JUMPDEST PUSH1 0x40 MLOAD DUP1 SWAP2 SUB SWAP1 RETURN JUMPDEST PUSH2 0x1B4 PUSH2 0x69E JUMP JUMPDEST PUSH1 0x40 MLOAD PUSH2 0x1C1 SWAP2 SWAP1 PUSH2 0x1B3B JUMP JUMPDEST PUSH1 0x40 MLOAD DUP1 SWAP2 SUB SWAP1 RETURN JUMPDEST PUSH2 0x1E4 PUSH1 0x4 DUP1 CALLDATASIZE SUB DUP2 ADD SWAP1 PUSH2 0x1DF SWAP2 SWAP1 PUSH2 0x1601 JUMP JUMPDEST PUSH2 0x6C4 JUMP JUMPDEST STOP JUMPDEST PUSH2 0x1EE PUSH2 0x6D8 JUMP JUMPDEST STOP JUMPDEST PUSH2 0x20A PUSH1 0x4 DUP1 CALLDATASIZE SUB DUP2 ADD SWAP1 PUSH2 0x205 SWAP2 SWAP1 PUSH2 0x1601 JUMP JUMPDEST PUSH2 0x6EC JUMP JUMPDEST PUSH1 0x40 MLOAD PUSH2 0x217 SWAP2 SWAP1 PUSH2 0x1E3B JUMP JUMPDEST PUSH1 0x40 MLOAD DUP1 SWAP2 SUB SWAP1 RETURN JUMPDEST PUSH2 0x228 PUSH2 0x704 JUMP JUMPDEST STOP JUMPDEST PUSH2 0x232 PUSH2 0x716 JUMP JUMPDEST PUSH1 0x40 MLOAD PUSH2 0x23F SWAP2 SWAP1 PUSH2 0x1BC3 JUMP JUMPDEST PUSH1 0x40 MLOAD DUP1 SWAP2 SUB SWAP1 RETURN JUMPDEST PUSH2 0x250 PUSH2 0x73C JUMP JUMPDEST PUSH1 0x40 MLOAD PUSH2 0x25D SWAP2 SWAP1 PUSH2 0x1B3B JUMP JUMPDEST PUSH1 0x40 MLOAD DUP1 SWAP2 SUB SWAP1 RETURN JUMPDEST PUSH2 0x280 PUSH1 0x4 DUP1 CALLDATASIZE SUB DUP2 ADD SWAP1 PUSH2 0x27B SWAP2 SWAP1 PUSH2 0x169B JUMP JUMPDEST PUSH2 0x766 JUMP JUMPDEST PUSH1 0x40 MLOAD PUSH2 0x28F SWAP4 SWAP3 SWAP2 SWAP1 PUSH2 0x1EA2 JUMP JUMPDEST PUSH1 0x40 MLOAD DUP1 SWAP2 SUB SWAP1 RETURN JUMPDEST PUSH2 0x2B2 PUSH1 0x4 DUP1 CALLDATASIZE SUB DUP2 ADD SWAP1 PUSH2 0x2AD SWAP2 SWAP1 PUSH2 0x16F5 JUMP JUMPDEST PUSH2 0x790 JUMP JUMPDEST STOP JUMPDEST PUSH2 0x2CE PUSH1 0x4 DUP1 CALLDATASIZE SUB DUP2 ADD SWAP1 PUSH2 0x2C9 SWAP2 SWAP1 PUSH2 0x1601 JUMP JUMPDEST PUSH2 0xB22 JUMP JUMPDEST STOP JUMPDEST PUSH2 0x2EA PUSH1 0x4 DUP1 CALLDATASIZE SUB DUP2 ADD SWAP1 PUSH2 0x2E5 SWAP2 SWAP1 PUSH2 0x1601 JUMP JUMPDEST PUSH2 0xC15 JUMP JUMPDEST STOP JUMPDEST PUSH2 0x2F4 PUSH2 0xC99 JUMP JUMPDEST PUSH1 0x0 DUP3 GT PUSH2 0x337 JUMPI PUSH1 0x40 MLOAD PUSH32 0x8C379A000000000000000000000000000000000000000000000000000000000 DUP2 MSTORE PUSH1 0x4 ADD PUSH2 0x32E SWAP1 PUSH2 0x1D1B JUMP JUMPDEST PUSH1 0x40 MLOAD DUP1 SWAP2 SUB SWAP1 REVERT JUMPDEST PUSH1 0x0 PUSH1 0xCD PUSH1 0x0 DUP6 DUP2 MSTORE PUSH1 0x20 ADD SWAP1 DUP2 MSTORE PUSH1 0x20 ADD PUSH1 0x0 KECCAK256 SWAP1 POP DUP1 PUSH1 0x2 ADD SLOAD DUP3 LT ISZERO PUSH2 0x395 JUMPI PUSH1 0x40 MLOAD PUSH32 0x8C379A000000000000000000000000000000000000000000000000000000000 DUP2 MSTORE PUSH1 0x4 ADD PUSH2 0x38C SWAP1 PUSH2 0x1D3B JUMP JUMPDEST PUSH1 0x40 MLOAD DUP1 SWAP2 SUB SWAP1 REVERT JUMPDEST DUP3 DUP2 PUSH1 0x0 ADD SLOAD EQ PUSH2 0x3AA JUMPI DUP3 DUP2 PUSH1 0x0 ADD DUP2 SWAP1 SSTORE POP JUMPDEST DUP2 DUP2 PUSH1 0x1 ADD SLOAD EQ PUSH2 0x3BF JUMPI DUP2 DUP2 PUSH1 0x1 ADD DUP2 SWAP1 SSTORE POP JUMPDEST PUSH32 0x7A3E11019E2D2A98001BF488F40A5A88FDC25DAB512E1761AABAAC47709E8681 DUP5 DUP5 DUP5 PUSH1 0x40 MLOAD PUSH2 0x3F2 SWAP4 SWAP3 SWAP2 SWAP1 PUSH2 0x1EA2 JUMP JUMPDEST PUSH1 0x40 MLOAD DUP1 SWAP2 SUB SWAP1 LOG1 POP POP POP POP JUMP JUMPDEST PUSH1 0xC9 PUSH1 0x0 SWAP1 SLOAD SWAP1 PUSH2 0x100 EXP SWAP1 DIV PUSH20 0xFFFFFFFFFFFFFFFFFFFFFFFFFFFFFFFFFFFFFFFF AND DUP2 JUMP JUMPDEST PUSH1 0xCB PUSH1 0x0 SWAP1 SLOAD SWAP1 PUSH2 0x100 EXP SWAP1 DIV PUSH20 0xFFFFFFFFFFFFFFFFFFFFFFFFFFFFFFFFFFFFFFFF AND DUP2 JUMP JUMPDEST PUSH2 0x454 PUSH2 0xC99 JUMP JUMPDEST PUSH2 0x45C PUSH2 0xD17 JUMP JUMPDEST JUMP JUMPDEST PUSH1 0x0 DUP1 PUSH1 0x1 SWAP1 SLOAD SWAP1 PUSH2 0x100 EXP SWAP1 DIV PUSH1 0xFF AND ISZERO SWAP1 POP DUP1 DUP1 ISZERO PUSH2 0x48F JUMPI POP PUSH1 0x1 PUSH1 0x0 DUP1 SLOAD SWAP1 PUSH2 0x100 EXP SWAP1 DIV PUSH1 0xFF AND PUSH1 0xFF AND LT JUMPDEST DUP1 PUSH2 0x4BC JUMPI POP PUSH2 0x49E ADDRESS PUSH2 0xD7A JUMP JUMPDEST ISZERO DUP1 ISZERO PUSH2 0x4BB JUMPI POP PUSH1 0x1 PUSH1 0x0 DUP1 SLOAD SWAP1 PUSH2 0x100 EXP SWAP1 DIV PUSH1 0xFF AND PUSH1 0xFF AND EQ JUMPDEST JUMPDEST PUSH2 0x4FB JUMPI PUSH1 0x40 MLOAD PUSH32 0x8C379A000000000000000000000000000000000000000000000000000000000 DUP2 MSTORE PUSH1 0x4 ADD PUSH2 0x4F2 SWAP1 PUSH2 0x1CBB JUMP JUMPDEST PUSH1 0x40 MLOAD DUP1 SWAP2 SUB SWAP1 REVERT JUMPDEST PUSH1 0x1 PUSH1 0x0 DUP1 PUSH2 0x100 EXP DUP2 SLOAD DUP2 PUSH1 0xFF MUL NOT AND SWAP1 DUP4 PUSH1 0xFF AND MUL OR SWAP1 SSTORE POP DUP1 ISZERO PUSH2 0x538 JUMPI PUSH1 0x1 PUSH1 0x0 PUSH1 0x1 PUSH2 0x100 EXP DUP2 SLOAD DUP2 PUSH1 0xFF MUL NOT AND SWAP1 DUP4 ISZERO ISZERO MUL OR SWAP1 SSTORE POP JUMPDEST PUSH2 0x540 PUSH2 0xD9D JUMP JUMPDEST PUSH2 0x548 PUSH2 0xDF6 JUMP JUMPDEST PUSH2 0x550 PUSH2 0xE4F JUMP JUMPDEST DUP3 PUSH1 0xCA PUSH1 0x0 PUSH2 0x100 EXP DUP2 SLOAD DUP2 PUSH20 0xFFFFFFFFFFFFFFFFFFFFFFFFFFFFFFFFFFFFFFFF MUL NOT AND SWAP1 DUP4 PUSH20 0xFFFFFFFFFFFFFFFFFFFFFFFFFFFFFFFFFFFFFFFF AND MUL OR SWAP1 SSTORE POP DUP2 PUSH1 0xCB PUSH1 0x0 PUSH2 0x100 EXP DUP2 SLOAD DUP2 PUSH20 0xFFFFFFFFFFFFFFFFFFFFFFFFFFFFFFFFFFFFFFFF MUL NOT AND SWAP1 DUP4 PUSH20 0xFFFFFFFFFFFFFFFFFFFFFFFFFFFFFFFFFFFFFFFF AND MUL OR SWAP1 SSTORE POP PUSH1 0x0 PUSH2 0x5DC PUSH2 0xEA8 JUMP JUMPDEST SWAP1 POP DUP1 PUSH1 0xCC PUSH1 0x0 PUSH2 0x100 EXP DUP2 SLOAD DUP2 PUSH20 0xFFFFFFFFFFFFFFFFFFFFFFFFFFFFFFFFFFFFFFFF MUL NOT AND SWAP1 DUP4 PUSH20 0xFFFFFFFFFFFFFFFFFFFFFFFFFFFFFFFFFFFFFFFF AND MUL OR SWAP1 SSTORE POP PUSH2 0x628 DUP2 PUSH2 0xEB0 JUMP JUMPDEST POP DUP1 ISZERO PUSH2 0x682 JUMPI PUSH1 0x0 DUP1 PUSH1 0x1 PUSH2 0x100 EXP DUP2 SLOAD DUP2 PUSH1 0xFF MUL NOT AND SWAP1 DUP4 ISZERO ISZERO MUL OR SWAP1 SSTORE POP PUSH32 0x7F26B83FF96E1F2B6A682F133852F6798A09C465DA95921460CEFB3847402498 PUSH1 0x1 PUSH1 0x40 MLOAD PUSH2 0x679 SWAP2 SWAP1 PUSH2 0x1BDE JUMP JUMPDEST PUSH1 0x40 MLOAD DUP1 SWAP2 SUB SWAP1 LOG1 JUMPDEST POP POP POP JUMP JUMPDEST PUSH1 0x0 PUSH1 0x65 PUSH1 0x0 SWAP1 SLOAD SWAP1 PUSH2 0x100 EXP SWAP1 DIV PUSH1 0xFF AND SWAP1 POP SWAP1 JUMP JUMPDEST PUSH1 0xCC PUSH1 0x0 SWAP1 SLOAD SWAP1 PUSH2 0x100 EXP SWAP1 DIV PUSH20 0xFFFFFFFFFFFFFFFFFFFFFFFFFFFFFFFFFFFFFFFF AND DUP2 JUMP JUMPDEST PUSH2 0x6CC PUSH2 0xC99 JUMP JUMPDEST PUSH2 0x6D5 DUP2 PUSH2 0xEB0 JUMP JUMPDEST POP JUMP JUMPDEST PUSH2 0x6E0 PUSH2 0xC99 JUMP JUMPDEST PUSH2 0x6EA PUSH1 0x0 PUSH2 0xF9B JUMP JUMPDEST JUMP JUMPDEST PUSH1 0xCE PUSH1 0x20 MSTORE DUP1 PUSH1 0x0 MSTORE PUSH1 0x40 PUSH1 0x0 KECCAK256 PUSH1 0x0 SWAP2 POP SWAP1 POP SLOAD DUP2 JUMP JUMPDEST PUSH2 0x70C PUSH2 0xC99 JUMP JUMPDEST PUSH2 0x714 PUSH2 0x1061 JUMP JUMPDEST JUMP JUMPDEST PUSH1 0xCA PUSH1 0x0 SWAP1 SLOAD SWAP1 PUSH2 0x100 EXP SWAP1 DIV PUSH20 0xFFFFFFFFFFFFFFFFFFFFFFFFFFFFFFFFFFFFFFFF AND DUP2 JUMP JUMPDEST PUSH1 0x0 PUSH1 0x33 PUSH1 0x0 SWAP1 SLOAD SWAP1 PUSH2 0x100 EXP SWAP1 DIV PUSH20 0xFFFFFFFFFFFFFFFFFFFFFFFFFFFFFFFFFFFFFFFF AND SWAP1 POP SWAP1 JUMP JUMPDEST PUSH1 0xCD PUSH1 0x20 MSTORE DUP1 PUSH1 0x0 MSTORE PUSH1 0x40 PUSH1 0x0 KECCAK256 PUSH1 0x0 SWAP2 POP SWAP1 POP DUP1 PUSH1 0x0 ADD SLOAD SWAP1 DUP1 PUSH1 0x1 ADD SLOAD SWAP1 DUP1 PUSH1 0x2 ADD SLOAD SWAP1 POP DUP4 JUMP JUMPDEST PUSH2 0x798 PUSH2 0x10C4 JUMP JUMPDEST PUSH1 0x2 PUSH1 0x97 SLOAD EQ ISZERO PUSH2 0x7DE JUMPI PUSH1 0x40 MLOAD PUSH32 0x8C379A000000000000000000000000000000000000000000000000000000000 DUP2 MSTORE PUSH1 0x4 ADD PUSH2 0x7D5 SWAP1 PUSH2 0x1DDB JUMP JUMPDEST PUSH1 0x40 MLOAD DUP1 SWAP2 SUB SWAP1 REVERT JUMPDEST PUSH1 0x2 PUSH1 0x97 DUP2 SWAP1 SSTORE POP PUSH1 0x1 SWAP1 POP PUSH1 0x0 DUP2 GT PUSH2 0x82D JUMPI PUSH1 0x40 MLOAD PUSH32 0x8C379A000000000000000000000000000000000000000000000000000000000 DUP2 MSTORE PUSH1 0x4 ADD PUSH2 0x824 SWAP1 PUSH2 0x1D5B JUMP JUMPDEST PUSH1 0x40 MLOAD DUP1 SWAP2 SUB SWAP1 REVERT JUMPDEST PUSH1 0x0 PUSH1 0xCD PUSH1 0x0 DUP5 DUP2 MSTORE PUSH1 0x20 ADD SWAP1 DUP2 MSTORE PUSH1 0x20 ADD PUSH1 0x0 KECCAK256 SWAP1 POP PUSH1 0x0 DUP2 PUSH1 0x0 ADD SLOAD GT PUSH2 0x88B JUMPI PUSH1 0x40 MLOAD PUSH32 0x8C379A000000000000000000000000000000000000000000000000000000000 DUP2 MSTORE PUSH1 0x4 ADD PUSH2 0x882 SWAP1 PUSH2 0x1CDB JUMP JUMPDEST PUSH1 0x40 MLOAD DUP1 SWAP2 SUB SWAP1 REVERT JUMPDEST PUSH1 0x0 DUP2 PUSH1 0x2 ADD SLOAD DUP3 PUSH1 0x1 ADD SLOAD PUSH2 0x8A1 SWAP2 SWAP1 PUSH2 0x1FF4 JUMP JUMPDEST SWAP1 POP PUSH1 0x0 DUP2 GT PUSH2 0x8E6 JUMPI PUSH1 0x40 MLOAD PUSH32 0x8C379A000000000000000000000000000000000000000000000000000000000 DUP2 MSTORE PUSH1 0x4 ADD PUSH2 0x8DD SWAP1 PUSH2 0x1C1B JUMP JUMPDEST PUSH1 0x40 MLOAD DUP1 SWAP2 SUB SWAP1 REVERT JUMPDEST DUP1 DUP4 GT ISZERO PUSH2 0x8F2 JUMPI DUP1 SWAP3 POP JUMPDEST PUSH1 0x0 PUSH2 0x8FC PUSH2 0xEA8 JUMP JUMPDEST SWAP1 POP PUSH2 0x97E DUP2 PUSH1 0xCC PUSH1 0x0 SWAP1 SLOAD SWAP1 PUSH2 0x100 EXP SWAP1 DIV PUSH20 0xFFFFFFFFFFFFFFFFFFFFFFFFFFFFFFFFFFFFFFFF AND DUP7 DUP7 PUSH1 0x0 ADD SLOAD PUSH2 0x935 SWAP2 SWAP1 PUSH2 0x1F9A JUMP JUMPDEST PUSH1 0xCA PUSH1 0x0 SWAP1 SLOAD SWAP1 PUSH2 0x100 EXP SWAP1 DIV PUSH20 0xFFFFFFFFFFFFFFFFFFFFFFFFFFFFFFFFFFFFFFFF AND PUSH20 0xFFFFFFFFFFFFFFFFFFFFFFFFFFFFFFFFFFFFFFFF AND PUSH2 0x110E SWAP1 SWAP4 SWAP3 SWAP2 SWAP1 PUSH4 0xFFFFFFFF AND JUMP JUMPDEST DUP4 DUP4 PUSH1 0x2 ADD PUSH1 0x0 DUP3 DUP3 SLOAD PUSH2 0x992 SWAP2 SWAP1 PUSH2 0x1F44 JUMP JUMPDEST SWAP3 POP POP DUP2 SWAP1 SSTORE POP PUSH1 0x0 DUP5 PUSH8 0xFFFFFFFFFFFFFFFF DUP2 GT ISZERO PUSH2 0x9B5 JUMPI PUSH2 0x9B4 PUSH2 0x21D5 JUMP JUMPDEST JUMPDEST PUSH1 0x40 MLOAD SWAP1 DUP1 DUP3 MSTORE DUP1 PUSH1 0x20 MUL PUSH1 0x20 ADD DUP3 ADD PUSH1 0x40 MSTORE DUP1 ISZERO PUSH2 0x9E3 JUMPI DUP2 PUSH1 0x20 ADD PUSH1 0x20 DUP3 MUL DUP1 CALLDATASIZE DUP4 CALLDATACOPY DUP1 DUP3 ADD SWAP2 POP POP SWAP1 POP JUMPDEST POP SWAP1 POP PUSH1 0x0 JUMPDEST DUP6 DUP2 LT ISZERO PUSH2 0xAD0 JUMPI PUSH1 0xCB PUSH1 0x0 SWAP1 SLOAD SWAP1 PUSH2 0x100 EXP SWAP1 DIV PUSH20 0xFFFFFFFFFFFFFFFFFFFFFFFFFFFFFFFFFFFFFFFF AND PUSH20 0xFFFFFFFFFFFFFFFFFFFFFFFFFFFFFFFFFFFFFFFF AND PUSH4 0x6A627842 DUP5 PUSH1 0x40 MLOAD DUP3 PUSH4 0xFFFFFFFF AND PUSH1 0xE0 SHL DUP2 MSTORE PUSH1 0x4 ADD PUSH2 0xA4C SWAP2 SWAP1 PUSH2 0x1B3B JUMP JUMPDEST PUSH1 0x20 PUSH1 0x40 MLOAD DUP1 DUP4 SUB DUP2 PUSH1 0x0 DUP8 DUP1 EXTCODESIZE ISZERO DUP1 ISZERO PUSH2 0xA66 JUMPI PUSH1 0x0 DUP1 REVERT JUMPDEST POP GAS CALL ISZERO DUP1 ISZERO PUSH2 0xA7A JUMPI RETURNDATASIZE PUSH1 0x0 DUP1 RETURNDATACOPY RETURNDATASIZE PUSH1 0x0 REVERT JUMPDEST POP POP POP POP PUSH1 0x40 MLOAD RETURNDATASIZE PUSH1 0x1F NOT PUSH1 0x1F DUP3 ADD AND DUP3 ADD DUP1 PUSH1 0x40 MSTORE POP DUP2 ADD SWAP1 PUSH2 0xA9E SWAP2 SWAP1 PUSH2 0x16C8 JUMP JUMPDEST DUP3 DUP3 DUP2 MLOAD DUP2 LT PUSH2 0xAB1 JUMPI PUSH2 0xAB0 PUSH2 0x21A6 JUMP JUMPDEST JUMPDEST PUSH1 0x20 MUL PUSH1 0x20 ADD ADD DUP2 DUP2 MSTORE POP POP DUP1 DUP1 PUSH2 0xAC8 SWAP1 PUSH2 0x212E JUMP JUMPDEST SWAP2 POP POP PUSH2 0x9E9 JUMP JUMPDEST POP PUSH32 0x9983CE9D4662D5F9EAF098D063603B1ED2392ADCFF8D7524663209645EA014B DUP7 DUP6 PUSH1 0x0 ADD SLOAD DUP5 DUP5 PUSH1 0x40 MLOAD PUSH2 0xB0A SWAP5 SWAP4 SWAP3 SWAP2 SWAP1 PUSH2 0x1E56 JUMP JUMPDEST PUSH1 0x40 MLOAD DUP1 SWAP2 SUB SWAP1 LOG1 POP POP POP POP PUSH1 0x1 PUSH1 0x97 DUP2 SWAP1 SSTORE POP POP POP JUMP JUMPDEST PUSH2 0xB2A PUSH2 0xC99 JUMP JUMPDEST PUSH1 0x0 PUSH20 0xFFFFFFFFFFFFFFFFFFFFFFFFFFFFFFFFFFFFFFFF AND DUP2 PUSH20 0xFFFFFFFFFFFFFFFFFFFFFFFFFFFFFFFFFFFFFFFF AND EQ ISZERO PUSH2 0xB9A JUMPI PUSH1 0x40 MLOAD PUSH32 0x8C379A000000000000000000000000000000000000000000000000000000000 DUP2 MSTORE PUSH1 0x4 ADD PUSH2 0xB91 SWAP1 PUSH2 0x1DFB JUMP JUMPDEST PUSH1 0x40 MLOAD DUP1 SWAP2 SUB SWAP1 REVERT JUMPDEST DUP1 PUSH1 0xCC PUSH1 0x0 PUSH2 0x100 EXP DUP2 SLOAD DUP2 PUSH20 0xFFFFFFFFFFFFFFFFFFFFFFFFFFFFFFFFFFFFFFFF MUL NOT AND SWAP1 DUP4 PUSH20 0xFFFFFFFFFFFFFFFFFFFFFFFFFFFFFFFFFFFFFFFF AND MUL OR SWAP1 SSTORE POP PUSH32 0x7DAE230F18360D76A040C81F050AA14EB9D6DC7901B20FC5D855E2A20FE814D1 DUP2 PUSH1 0x40 MLOAD PUSH2 0xC0A SWAP2 SWAP1 PUSH2 0x1B3B JUMP JUMPDEST PUSH1 0x40 MLOAD DUP1 SWAP2 SUB SWAP1 LOG1 POP JUMP JUMPDEST PUSH2 0xC1D PUSH2 0xC99 JUMP JUMPDEST PUSH1 0x0 PUSH20 0xFFFFFFFFFFFFFFFFFFFFFFFFFFFFFFFFFFFFFFFF AND DUP2 PUSH20 0xFFFFFFFFFFFFFFFFFFFFFFFFFFFFFFFFFFFFFFFF AND EQ ISZERO PUSH2 0xC8D JUMPI PUSH1 0x40 MLOAD PUSH32 0x8C379A000000000000000000000000000000000000000000000000000000000 DUP2 MSTORE PUSH1 0x4 ADD PUSH2 0xC84 SWAP1 PUSH2 0x1C5B JUMP JUMPDEST PUSH1 0x40 MLOAD DUP1 SWAP2 SUB SWAP1 REVERT JUMPDEST PUSH2 0xC96 DUP2 PUSH2 0xF9B JUMP JUMPDEST POP JUMP JUMPDEST PUSH2 0xCA1 PUSH2 0xEA8 JUMP JUMPDEST PUSH20 0xFFFFFFFFFFFFFFFFFFFFFFFFFFFFFFFFFFFFFFFF AND PUSH2 0xCBF PUSH2 0x73C JUMP JUMPDEST PUSH20 0xFFFFFFFFFFFFFFFFFFFFFFFFFFFFFFFFFFFFFFFF AND EQ PUSH2 0xD15 JUMPI PUSH1 0x40 MLOAD PUSH32 0x8C379A000000000000000000000000000000000000000000000000000000000 DUP2 MSTORE PUSH1 0x4 ADD PUSH2 0xD0C SWAP1 PUSH2 0x1CFB JUMP JUMPDEST PUSH1 0x40 MLOAD DUP1 SWAP2 SUB SWAP1 REVERT JUMPDEST JUMP JUMPDEST PUSH2 0xD1F PUSH2 0x1197 JUMP JUMPDEST PUSH1 0x0 PUSH1 0x65 PUSH1 0x0 PUSH2 0x100 EXP DUP2 SLOAD DUP2 PUSH1 0xFF MUL NOT AND SWAP1 DUP4 ISZERO ISZERO MUL OR SWAP1 SSTORE POP PUSH32 0x5DB9EE0A495BF2E6FF9C91A7834C1BA4FDD244A5E8AA4E537BD38AEAE4B073AA PUSH2 0xD63 PUSH2 0xEA8 JUMP JUMPDEST PUSH1 0x40 MLOAD PUSH2 0xD70 SWAP2 SWAP1 PUSH2 0x1B3B JUMP JUMPDEST PUSH1 0x40 MLOAD DUP1 SWAP2 SUB SWAP1 LOG1 JUMP JUMPDEST PUSH1 0x0 DUP1 DUP3 PUSH20 0xFFFFFFFFFFFFFFFFFFFFFFFFFFFFFFFFFFFFFFFF AND EXTCODESIZE GT SWAP1 POP SWAP2 SWAP1 POP JUMP JUMPDEST PUSH1 0x0 PUSH1 0x1 SWAP1 SLOAD SWAP1 PUSH2 0x100 EXP SWAP1 DIV PUSH1 0xFF AND PUSH2 0xDEC JUMPI PUSH1 0x40 MLOAD PUSH32 0x8C379A000000000000000000000000000000000000000000000000000000000 DUP2 MSTORE PUSH1 0x4 ADD PUSH2 0xDE3 SWAP1 PUSH2 0x1D9B JUMP JUMPDEST PUSH1 0x40 MLOAD DUP1 SWAP2 SUB SWAP1 REVERT JUMPDEST PUSH2 0xDF4 PUSH2 0x11E0 JUMP JUMPDEST JUMP JUMPDEST PUSH1 0x0 PUSH1 0x1 SWAP1 SLOAD SWAP1 PUSH2 0x100 EXP SWAP1 DIV PUSH1 0xFF AND PUSH2 0xE45 JUMPI PUSH1 0x40 MLOAD PUSH32 0x8C379A000000000000000000000000000000000000000000000000000000000 DUP2 MSTORE PUSH1 0x4 ADD PUSH2 0xE3C SWAP1 PUSH2 0x1D9B JUMP JUMPDEST PUSH1 0x40 MLOAD DUP1 SWAP2 SUB SWAP1 REVERT JUMPDEST PUSH2 0xE4D PUSH2 0x1241 JUMP JUMPDEST JUMP JUMPDEST PUSH1 0x0 PUSH1 0x1 SWAP1 SLOAD SWAP1 PUSH2 0x100 EXP SWAP1 DIV PUSH1 0xFF AND PUSH2 0xE9E JUMPI PUSH1 0x40 MLOAD PUSH32 0x8C379A000000000000000000000000000000000000000000000000000000000 DUP2 MSTORE PUSH1 0x4 ADD PUSH2 0xE95 SWAP1 PUSH2 0x1D9B JUMP JUMPDEST PUSH1 0x40 MLOAD DUP1 SWAP2 SUB SWAP1 REVERT JUMPDEST PUSH2 0xEA6 PUSH2 0x12AD JUMP JUMPDEST JUMP JUMPDEST PUSH1 0x0 CALLER SWAP1 POP SWAP1 JUMP JUMPDEST PUSH1 0x0 PUSH20 0xFFFFFFFFFFFFFFFFFFFFFFFFFFFFFFFFFFFFFFFF AND DUP2 PUSH20 0xFFFFFFFFFFFFFFFFFFFFFFFFFFFFFFFFFFFFFFFF AND EQ ISZERO PUSH2 0xF20 JUMPI PUSH1 0x40 MLOAD PUSH32 0x8C379A000000000000000000000000000000000000000000000000000000000 DUP2 MSTORE PUSH1 0x4 ADD PUSH2 0xF17 SWAP1 PUSH2 0x1E1B JUMP JUMPDEST PUSH1 0x40 MLOAD DUP1 SWAP2 SUB SWAP1 REVERT JUMPDEST DUP1 PUSH1 0xC9 PUSH1 0x0 PUSH2 0x100 EXP DUP2 SLOAD DUP2 PUSH20 0xFFFFFFFFFFFFFFFFFFFFFFFFFFFFFFFFFFFFFFFF MUL NOT AND SWAP1 DUP4 PUSH20 0xFFFFFFFFFFFFFFFFFFFFFFFFFFFFFFFFFFFFFFFF AND MUL OR SWAP1 SSTORE POP PUSH32 0x5553331329228FBD4123164423717A4A7539F6DFA1C3279A923B98FD681A6C73 DUP2 PUSH1 0x40 MLOAD PUSH2 0xF90 SWAP2 SWAP1 PUSH2 0x1B3B JUMP JUMPDEST PUSH1 0x40 MLOAD DUP1 SWAP2 SUB SWAP1 LOG1 POP JUMP JUMPDEST PUSH1 0x0 PUSH1 0x33 PUSH1 0x0 SWAP1 SLOAD SWAP1 PUSH2 0x100 EXP SWAP1 DIV PUSH20 0xFFFFFFFFFFFFFFFFFFFFFFFFFFFFFFFFFFFFFFFF AND SWAP1 POP DUP2 PUSH1 0x33 PUSH1 0x0 PUSH2 0x100 EXP DUP2 SLOAD DUP2 PUSH20 0xFFFFFFFFFFFFFFFFFFFFFFFFFFFFFFFFFFFFFFFF MUL NOT AND SWAP1 DUP4 PUSH20 0xFFFFFFFFFFFFFFFFFFFFFFFFFFFFFFFFFFFFFFFF AND MUL OR SWAP1 SSTORE POP DUP2 PUSH20 0xFFFFFFFFFFFFFFFFFFFFFFFFFFFFFFFFFFFFFFFF AND DUP2 PUSH20 0xFFFFFFFFFFFFFFFFFFFFFFFFFFFFFFFFFFFFFFFF AND PUSH32 0x8BE0079C531659141344CD1FD0A4F28419497F9722A3DAAFE3B4186F6B6457E0 PUSH1 0x40 MLOAD PUSH1 0x40 MLOAD DUP1 SWAP2 SUB SWAP1 LOG3 POP POP JUMP JUMPDEST PUSH2 0x1069 PUSH2 0x10C4 JUMP JUMPDEST PUSH1 0x1 PUSH1 0x65 PUSH1 0x0 PUSH2 0x100 EXP DUP2 SLOAD DUP2 PUSH1 0xFF MUL NOT AND SWAP1 DUP4 ISZERO ISZERO MUL OR SWAP1 SSTORE POP PUSH32 0x62E78CEA01BEE320CD4E420270B5EA74000D11B0C9F74754EBDBFC544B05A258 PUSH2 0x10AD PUSH2 0xEA8 JUMP JUMPDEST PUSH1 0x40 MLOAD PUSH2 0x10BA SWAP2 SWAP1 PUSH2 0x1B3B JUMP JUMPDEST PUSH1 0x40 MLOAD DUP1 SWAP2 SUB SWAP1 LOG1 JUMP JUMPDEST PUSH2 0x10CC PUSH2 0x687 JUMP JUMPDEST ISZERO PUSH2 0x110C JUMPI PUSH1 0x40 MLOAD PUSH32 0x8C379A000000000000000000000000000000000000000000000000000000000 DUP2 MSTORE PUSH1 0x4 ADD PUSH2 0x1103 SWAP1 PUSH2 0x1C9B JUMP JUMPDEST PUSH1 0x40 MLOAD DUP1 SWAP2 SUB SWAP1 REVERT JUMPDEST JUMP JUMPDEST PUSH2 0x1191 DUP5 PUSH4 0x23B872DD PUSH1 0xE0 SHL DUP6 DUP6 DUP6 PUSH1 0x40 MLOAD PUSH1 0x24 ADD PUSH2 0x112F SWAP4 SWAP3 SWAP2 SWAP1 PUSH2 0x1B56 JUMP JUMPDEST PUSH1 0x40 MLOAD PUSH1 0x20 DUP2 DUP4 SUB SUB DUP2 MSTORE SWAP1 PUSH1 0x40 MSTORE SWAP1 PUSH28 0xFFFFFFFFFFFFFFFFFFFFFFFFFFFFFFFFFFFFFFFFFFFFFFFFFFFFFFFF NOT AND PUSH1 0x20 DUP3 ADD DUP1 MLOAD PUSH28 0xFFFFFFFFFFFFFFFFFFFFFFFFFFFFFFFFFFFFFFFFFFFFFFFFFFFFFFFF DUP4 DUP2 DUP4 AND OR DUP4 MSTORE POP POP POP POP PUSH2 0x1306 JUMP JUMPDEST POP POP POP POP JUMP JUMPDEST PUSH2 0x119F PUSH2 0x687 JUMP JUMPDEST PUSH2 0x11DE JUMPI PUSH1 0x40 MLOAD PUSH32 0x8C379A000000000000000000000000000000000000000000000000000000000 DUP2 MSTORE PUSH1 0x4 ADD PUSH2 0x11D5 SWAP1 PUSH2 0x1C3B JUMP JUMPDEST PUSH1 0x40 MLOAD DUP1 SWAP2 SUB SWAP1 REVERT JUMPDEST JUMP JUMPDEST PUSH1 0x0 PUSH1 0x1 SWAP1 SLOAD SWAP1 PUSH2 0x100 EXP SWAP1 DIV PUSH1 0xFF AND PUSH2 0x122F JUMPI PUSH1 0x40 MLOAD PUSH32 0x8C379A000000000000000000000000000000000000000000000000000000000 DUP2 MSTORE PUSH1 0x4 ADD PUSH2 0x1226 SWAP1 PUSH2 0x1D9B JUMP JUMPDEST PUSH1 0x40 MLOAD DUP1 SWAP2 SUB SWAP1 REVERT JUMPDEST PUSH2 0x123F PUSH2 0x123A PUSH2 0xEA8 JUMP JUMPDEST PUSH2 0xF9B JUMP JUMPDEST JUMP JUMPDEST PUSH1 0x0 PUSH1 0x1 SWAP1 SLOAD SWAP1 PUSH2 0x100 EXP SWAP1 DIV PUSH1 0xFF AND PUSH2 0x1290 JUMPI PUSH1 0x40 MLOAD PUSH32 0x8C379A000000000000000000000000000000000000000000000000000000000 DUP2 MSTORE PUSH1 0x4 ADD PUSH2 0x1287 SWAP1 PUSH2 0x1D9B JUMP JUMPDEST PUSH1 0x40 MLOAD DUP1 SWAP2 SUB SWAP1 REVERT JUMPDEST PUSH1 0x0 PUSH1 0x65 PUSH1 0x0 PUSH2 0x100 EXP DUP2 SLOAD DUP2 PUSH1 0xFF MUL NOT AND SWAP1 DUP4 ISZERO ISZERO MUL OR SWAP1 SSTORE POP JUMP JUMPDEST PUSH1 0x0 PUSH1 0x1 SWAP1 SLOAD SWAP1 PUSH2 0x100 EXP SWAP1 DIV PUSH1 0xFF AND PUSH2 0x12FC JUMPI PUSH1 0x40 MLOAD PUSH32 0x8C379A000000000000000000000000000000000000000000000000000000000 DUP2 MSTORE PUSH1 0x4 ADD PUSH2 0x12F3 SWAP1 PUSH2 0x1D9B JUMP JUMPDEST PUSH1 0x40 MLOAD DUP1 SWAP2 SUB SWAP1 REVERT JUMPDEST PUSH1 0x1 PUSH1 0x97 DUP2 SWAP1 SSTORE POP JUMP JUMPDEST PUSH1 0x0 PUSH2 0x1368 DUP3 PUSH1 0x40 MLOAD DUP1 PUSH1 0x40 ADD PUSH1 0x40 MSTORE DUP1 PUSH1 0x20 DUP2 MSTORE PUSH1 0x20 ADD PUSH32 0x5361666545524332303A206C6F772D6C6576656C2063616C6C206661696C6564 DUP2 MSTORE POP DUP6 PUSH20 0xFFFFFFFFFFFFFFFFFFFFFFFFFFFFFFFFFFFFFFFF AND PUSH2 0x13CD SWAP1 SWAP3 SWAP2 SWAP1 PUSH4 0xFFFFFFFF AND JUMP JUMPDEST SWAP1 POP PUSH1 0x0 DUP2 MLOAD GT ISZERO PUSH2 0x13C8 JUMPI DUP1 DUP1 PUSH1 0x20 ADD SWAP1 MLOAD DUP2 ADD SWAP1 PUSH2 0x1388 SWAP2 SWAP1 PUSH2 0x162E JUMP JUMPDEST PUSH2 0x13C7 JUMPI PUSH1 0x40 MLOAD PUSH32 0x8C379A000000000000000000000000000000000000000000000000000000000 DUP2 MSTORE PUSH1 0x4 ADD PUSH2 0x13BE SWAP1 PUSH2 0x1DBB JUMP JUMPDEST PUSH1 0x40 MLOAD DUP1 SWAP2 SUB SWAP1 REVERT JUMPDEST JUMPDEST POP POP POP JUMP JUMPDEST PUSH1 0x60 PUSH2 0x13DC DUP5 DUP5 PUSH1 0x0 DUP6 PUSH2 0x13E5 JUMP JUMPDEST SWAP1 POP SWAP4 SWAP3 POP POP POP JUMP JUMPDEST PUSH1 0x60 DUP3 SELFBALANCE LT ISZERO PUSH2 0x142A JUMPI PUSH1 0x40 MLOAD PUSH32 0x8C379A000000000000000000000000000000000000000000000000000000000 DUP2 MSTORE PUSH1 0x4 ADD PUSH2 0x1421 SWAP1 PUSH2 0x1C7B JUMP JUMPDEST PUSH1 0x40 MLOAD DUP1 SWAP2 SUB SWAP1 REVERT JUMPDEST PUSH2 0x1433 DUP6 PUSH2 0x14F9 JUMP JUMPDEST PUSH2 0x1472 JUMPI PUSH1 0x40 MLOAD PUSH32 0x8C379A000000000000000000000000000000000000000000000000000000000 DUP2 MSTORE PUSH1 0x4 ADD PUSH2 0x1469 SWAP1 PUSH2 0x1D7B JUMP JUMPDEST PUSH1 0x40 MLOAD DUP1 SWAP2 SUB SWAP1 REVERT JUMPDEST PUSH1 0x0 DUP1 DUP7 PUSH20 0xFFFFFFFFFFFFFFFFFFFFFFFFFFFFFFFFFFFFFFFF AND DUP6 DUP8 PUSH1 0x40 MLOAD PUSH2 0x149B SWAP2 SWAP1 PUSH2 0x1B24 JUMP JUMPDEST PUSH1 0x0 PUSH1 0x40 MLOAD DUP1 DUP4 SUB DUP2 DUP6 DUP8 GAS CALL SWAP3 POP POP POP RETURNDATASIZE DUP1 PUSH1 0x0 DUP2 EQ PUSH2 0x14D8 JUMPI PUSH1 0x40 MLOAD SWAP2 POP PUSH1 0x1F NOT PUSH1 0x3F RETURNDATASIZE ADD AND DUP3 ADD PUSH1 0x40 MSTORE RETURNDATASIZE DUP3 MSTORE RETURNDATASIZE PUSH1 0x0 PUSH1 0x20 DUP5 ADD RETURNDATACOPY PUSH2 0x14DD JUMP JUMPDEST PUSH1 0x60 SWAP2 POP JUMPDEST POP SWAP2 POP SWAP2 POP PUSH2 0x14ED DUP3 DUP3 DUP7 PUSH2 0x151C JUMP JUMPDEST SWAP3 POP POP POP SWAP5 SWAP4 POP POP POP POP JUMP JUMPDEST PUSH1 0x0 DUP1 DUP3 PUSH20 0xFFFFFFFFFFFFFFFFFFFFFFFFFFFFFFFFFFFFFFFF AND EXTCODESIZE GT SWAP1 POP SWAP2 SWAP1 POP JUMP JUMPDEST PUSH1 0x60 DUP4 ISZERO PUSH2 0x152C JUMPI DUP3 SWAP1 POP PUSH2 0x157C JUMP JUMPDEST PUSH1 0x0 DUP4 MLOAD GT ISZERO PUSH2 0x153F JUMPI DUP3 MLOAD DUP1 DUP5 PUSH1 0x20 ADD REVERT JUMPDEST DUP2 PUSH1 0x40 MLOAD PUSH32 0x8C379A000000000000000000000000000000000000000000000000000000000 DUP2 MSTORE PUSH1 0x4 ADD PUSH2 0x1573 SWAP2 SWAP1 PUSH2 0x1BF9 JUMP JUMPDEST PUSH1 0x40 MLOAD DUP1 SWAP2 SUB SWAP1 REVERT JUMPDEST SWAP4 SWAP3 POP POP POP JUMP JUMPDEST PUSH1 0x0 DUP2 CALLDATALOAD SWAP1 POP PUSH2 0x1592 DUP2 PUSH2 0x25B7 JUMP JUMPDEST SWAP3 SWAP2 POP POP JUMP JUMPDEST PUSH1 0x0 DUP2 MLOAD SWAP1 POP PUSH2 0x15A7 DUP2 PUSH2 0x25CE JUMP JUMPDEST SWAP3 SWAP2 POP POP JUMP JUMPDEST PUSH1 0x0 DUP2 CALLDATALOAD SWAP1 POP PUSH2 0x15BC DUP2 PUSH2 0x25E5 JUMP JUMPDEST SWAP3 SWAP2 POP POP JUMP JUMPDEST PUSH1 0x0 DUP2 CALLDATALOAD SWAP1 POP PUSH2 0x15D1 DUP2 PUSH2 0x25FC JUMP JUMPDEST SWAP3 SWAP2 POP POP JUMP JUMPDEST PUSH1 0x0 DUP2 CALLDATALOAD SWAP1 POP PUSH2 0x15E6 DUP2 PUSH2 0x2613 JUMP JUMPDEST SWAP3 SWAP2 POP POP JUMP JUMPDEST PUSH1 0x0 DUP2 MLOAD SWAP1 POP PUSH2 0x15FB DUP2 PUSH2 0x2613 JUMP JUMPDEST SWAP3 SWAP2 POP POP JUMP JUMPDEST PUSH1 0x0 PUSH1 0x20 DUP3 DUP5 SUB SLT ISZERO PUSH2 0x1617 JUMPI PUSH2 0x1616 PUSH2 0x2204 JUMP JUMPDEST JUMPDEST PUSH1 0x0 PUSH2 0x1625 DUP5 DUP3 DUP6 ADD PUSH2 0x1583 JUMP JUMPDEST SWAP2 POP POP SWAP3 SWAP2 POP POP JUMP JUMPDEST PUSH1 0x0 PUSH1 0x20 DUP3 DUP5 SUB SLT ISZERO PUSH2 0x1644 JUMPI PUSH2 0x1643 PUSH2 0x2204 JUMP JUMPDEST JUMPDEST PUSH1 0x0 PUSH2 0x1652 DUP5 DUP3 DUP6 ADD PUSH2 0x1598 JUMP JUMPDEST SWAP2 POP POP SWAP3 SWAP2 POP POP JUMP JUMPDEST PUSH1 0x0 DUP1 PUSH1 0x40 DUP4 DUP6 SUB SLT ISZERO PUSH2 0x1672 JUMPI PUSH2 0x1671 PUSH2 0x2204 JUMP JUMPDEST JUMPDEST PUSH1 0x0 PUSH2 0x1680 DUP6 DUP3 DUP7 ADD PUSH2 0x15C2 JUMP JUMPDEST SWAP3 POP POP PUSH1 0x20 PUSH2 0x1691 DUP6 DUP3 DUP7 ADD PUSH2 0x15AD JUMP JUMPDEST SWAP2 POP POP SWAP3 POP SWAP3 SWAP1 POP JUMP JUMPDEST PUSH1 0x0 PUSH1 0x20 DUP3 DUP5 SUB SLT ISZERO PUSH2 0x16B1 JUMPI PUSH2 0x16B0 PUSH2 0x2204 JUMP JUMPDEST JUMPDEST PUSH1 0x0 PUSH2 0x16BF DUP5 DUP3 DUP6 ADD PUSH2 0x15D7 JUMP JUMPDEST SWAP2 POP POP SWAP3 SWAP2 POP POP JUMP JUMPDEST PUSH1 0x0 PUSH1 0x20 DUP3 DUP5 SUB SLT ISZERO PUSH2 0x16DE JUMPI PUSH2 0x16DD PUSH2 0x2204 JUMP JUMPDEST JUMPDEST PUSH1 0x0 PUSH2 0x16EC DUP5 DUP3 DUP6 ADD PUSH2 0x15EC JUMP JUMPDEST SWAP2 POP POP SWAP3 SWAP2 POP POP JUMP JUMPDEST PUSH1 0x0 DUP1 PUSH1 0x40 DUP4 DUP6 SUB SLT ISZERO PUSH2 0x170C JUMPI PUSH2 0x170B PUSH2 0x2204 JUMP JUMPDEST JUMPDEST PUSH1 0x0 PUSH2 0x171A DUP6 DUP3 DUP7 ADD PUSH2 0x15D7 JUMP JUMPDEST SWAP3 POP POP PUSH1 0x20 PUSH2 0x172B DUP6 DUP3 DUP7 ADD PUSH2 0x15D7 JUMP JUMPDEST SWAP2 POP POP SWAP3 POP SWAP3 SWAP1 POP JUMP JUMPDEST PUSH1 0x0 DUP1 PUSH1 0x0 PUSH1 0x60 DUP5 DUP7 SUB SLT ISZERO PUSH2 0x174E JUMPI PUSH2 0x174D PUSH2 0x2204 JUMP JUMPDEST JUMPDEST PUSH1 0x0 PUSH2 0x175C DUP7 DUP3 DUP8 ADD PUSH2 0x15D7 JUMP JUMPDEST SWAP4 POP POP PUSH1 0x20 PUSH2 0x176D DUP7 DUP3 DUP8 ADD PUSH2 0x15D7 JUMP JUMPDEST SWAP3 POP POP PUSH1 0x40 PUSH2 0x177E DUP7 DUP3 DUP8 ADD PUSH2 0x15D7 JUMP JUMPDEST SWAP2 POP POP SWAP3 POP SWAP3 POP SWAP3 JUMP JUMPDEST PUSH1 0x0 PUSH2 0x1794 DUP4 DUP4 PUSH2 0x1B06 JUMP JUMPDEST PUSH1 0x20 DUP4 ADD SWAP1 POP SWAP3 SWAP2 POP POP JUMP JUMPDEST PUSH2 0x17A9 DUP2 PUSH2 0x2028 JUMP JUMPDEST DUP3 MSTORE POP POP JUMP JUMPDEST PUSH1 0x0 PUSH2 0x17BA DUP3 PUSH2 0x1EE9 JUMP JUMPDEST PUSH2 0x17C4 DUP2 DUP6 PUSH2 0x1F17 JUMP JUMPDEST SWAP4 POP PUSH2 0x17CF DUP4 PUSH2 0x1ED9 JUMP JUMPDEST DUP1 PUSH1 0x0 JUMPDEST DUP4 DUP2 LT ISZERO PUSH2 0x1800 JUMPI DUP2 MLOAD PUSH2 0x17E7 DUP9 DUP3 PUSH2 0x1788 JUMP JUMPDEST SWAP8 POP PUSH2 0x17F2 DUP4 PUSH2 0x1F0A JUMP JUMPDEST SWAP3 POP POP PUSH1 0x1 DUP2 ADD SWAP1 POP PUSH2 0x17D3 JUMP JUMPDEST POP DUP6 SWAP4 POP POP POP POP SWAP3 SWAP2 POP POP JUMP JUMPDEST PUSH2 0x1816 DUP2 PUSH2 0x203A JUMP JUMPDEST DUP3 MSTORE POP POP JUMP JUMPDEST PUSH1 0x0 PUSH2 0x1827 DUP3 PUSH2 0x1EF4 JUMP JUMPDEST PUSH2 0x1831 DUP2 DUP6 PUSH2 0x1F28 JUMP JUMPDEST SWAP4 POP PUSH2 0x1841 DUP2 DUP6 PUSH1 0x20 DUP7 ADD PUSH2 0x20FB JUMP JUMPDEST DUP1 DUP5 ADD SWAP2 POP POP SWAP3 SWAP2 POP POP JUMP JUMPDEST PUSH2 0x1856 DUP2 PUSH2 0x20A1 JUMP JUMPDEST DUP3 MSTORE POP POP JUMP JUMPDEST PUSH2 0x1865 DUP2 PUSH2 0x20B3 JUMP JUMPDEST DUP3 MSTORE POP POP JUMP JUMPDEST PUSH2 0x1874 DUP2 PUSH2 0x20C5 JUMP JUMPDEST DUP3 MSTORE POP POP JUMP JUMPDEST PUSH1 0x0 PUSH2 0x1885 DUP3 PUSH2 0x1EFF JUMP JUMPDEST PUSH2 0x188F DUP2 DUP6 PUSH2 0x1F33 JUMP JUMPDEST SWAP4 POP PUSH2 0x189F DUP2 DUP6 PUSH1 0x20 DUP7 ADD PUSH2 0x20FB JUMP JUMPDEST PUSH2 0x18A8 DUP2 PUSH2 0x2209 JUMP JUMPDEST DUP5 ADD SWAP2 POP POP SWAP3 SWAP2 POP POP JUMP JUMPDEST PUSH1 0x0 PUSH2 0x18C0 PUSH1 0x13 DUP4 PUSH2 0x1F33 JUMP JUMPDEST SWAP2 POP PUSH2 0x18CB DUP3 PUSH2 0x221A JUMP JUMPDEST PUSH1 0x20 DUP3 ADD SWAP1 POP SWAP2 SWAP1 POP JUMP JUMPDEST PUSH1 0x0 PUSH2 0x18E3 PUSH1 0x14 DUP4 PUSH2 0x1F33 JUMP JUMPDEST SWAP2 POP PUSH2 0x18EE DUP3 PUSH2 0x2243 JUMP JUMPDEST PUSH1 0x20 DUP3 ADD SWAP1 POP SWAP2 SWAP1 POP JUMP JUMPDEST PUSH1 0x0 PUSH2 0x1906 PUSH1 0x26 DUP4 PUSH2 0x1F33 JUMP JUMPDEST SWAP2 POP PUSH2 0x1911 DUP3 PUSH2 0x226C JUMP JUMPDEST PUSH1 0x40 DUP3 ADD SWAP1 POP SWAP2 SWAP1 POP JUMP JUMPDEST PUSH1 0x0 PUSH2 0x1929 PUSH1 0x26 DUP4 PUSH2 0x1F33 JUMP JUMPDEST SWAP2 POP PUSH2 0x1934 DUP3 PUSH2 0x22BB JUMP JUMPDEST PUSH1 0x40 DUP3 ADD SWAP1 POP SWAP2 SWAP1 POP JUMP JUMPDEST PUSH1 0x0 PUSH2 0x194C PUSH1 0x10 DUP4 PUSH2 0x1F33 JUMP JUMPDEST SWAP2 POP PUSH2 0x1957 DUP3 PUSH2 0x230A JUMP JUMPDEST PUSH1 0x20 DUP3 ADD SWAP1 POP SWAP2 SWAP1 POP JUMP JUMPDEST PUSH1 0x0 PUSH2 0x196F PUSH1 0x2E DUP4 PUSH2 0x1F33 JUMP JUMPDEST SWAP2 POP PUSH2 0x197A DUP3 PUSH2 0x2333 JUMP JUMPDEST PUSH1 0x40 DUP3 ADD SWAP1 POP SWAP2 SWAP1 POP JUMP JUMPDEST PUSH1 0x0 PUSH2 0x1992 PUSH1 0x1E DUP4 PUSH2 0x1F33 JUMP JUMPDEST SWAP2 POP PUSH2 0x199D DUP3 PUSH2 0x2382 JUMP JUMPDEST PUSH1 0x20 DUP3 ADD SWAP1 POP SWAP2 SWAP1 POP JUMP JUMPDEST PUSH1 0x0 PUSH2 0x19B5 PUSH1 0x20 DUP4 PUSH2 0x1F33 JUMP JUMPDEST SWAP2 POP PUSH2 0x19C0 DUP3 PUSH2 0x23AB JUMP JUMPDEST PUSH1 0x20 DUP3 ADD SWAP1 POP SWAP2 SWAP1 POP JUMP JUMPDEST PUSH1 0x0 PUSH2 0x19D8 PUSH1 0x1B DUP4 PUSH2 0x1F33 JUMP JUMPDEST SWAP2 POP PUSH2 0x19E3 DUP3 PUSH2 0x23D4 JUMP JUMPDEST PUSH1 0x20 DUP3 ADD SWAP1 POP SWAP2 SWAP1 POP JUMP JUMPDEST PUSH1 0x0 PUSH2 0x19FB PUSH1 0x22 DUP4 PUSH2 0x1F33 JUMP JUMPDEST SWAP2 POP PUSH2 0x1A06 DUP3 PUSH2 0x23FD JUMP JUMPDEST PUSH1 0x40 DUP3 ADD SWAP1 POP SWAP2 SWAP1 POP JUMP JUMPDEST PUSH1 0x0 PUSH2 0x1A1E PUSH1 0x1E DUP4 PUSH2 0x1F33 JUMP JUMPDEST SWAP2 POP PUSH2 0x1A29 DUP3 PUSH2 0x244C JUMP JUMPDEST PUSH1 0x20 DUP3 ADD SWAP1 POP SWAP2 SWAP1 POP JUMP JUMPDEST PUSH1 0x0 PUSH2 0x1A41 PUSH1 0x1D DUP4 PUSH2 0x1F33 JUMP JUMPDEST SWAP2 POP PUSH2 0x1A4C DUP3 PUSH2 0x2475 JUMP JUMPDEST PUSH1 0x20 DUP3 ADD SWAP1 POP SWAP2 SWAP1 POP JUMP JUMPDEST PUSH1 0x0 PUSH2 0x1A64 PUSH1 0x2B DUP4 PUSH2 0x1F33 JUMP JUMPDEST SWAP2 POP PUSH2 0x1A6F DUP3 PUSH2 0x249E JUMP JUMPDEST PUSH1 0x40 DUP3 ADD SWAP1 POP SWAP2 SWAP1 POP JUMP JUMPDEST PUSH1 0x0 PUSH2 0x1A87 PUSH1 0x2A DUP4 PUSH2 0x1F33 JUMP JUMPDEST SWAP2 POP PUSH2 0x1A92 DUP3 PUSH2 0x24ED JUMP JUMPDEST PUSH1 0x40 DUP3 ADD SWAP1 POP SWAP2 SWAP1 POP JUMP JUMPDEST PUSH1 0x0 PUSH2 0x1AAA PUSH1 0x1F DUP4 PUSH2 0x1F33 JUMP JUMPDEST SWAP2 POP PUSH2 0x1AB5 DUP3 PUSH2 0x253C JUMP JUMPDEST PUSH1 0x20 DUP3 ADD SWAP1 POP SWAP2 SWAP1 POP JUMP JUMPDEST PUSH1 0x0 PUSH2 0x1ACD PUSH1 0x1D DUP4 PUSH2 0x1F33 JUMP JUMPDEST SWAP2 POP PUSH2 0x1AD8 DUP3 PUSH2 0x2565 JUMP JUMPDEST PUSH1 0x20 DUP3 ADD SWAP1 POP SWAP2 SWAP1 POP JUMP JUMPDEST PUSH1 0x0 PUSH2 0x1AF0 PUSH1 0x1C DUP4 PUSH2 0x1F33 JUMP JUMPDEST SWAP2 POP PUSH2 0x1AFB DUP3 PUSH2 0x258E JUMP JUMPDEST PUSH1 0x20 DUP3 ADD SWAP1 POP SWAP2 SWAP1 POP JUMP JUMPDEST PUSH2 0x1B0F DUP2 PUSH2 0x208A JUMP JUMPDEST DUP3 MSTORE POP POP JUMP JUMPDEST PUSH2 0x1B1E DUP2 PUSH2 0x208A JUMP JUMPDEST DUP3 MSTORE POP POP JUMP JUMPDEST PUSH1 0x0 PUSH2 0x1B30 DUP3 DUP5 PUSH2 0x181C JUMP JUMPDEST SWAP2 POP DUP2 SWAP1 POP SWAP3 SWAP2 POP POP JUMP JUMPDEST PUSH1 0x0 PUSH1 0x20 DUP3 ADD SWAP1 POP PUSH2 0x1B50 PUSH1 0x0 DUP4 ADD DUP5 PUSH2 0x17A0 JUMP JUMPDEST SWAP3 SWAP2 POP POP JUMP JUMPDEST PUSH1 0x0 PUSH1 0x60 DUP3 ADD SWAP1 POP PUSH2 0x1B6B PUSH1 0x0 DUP4 ADD DUP7 PUSH2 0x17A0 JUMP JUMPDEST PUSH2 0x1B78 PUSH1 0x20 DUP4 ADD DUP6 PUSH2 0x17A0 JUMP JUMPDEST PUSH2 0x1B85 PUSH1 0x40 DUP4 ADD DUP5 PUSH2 0x1B15 JUMP JUMPDEST SWAP5 SWAP4 POP POP POP POP JUMP JUMPDEST PUSH1 0x0 PUSH1 0x20 DUP3 ADD SWAP1 POP PUSH2 0x1BA2 PUSH1 0x0 DUP4 ADD DUP5 PUSH2 0x180D JUMP JUMPDEST SWAP3 SWAP2 POP POP JUMP JUMPDEST PUSH1 0x0 PUSH1 0x20 DUP3 ADD SWAP1 POP PUSH2 0x1BBD PUSH1 0x0 DUP4 ADD DUP5 PUSH2 0x184D JUMP JUMPDEST SWAP3 SWAP2 POP POP JUMP JUMPDEST PUSH1 0x0 PUSH1 0x20 DUP3 ADD SWAP1 POP PUSH2 0x1BD8 PUSH1 0x0 DUP4 ADD DUP5 PUSH2 0x185C JUMP JUMPDEST SWAP3 SWAP2 POP POP JUMP JUMPDEST PUSH1 0x0 PUSH1 0x20 DUP3 ADD SWAP1 POP PUSH2 0x1BF3 PUSH1 0x0 DUP4 ADD DUP5 PUSH2 0x186B JUMP JUMPDEST SWAP3 SWAP2 POP POP JUMP JUMPDEST PUSH1 0x0 PUSH1 0x20 DUP3 ADD SWAP1 POP DUP2 DUP2 SUB PUSH1 0x0 DUP4 ADD MSTORE PUSH2 0x1C13 DUP2 DUP5 PUSH2 0x187A JUMP JUMPDEST SWAP1 POP SWAP3 SWAP2 POP POP JUMP JUMPDEST PUSH1 0x0 PUSH1 0x20 DUP3 ADD SWAP1 POP DUP2 DUP2 SUB PUSH1 0x0 DUP4 ADD MSTORE PUSH2 0x1C34 DUP2 PUSH2 0x18B3 JUMP JUMPDEST SWAP1 POP SWAP2 SWAP1 POP JUMP JUMPDEST PUSH1 0x0 PUSH1 0x20 DUP3 ADD SWAP1 POP DUP2 DUP2 SUB PUSH1 0x0 DUP4 ADD MSTORE PUSH2 0x1C54 DUP2 PUSH2 0x18D6 JUMP JUMPDEST SWAP1 POP SWAP2 SWAP1 POP JUMP JUMPDEST PUSH1 0x0 PUSH1 0x20 DUP3 ADD SWAP1 POP DUP2 DUP2 SUB PUSH1 0x0 DUP4 ADD MSTORE PUSH2 0x1C74 DUP2 PUSH2 0x18F9 JUMP JUMPDEST SWAP1 POP SWAP2 SWAP1 POP JUMP JUMPDEST PUSH1 0x0 PUSH1 0x20 DUP3 ADD SWAP1 POP DUP2 DUP2 SUB PUSH1 0x0 DUP4 ADD MSTORE PUSH2 0x1C94 DUP2 PUSH2 0x191C JUMP JUMPDEST SWAP1 POP SWAP2 SWAP1 POP JUMP JUMPDEST PUSH1 0x0 PUSH1 0x20 DUP3 ADD SWAP1 POP DUP2 DUP2 SUB PUSH1 0x0 DUP4 ADD MSTORE PUSH2 0x1CB4 DUP2 PUSH2 0x193F JUMP JUMPDEST SWAP1 POP SWAP2 SWAP1 POP JUMP JUMPDEST PUSH1 0x0 PUSH1 0x20 DUP3 ADD SWAP1 POP DUP2 DUP2 SUB PUSH1 0x0 DUP4 ADD MSTORE PUSH2 0x1CD4 DUP2 PUSH2 0x1962 JUMP JUMPDEST SWAP1 POP SWAP2 SWAP1 POP JUMP JUMPDEST PUSH1 0x0 PUSH1 0x20 DUP3 ADD SWAP1 POP DUP2 DUP2 SUB PUSH1 0x0 DUP4 ADD MSTORE PUSH2 0x1CF4 DUP2 PUSH2 0x1985 JUMP JUMPDEST SWAP1 POP SWAP2 SWAP1 POP JUMP JUMPDEST PUSH1 0x0 PUSH1 0x20 DUP3 ADD SWAP1 POP DUP2 DUP2 SUB PUSH1 0x0 DUP4 ADD MSTORE PUSH2 0x1D14 DUP2 PUSH2 0x19A8 JUMP JUMPDEST SWAP1 POP SWAP2 SWAP1 POP JUMP JUMPDEST PUSH1 0x0 PUSH1 0x20 DUP3 ADD SWAP1 POP DUP2 DUP2 SUB PUSH1 0x0 DUP4 ADD MSTORE PUSH2 0x1D34 DUP2 PUSH2 0x19CB JUMP JUMPDEST SWAP1 POP SWAP2 SWAP1 POP JUMP JUMPDEST PUSH1 0x0 PUSH1 0x20 DUP3 ADD SWAP1 POP DUP2 DUP2 SUB PUSH1 0x0 DUP4 ADD MSTORE PUSH2 0x1D54 DUP2 PUSH2 0x19EE JUMP JUMPDEST SWAP1 POP SWAP2 SWAP1 POP JUMP JUMPDEST PUSH1 0x0 PUSH1 0x20 DUP3 ADD SWAP1 POP DUP2 DUP2 SUB PUSH1 0x0 DUP4 ADD MSTORE PUSH2 0x1D74 DUP2 PUSH2 0x1A11 JUMP JUMPDEST SWAP1 POP SWAP2 SWAP1 POP JUMP JUMPDEST PUSH1 0x0 PUSH1 0x20 DUP3 ADD SWAP1 POP DUP2 DUP2 SUB PUSH1 0x0 DUP4 ADD MSTORE PUSH2 0x1D94 DUP2 PUSH2 0x1A34 JUMP JUMPDEST SWAP1 POP SWAP2 SWAP1 POP JUMP JUMPDEST PUSH1 0x0 PUSH1 0x20 DUP3 ADD SWAP1 POP DUP2 DUP2 SUB PUSH1 0x0 DUP4 ADD MSTORE PUSH2 0x1DB4 DUP2 PUSH2 0x1A57 JUMP JUMPDEST SWAP1 POP SWAP2 SWAP1 POP JUMP JUMPDEST PUSH1 0x0 PUSH1 0x20 DUP3 ADD SWAP1 POP DUP2 DUP2 SUB PUSH1 0x0 DUP4 ADD MSTORE PUSH2 0x1DD4 DUP2 PUSH2 0x1A7A JUMP JUMPDEST SWAP1 POP SWAP2 SWAP1 POP JUMP JUMPDEST PUSH1 0x0 PUSH1 0x20 DUP3 ADD SWAP1 POP DUP2 DUP2 SUB PUSH1 0x0 DUP4 ADD MSTORE PUSH2 0x1DF4 DUP2 PUSH2 0x1A9D JUMP JUMPDEST SWAP1 POP SWAP2 SWAP1 POP JUMP JUMPDEST PUSH1 0x0 PUSH1 0x20 DUP3 ADD SWAP1 POP DUP2 DUP2 SUB PUSH1 0x0 DUP4 ADD MSTORE PUSH2 0x1E14 DUP2 PUSH2 0x1AC0 JUMP JUMPDEST SWAP1 POP SWAP2 SWAP1 POP JUMP JUMPDEST PUSH1 0x0 PUSH1 0x20 DUP3 ADD SWAP1 POP DUP2 DUP2 SUB PUSH1 0x0 DUP4 ADD MSTORE PUSH2 0x1E34 DUP2 PUSH2 0x1AE3 JUMP JUMPDEST SWAP1 POP SWAP2 SWAP1 POP JUMP JUMPDEST PUSH1 0x0 PUSH1 0x20 DUP3 ADD SWAP1 POP PUSH2 0x1E50 PUSH1 0x0 DUP4 ADD DUP5 PUSH2 0x1B15 JUMP JUMPDEST SWAP3 SWAP2 POP POP JUMP JUMPDEST PUSH1 0x0 PUSH1 0x80 DUP3 ADD SWAP1 POP PUSH2 0x1E6B PUSH1 0x0 DUP4 ADD DUP8 PUSH2 0x1B15 JUMP JUMPDEST PUSH2 0x1E78 PUSH1 0x20 DUP4 ADD DUP7 PUSH2 0x1B15 JUMP JUMPDEST PUSH2 0x1E85 PUSH1 0x40 DUP4 ADD DUP6 PUSH2 0x17A0 JUMP JUMPDEST DUP2 DUP2 SUB PUSH1 0x60 DUP4 ADD MSTORE PUSH2 0x1E97 DUP2 DUP5 PUSH2 0x17AF JUMP JUMPDEST SWAP1 POP SWAP6 SWAP5 POP POP POP POP POP JUMP JUMPDEST PUSH1 0x0 PUSH1 0x60 DUP3 ADD SWAP1 POP PUSH2 0x1EB7 PUSH1 0x0 DUP4 ADD DUP7 PUSH2 0x1B15 JUMP JUMPDEST PUSH2 0x1EC4 PUSH1 0x20 DUP4 ADD DUP6 PUSH2 0x1B15 JUMP JUMPDEST PUSH2 0x1ED1 PUSH1 0x40 DUP4 ADD DUP5 PUSH2 0x1B15 JUMP JUMPDEST SWAP5 SWAP4 POP POP POP POP JUMP JUMPDEST PUSH1 0x0 DUP2 SWAP1 POP PUSH1 0x20 DUP3 ADD SWAP1 POP SWAP2 SWAP1 POP JUMP JUMPDEST PUSH1 0x0 DUP2 MLOAD SWAP1 POP SWAP2 SWAP1 POP JUMP JUMPDEST PUSH1 0x0 DUP2 MLOAD SWAP1 POP SWAP2 SWAP1 POP JUMP JUMPDEST PUSH1 0x0 DUP2 MLOAD SWAP1 POP SWAP2 SWAP1 POP JUMP JUMPDEST PUSH1 0x0 PUSH1 0x20 DUP3 ADD SWAP1 POP SWAP2 SWAP1 POP JUMP JUMPDEST PUSH1 0x0 DUP3 DUP3 MSTORE PUSH1 0x20 DUP3 ADD SWAP1 POP SWAP3 SWAP2 POP POP JUMP JUMPDEST PUSH1 0x0 DUP2 SWAP1 POP SWAP3 SWAP2 POP POP JUMP JUMPDEST PUSH1 0x0 DUP3 DUP3 MSTORE PUSH1 0x20 DUP3 ADD SWAP1 POP SWAP3 SWAP2 POP POP JUMP JUMPDEST PUSH1 0x0 PUSH2 0x1F4F DUP3 PUSH2 0x208A JUMP JUMPDEST SWAP2 POP PUSH2 0x1F5A DUP4 PUSH2 0x208A JUMP JUMPDEST SWAP3 POP DUP3 PUSH32 0xFFFFFFFFFFFFFFFFFFFFFFFFFFFFFFFFFFFFFFFFFFFFFFFFFFFFFFFFFFFFFFFF SUB DUP3 GT ISZERO PUSH2 0x1F8F JUMPI PUSH2 0x1F8E PUSH2 0x2177 JUMP JUMPDEST JUMPDEST DUP3 DUP3 ADD SWAP1 POP SWAP3 SWAP2 POP POP JUMP JUMPDEST PUSH1 0x0 PUSH2 0x1FA5 DUP3 PUSH2 0x208A JUMP JUMPDEST SWAP2 POP PUSH2 0x1FB0 DUP4 PUSH2 0x208A JUMP JUMPDEST SWAP3 POP DUP2 PUSH32 0xFFFFFFFFFFFFFFFFFFFFFFFFFFFFFFFFFFFFFFFFFFFFFFFFFFFFFFFFFFFFFFFF DIV DUP4 GT DUP3 ISZERO ISZERO AND ISZERO PUSH2 0x1FE9 JUMPI PUSH2 0x1FE8 PUSH2 0x2177 JUMP JUMPDEST JUMPDEST DUP3 DUP3 MUL SWAP1 POP SWAP3 SWAP2 POP POP JUMP JUMPDEST PUSH1 0x0 PUSH2 0x1FFF DUP3 PUSH2 0x208A JUMP JUMPDEST SWAP2 POP PUSH2 0x200A DUP4 PUSH2 0x208A JUMP JUMPDEST SWAP3 POP DUP3 DUP3 LT ISZERO PUSH2 0x201D JUMPI PUSH2 0x201C PUSH2 0x2177 JUMP JUMPDEST JUMPDEST DUP3 DUP3 SUB SWAP1 POP SWAP3 SWAP2 POP POP JUMP JUMPDEST PUSH1 0x0 PUSH2 0x2033 DUP3 PUSH2 0x206A JUMP JUMPDEST SWAP1 POP SWAP2 SWAP1 POP JUMP JUMPDEST PUSH1 0x0 DUP2 ISZERO ISZERO SWAP1 POP SWAP2 SWAP1 POP JUMP JUMPDEST PUSH1 0x0 PUSH2 0x2051 DUP3 PUSH2 0x2028 JUMP JUMPDEST SWAP1 POP SWAP2 SWAP1 POP JUMP JUMPDEST PUSH1 0x0 PUSH2 0x2063 DUP3 PUSH2 0x2028 JUMP JUMPDEST SWAP1 POP SWAP2 SWAP1 POP JUMP JUMPDEST PUSH1 0x0 PUSH20 0xFFFFFFFFFFFFFFFFFFFFFFFFFFFFFFFFFFFFFFFF DUP3 AND SWAP1 POP SWAP2 SWAP1 POP JUMP JUMPDEST PUSH1 0x0 DUP2 SWAP1 POP SWAP2 SWAP1 POP JUMP JUMPDEST PUSH1 0x0 PUSH1 0xFF DUP3 AND SWAP1 POP SWAP2 SWAP1 POP JUMP JUMPDEST PUSH1 0x0 PUSH2 0x20AC DUP3 PUSH2 0x20D7 JUMP JUMPDEST SWAP1 POP SWAP2 SWAP1 POP JUMP JUMPDEST PUSH1 0x0 PUSH2 0x20BE DUP3 PUSH2 0x20D7 JUMP JUMPDEST SWAP1 POP SWAP2 SWAP1 POP JUMP JUMPDEST PUSH1 0x0 PUSH2 0x20D0 DUP3 PUSH2 0x2094 JUMP JUMPDEST SWAP1 POP SWAP2 SWAP1 POP JUMP JUMPDEST PUSH1 0x0 PUSH2 0x20E2 DUP3 PUSH2 0x20E9 JUMP JUMPDEST SWAP1 POP SWAP2 SWAP1 POP JUMP JUMPDEST PUSH1 0x0 PUSH2 0x20F4 DUP3 PUSH2 0x206A JUMP JUMPDEST SWAP1 POP SWAP2 SWAP1 POP JUMP JUMPDEST PUSH1 0x0 JUMPDEST DUP4 DUP2 LT ISZERO PUSH2 0x2119 JUMPI DUP1 DUP3 ADD MLOAD DUP2 DUP5 ADD MSTORE PUSH1 0x20 DUP2 ADD SWAP1 POP PUSH2 0x20FE JUMP JUMPDEST DUP4 DUP2 GT ISZERO PUSH2 0x2128 JUMPI PUSH1 0x0 DUP5 DUP5 ADD MSTORE JUMPDEST POP POP POP POP JUMP JUMPDEST PUSH1 0x0 PUSH2 0x2139 DUP3 PUSH2 0x208A JUMP JUMPDEST SWAP2 POP PUSH32 0xFFFFFFFFFFFFFFFFFFFFFFFFFFFFFFFFFFFFFFFFFFFFFFFFFFFFFFFFFFFFFFFF DUP3 EQ ISZERO PUSH2 0x216C JUMPI PUSH2 0x216B PUSH2 0x2177 JUMP JUMPDEST JUMPDEST PUSH1 0x1 DUP3 ADD SWAP1 POP SWAP2 SWAP1 POP JUMP JUMPDEST PUSH32 0x4E487B7100000000000000000000000000000000000000000000000000000000 PUSH1 0x0 MSTORE PUSH1 0x11 PUSH1 0x4 MSTORE PUSH1 0x24 PUSH1 0x0 REVERT JUMPDEST PUSH32 0x4E487B7100000000000000000000000000000000000000000000000000000000 PUSH1 0x0 MSTORE PUSH1 0x32 PUSH1 0x4 MSTORE PUSH1 0x24 PUSH1 0x0 REVERT JUMPDEST PUSH32 0x4E487B7100000000000000000000000000000000000000000000000000000000 PUSH1 0x0 MSTORE PUSH1 0x41 PUSH1 0x4 MSTORE PUSH1 0x24 PUSH1 0x0 REVERT JUMPDEST PUSH1 0x0 DUP1 REVERT JUMPDEST PUSH1 0x0 PUSH1 0x1F NOT PUSH1 0x1F DUP4 ADD AND SWAP1 POP SWAP2 SWAP1 POP JUMP JUMPDEST PUSH32 0x41736B68756E4E46543A20736F6C64206F757400000000000000000000000000 PUSH1 0x0 DUP3 ADD MSTORE POP JUMP JUMPDEST PUSH32 0x5061757361626C653A206E6F7420706175736564000000000000000000000000 PUSH1 0x0 DUP3 ADD MSTORE POP JUMP JUMPDEST PUSH32 0x4F776E61626C653A206E6577206F776E657220697320746865207A65726F2061 PUSH1 0x0 DUP3 ADD MSTORE PUSH32 0x6464726573730000000000000000000000000000000000000000000000000000 PUSH1 0x20 DUP3 ADD MSTORE POP JUMP JUMPDEST PUSH32 0x416464726573733A20696E73756666696369656E742062616C616E636520666F PUSH1 0x0 DUP3 ADD MSTORE PUSH32 0x722063616C6C0000000000000000000000000000000000000000000000000000 PUSH1 0x20 DUP3 ADD MSTORE POP JUMP JUMPDEST PUSH32 0x5061757361626C653A2070617573656400000000000000000000000000000000 PUSH1 0x0 DUP3 ADD MSTORE POP JUMP JUMPDEST PUSH32 0x496E697469616C697A61626C653A20636F6E747261637420697320616C726561 PUSH1 0x0 DUP3 ADD MSTORE PUSH32 0x647920696E697469616C697A6564000000000000000000000000000000000000 PUSH1 0x20 DUP3 ADD MSTORE POP JUMP JUMPDEST PUSH32 0x41736B68756E4E46543A205469657220646F6573206E6F742065786973740000 PUSH1 0x0 DUP3 ADD MSTORE POP JUMP JUMPDEST PUSH32 0x4F776E61626C653A2063616C6C6572206973206E6F7420746865206F776E6572 PUSH1 0x0 DUP3 ADD MSTORE POP JUMP JUMPDEST PUSH32 0x41736B68756E4E46543A20707269636520697320696E76616C69640000000000 PUSH1 0x0 DUP3 ADD MSTORE POP JUMP JUMPDEST PUSH32 0x41736B68756E4E46543A20746F74616C20737570706C7920697320696E76616C PUSH1 0x0 DUP3 ADD MSTORE PUSH32 0x6964000000000000000000000000000000000000000000000000000000000000 PUSH1 0x20 DUP3 ADD MSTORE POP JUMP JUMPDEST PUSH32 0x41736B68756E4E46543A207175616E7469747920697320696E76616C69640000 PUSH1 0x0 DUP3 ADD MSTORE POP JUMP JUMPDEST PUSH32 0x416464726573733A2063616C6C20746F206E6F6E2D636F6E7472616374000000 PUSH1 0x0 DUP3 ADD MSTORE POP JUMP JUMPDEST PUSH32 0x496E697469616C697A61626C653A20636F6E7472616374206973206E6F742069 PUSH1 0x0 DUP3 ADD MSTORE PUSH32 0x6E697469616C697A696E67000000000000000000000000000000000000000000 PUSH1 0x20 DUP3 ADD MSTORE POP JUMP JUMPDEST PUSH32 0x5361666545524332303A204552433230206F7065726174696F6E20646964206E PUSH1 0x0 DUP3 ADD MSTORE PUSH32 0x6F74207375636365656400000000000000000000000000000000000000000000 PUSH1 0x20 DUP3 ADD MSTORE POP JUMP JUMPDEST PUSH32 0x5265656E7472616E637947756172643A207265656E7472616E742063616C6C00 PUSH1 0x0 DUP3 ADD MSTORE POP JUMP JUMPDEST PUSH32 0x41736B68756E4E46543A206164647265737320697320696E76616C6964000000 PUSH1 0x0 DUP3 ADD MSTORE POP JUMP JUMPDEST PUSH32 0x5369676E61626C653A206164647265737320697320696E76616C696400000000 PUSH1 0x0 DUP3 ADD MSTORE POP JUMP JUMPDEST PUSH2 0x25C0 DUP2 PUSH2 0x2028 JUMP JUMPDEST DUP2 EQ PUSH2 0x25CB JUMPI PUSH1 0x0 DUP1 REVERT JUMPDEST POP JUMP JUMPDEST PUSH2 0x25D7 DUP2 PUSH2 0x203A JUMP JUMPDEST DUP2 EQ PUSH2 0x25E2 JUMPI PUSH1 0x0 DUP1 REVERT JUMPDEST POP JUMP JUMPDEST PUSH2 0x25EE DUP2 PUSH2 0x2046 JUMP JUMPDEST DUP2 EQ PUSH2 0x25F9 JUMPI PUSH1 0x0 DUP1 REVERT JUMPDEST POP JUMP JUMPDEST PUSH2 0x2605 DUP2 PUSH2 0x2058 JUMP JUMPDEST DUP2 EQ PUSH2 0x2610 JUMPI PUSH1 0x0 DUP1 REVERT JUMPDEST POP JUMP JUMPDEST PUSH2 0x261C DUP2 PUSH2 0x208A JUMP JUMPDEST DUP2 EQ PUSH2 0x2627 JUMPI PUSH1 0x0 DUP1 REVERT JUMPDEST POP JUMP INVALID LOG2 PUSH5 0x6970667358 0x22 SLT KECCAK256 0xC LOG2 0xDF 0xE5 INVALID SWAP10 0xEF CODECOPY SHR PUSH13 0x986DF690E88A42BEB370F4AE0A 0xE6 SWAP14 EXTCODEHASH 0xE MSTORE 0xF9 SWAP4 SHR 0x25 PUSH5 0x736F6C6343 STOP ADDMOD SMOD STOP CALLER "
				},
				"gasEstimates": {
					"creation": {
						"codeDepositCost": "1964800",
						"executionCost": "2077",
						"totalCost": "1966877"
					},
					"external": {
						"akshun()": "2668",
						"akshunTiers(uint256)": "infinite",
						"buy(uint256,uint256)": "infinite",
						"eth()": "2689",
						"initialize(address,address)": "infinite",
						"nonces(address)": "2859",
						"owner()": "2544",
						"pause()": "infinite",
						"paused()": "2524",
						"renounceOwnership()": "30421",
						"setAkshunTier(uint256,uint256,uint256)": "infinite",
						"setSigner(address)": "infinite",
						"setTreasury(address)": "infinite",
						"signer()": "2560",
						"transferOwnership(address)": "30857",
						"treasury()": "2581",
						"unpause()": "infinite"
					}
				},
				"methodIdentifiers": {
					"akshun()": "3cba00e6",
					"akshunTiers(uint256)": "c7915434",
					"buy(uint256,uint256)": "d6febde8",
					"eth()": "8c7c9e0c",
					"initialize(address,address)": "485cc955",
					"nonces(address)": "7ecebe00",
					"owner()": "8da5cb5b",
					"pause()": "8456cb59",
					"paused()": "5c975abb",
					"renounceOwnership()": "715018a6",
					"setAkshunTier(uint256,uint256,uint256)": "15ccaceb",
					"setSigner(address)": "6c19e783",
					"setTreasury(address)": "f0f44260",
					"signer()": "238ac933",
					"transferOwnership(address)": "f2fde38b",
					"treasury()": "61d027b3",
					"unpause()": "3f4ba83a"
				}
			},
			"storageLayout": {
				"storage": [
					{
						"astId": 138,
						"contract": "contracts/nfts/akshunStore.sol:AkshunStore",
						"label": "_initialized",
						"offset": 0,
						"slot": "0",
						"type": "t_uint8"
					},
					{
						"astId": 141,
						"contract": "contracts/nfts/akshunStore.sol:AkshunStore",
						"label": "_initializing",
						"offset": 1,
						"slot": "0",
						"type": "t_bool"
					},
					{
						"astId": 752,
						"contract": "contracts/nfts/akshunStore.sol:AkshunStore",
						"label": "__gap",
						"offset": 0,
						"slot": "1",
						"type": "t_array(t_uint256)50_storage"
					},
					{
						"astId": 10,
						"contract": "contracts/nfts/akshunStore.sol:AkshunStore",
						"label": "_owner",
						"offset": 0,
						"slot": "51",
						"type": "t_address"
					},
					{
						"astId": 130,
						"contract": "contracts/nfts/akshunStore.sol:AkshunStore",
						"label": "__gap",
						"offset": 0,
						"slot": "52",
						"type": "t_array(t_uint256)49_storage"
					},
					{
						"astId": 303,
						"contract": "contracts/nfts/akshunStore.sol:AkshunStore",
						"label": "_paused",
						"offset": 0,
						"slot": "101",
						"type": "t_bool"
					},
					{
						"astId": 408,
						"contract": "contracts/nfts/akshunStore.sol:AkshunStore",
						"label": "__gap",
						"offset": 0,
						"slot": "102",
						"type": "t_array(t_uint256)49_storage"
					},
					{
						"astId": 423,
						"contract": "contracts/nfts/akshunStore.sol:AkshunStore",
						"label": "_status",
						"offset": 0,
						"slot": "151",
						"type": "t_uint256"
					},
					{
						"astId": 467,
						"contract": "contracts/nfts/akshunStore.sol:AkshunStore",
						"label": "__gap",
						"offset": 0,
						"slot": "152",
						"type": "t_array(t_uint256)49_storage"
					},
					{
						"astId": 1455,
						"contract": "contracts/nfts/akshunStore.sol:AkshunStore",
						"label": "signer",
						"offset": 0,
						"slot": "201",
						"type": "t_address"
					},
					{
						"astId": 1644,
						"contract": "contracts/nfts/akshunStore.sol:AkshunStore",
						"label": "eth",
						"offset": 0,
						"slot": "202",
						"type": "t_contract(IERC20)831"
					},
					{
						"astId": 1647,
						"contract": "contracts/nfts/akshunStore.sol:AkshunStore",
						"label": "akshun",
						"offset": 0,
						"slot": "203",
						"type": "t_contract(IAkshun)1606"
					},
					{
						"astId": 1649,
						"contract": "contracts/nfts/akshunStore.sol:AkshunStore",
						"label": "treasury",
						"offset": 0,
						"slot": "204",
						"type": "t_address"
					},
					{
						"astId": 1661,
						"contract": "contracts/nfts/akshunStore.sol:AkshunStore",
						"label": "akshunTiers",
						"offset": 0,
						"slot": "205",
						"type": "t_mapping(t_uint256,t_struct(AkshunTier)1656_storage)"
					},
					{
						"astId": 1665,
						"contract": "contracts/nfts/akshunStore.sol:AkshunStore",
						"label": "nonces",
						"offset": 0,
						"slot": "206",
						"type": "t_mapping(t_address,t_uint256)"
					}
				],
				"types": {
					"t_address": {
						"encoding": "inplace",
						"label": "address",
						"numberOfBytes": "20"
					},
					"t_array(t_uint256)49_storage": {
						"base": "t_uint256",
						"encoding": "inplace",
						"label": "uint256[49]",
						"numberOfBytes": "1568"
					},
					"t_array(t_uint256)50_storage": {
						"base": "t_uint256",
						"encoding": "inplace",
						"label": "uint256[50]",
						"numberOfBytes": "1600"
					},
					"t_bool": {
						"encoding": "inplace",
						"label": "bool",
						"numberOfBytes": "1"
					},
					"t_contract(IAkshun)1606": {
						"encoding": "inplace",
						"label": "contract IAkshun",
						"numberOfBytes": "20"
					},
					"t_contract(IERC20)831": {
						"encoding": "inplace",
						"label": "contract IERC20",
						"numberOfBytes": "20"
					},
					"t_mapping(t_address,t_uint256)": {
						"encoding": "mapping",
						"key": "t_address",
						"label": "mapping(address => uint256)",
						"numberOfBytes": "32",
						"value": "t_uint256"
					},
					"t_mapping(t_uint256,t_struct(AkshunTier)1656_storage)": {
						"encoding": "mapping",
						"key": "t_uint256",
						"label": "mapping(uint256 => struct AkshunStore.AkshunTier)",
						"numberOfBytes": "32",
						"value": "t_struct(AkshunTier)1656_storage"
					},
					"t_struct(AkshunTier)1656_storage": {
						"encoding": "inplace",
						"label": "struct AkshunStore.AkshunTier",
						"members": [
							{
								"astId": 1651,
								"contract": "contracts/nfts/akshunStore.sol:AkshunStore",
								"label": "price",
								"offset": 0,
								"slot": "0",
								"type": "t_uint256"
							},
							{
								"astId": 1653,
								"contract": "contracts/nfts/akshunStore.sol:AkshunStore",
								"label": "totalSupply",
								"offset": 0,
								"slot": "1",
								"type": "t_uint256"
							},
							{
								"astId": 1655,
								"contract": "contracts/nfts/akshunStore.sol:AkshunStore",
								"label": "totalSold",
								"offset": 0,
								"slot": "2",
								"type": "t_uint256"
							}
						],
						"numberOfBytes": "96"
					},
					"t_uint256": {
						"encoding": "inplace",
						"label": "uint256",
						"numberOfBytes": "32"
					},
					"t_uint8": {
						"encoding": "inplace",
						"label": "uint8",
						"numberOfBytes": "1"
					}
				}
			},
			"userdoc": {
				"kind": "user",
				"methods": {},
				"version": 1
			}
		}
	}
}